:1000000080312528080008007E1480314E01161E1C
:100010000A280B2813280C1E0E280F2813289C31A1
:100020006924803123280B1F1628172823281A1C1F
:100030001A281B282328101C1E281F2823289C311F
:100040009D24803123287E10090080312728D0305C
:1000500084009B30850042011200E8001200E90094
:100060001200EA001200EB001200EC001200ED009A
:10007000403084002B308500B030FE000430FF009B
:100080009C3105248031FA01FB01CF30840000301F
:1000900085002130FE000030FF009C3105248031B6
:1000A00020308400013085003C30FE000030FF002D
:1000B0009C3105248031A03084000130850020303F
:1000C000FE000030FF009C31052480317E1040018D
:1000D0009F310D2F02307A067B04031D7028712892
:1000E000F4299B31E723803175084101D60074085B
:1000F000D5007308D4007208D30056084001A70049
:10010000410155084001A600410154084001A500E5
:10011000410153084001A40001308831352080316D
:1001200040012708E9002608E8002508E700240820
:10013000E6004330CF00B430CE000030CD000030B8
:10014000CC000030F9000030F8000230F7005830E1
:10015000F60041016F08F5006E08F4006D08F30029
:100160006C08F2009E312426803175084001A700FA
:100170007408A6007308A5007208A4000130883135
:100180003520803140012708D3002608D2002508F9
:10019000D1002408D00094314E24803140014F0812
:1001A000ED004E08EC004D08EB004C08EA009D31D4
:1001B0008A258031400169084101EB00400168084F
:1001C0004101EA00400167084101E9004001660879
:1001D0004101E8003E304001B5000530B400D630A2
:1001E000B3003930B200410162084001B900410159
:1001F00061084001B800410160084001B7004101B9
:100200005F084001B6008B310C2380314001350876
:10021000E9003408E8003308E7003208E6003E3021
:10022000B5000B30B4004330B3009630B20041014A
:100230006B084001B90041016A084001B800410162
:1002400069084001B700410168084001B6008B31E0
:100250000C23803140013508ED003408EC003308F0
:10026000EB003208EA009D318A258031400169089F
:100270004101BE00400168084101BD00400167081E
:100280004101BC00400166084101BB003F30400114
:10029000B5007430B4006D30B300C630B200410117
:1002A0005A084001B900410159084001B800410114
:1002B00058084001B700410157084001B6008B3192
:1002C0000C23803140013508CF003408CE003308BC
:1002D000CD003208CC0041013E084001D30041016D
:1002E0003D084001D20041013C084001D1004101DC
:1002F0003B084001D0009531F825803140014F087E
:100300004101DA0040014E084101D90040014D0889
:100310004101D80040014C084101D7006B08E200C0
:100320006A08E1006908E0006808DF00560840013B
:10033000A700410155084001A600410154084001B1
:10034000A500410153084001A40001308831352047
:10035000803140012708B9002608B8002508B700F9
:100360002408B6004330B500B430B4000030B30008
:100370000030B2008B310C23803140013508D300AE
:100380003408D2003308D1003208D0004430CF0006
:100390001630CE000030CD000030CC0094314E2419
:1003A000803140014F08E9004E08E8004D08E700A1
:1003B0004C08E60091313A21803141016408A400E3
:1003C0006308A300A335A40D9830A5002D30A60026
:1003D0002308250786002408263D8700400166087B
:1003E000C03F6708C13F052E05307A067B04031D18
:1003F000FA29FB29382C9B31E7238031750841010C
:10040000D6007408D5007308D4007208D3005608CB
:100410004001A700410155084001A60041015408D0
:100420004001A500410153084001A400013088317A
:100430003520803140012708E9002608E80025081A
:10044000E7002408E6004330CF00B430CE0000308F
:10045000CD000030CC000030F9000030F800023050
:10046000F7005830F60041016F08F5006E08F400FF
:100470006D08F3006C08F2009E3124268031750867
:100480004001A7007408A6007308A5007208A40024
:10049000013088313520803140012708D3002608FB
:1004A000D2002508D1002408D00094314E24803198
:1004B00040014F08ED004E08EC004D08EB004C08E1
:1004C000EA009D318A258031400169084101EB0035
:1004D000400168084101EA00400167084101E90064
:1004E000400166084101E80040304001B5003C3061
:1004F000B4002830B300F630B20041016208400178
:10050000B900410161084001B800410160084001A3
:10051000B70041015F084001B6008B310C238031E8
:1005200040013508E9003408E8003308E7003208E4
:10053000E6003F30B500C130B4002630B300E930EA
:10054000B20041016B084001B90041016A08400155
:10055000B800410169084001B70041016808400145
:10056000B6008B310C23803140013508ED00340892
:10057000EC003308EB003208EA009D318A25803117
:10058000400169084101BE00400168084101BD0009
:10059000400167084101BC00400166084101BB0001
:1005A0003F304001B500B730B4002B30B30002300B
:1005B000B200420137084001B9004201360840014B
:1005C000B800420135084001B7004201340840013B
:1005D000B6008B310C23803140013508CF00340840
:1005E000CE003308CD003208CC0041013E08400166
:1005F000D30041013D084001D20041013C084001C7
:10060000D10041013B084001D0009531F8258031EF
:1006100040014F084101B20040014E084101B100C4
:1006200040014D084101B00040014C084101AF00BC
:100630003F304001B500CD30B400B230B3002D30B2
:10064000B200420133084001B900420132084001C2
:10065000B800420131084001B700420130084001B2
:10066000B6008B310C23803140013508CF003408AF
:10067000CE003308CD003208CC00410132084001E1
:10068000D300410131084001D2004101300840014E
:10069000D10041012F084001D0009531F82580316B
:1006A00040014F084101B60040014E084101B5002C
:1006B00040014D084101B40040014C084101B30024
:1006C0003F304001B5001B30B4004330B3009630DA
:1006D000B20042012F084001B90042012E0840013A
:1006E000B80042012D084001B70042012C0840012A
:1006F000B6008B310C23803140013508E900340805
:10070000E8003308E7003208E600410136084001FE
:10071000ED00410135084001EC0041013408400181
:10072000EB00410133084001EA009D318A25803108
:10073000400169084101DA00400168084101D9001F
:10074000400167084101D800400166084101D70017
:1007500062084201B700410161084201B60041014F
:1007600060084201B50041015F084201B400410147
:100770006B08E2006A08E1006908E0006808DF0031
:1007800042013308AF003208AE003108AD00300836
:10079000AC0041015A084201B3004101590842012D
:1007A000B200410158084201B1004101570842011D
:1007B000B000410156084001A70041015508400121
:1007C000A600410154084001A50041015308400121
:1007D000A400013088313520803140012708B9005C
:1007E0002608B8002508B7002408B6004330B50035
:1007F000B430B4000030B3000030B2008B310C23B1
:10080000803140013508D3003408D2003308D100CC
:100810003208D0004430CF001630CE000030CD007A
:100820000030CC0094314E24803140014F08E90063
:100830004E08E8004D08E7004C08E60091313A21E7
:10084000803141016408A4006308A300A335A40D0E
:100850009830A5002D30A60023082507860024081F
:10086000263D870040016608C03F6708C13F052E4E
:1008700006307A067B04031D3E2C3F2CC22D9B3193
:10088000E723803175084101D6007408D50073084C
:10089000D4007208D30056084001A7004101550852
:1008A0004001A600410154084001A5004101530840
:1008B0004001A400013088313520803140012708F3
:1008C000E9002608E8002508E7002408E600433090
:1008D000CF00B430CE000030CD000030CC0000306E
:1008E000F9000030F8000230F7005830F6004101FE
:1008F0006F08F5006E08F4006D08F3006C08F20054
:100900009E312426803175084001A7007408A60096
:100910007308A5007208A4000130883135208031A9
:1009200040012708D3002608D2002508D10024085A
:10093000D00094314E24803140014F08ED004E0824
:10094000EC004D08EB004C08EA009D318A2580310F
:10095000400169084101EB00400168084101EA00DB
:10096000400167084101E900400166084101E800D3
:100970003F304001B500DB30B4008530B3001F309C
:10098000B200410162084001B90041016108400123
:10099000B800410160084001B70041015F08400113
:1009A000B6008B310C23803140013508E900340852
:1009B000E8003308E7003208E6003F30B500E230D7
:1009C000B400D030B300E530B20041016B08400103
:1009D000B90041016A084001B800410169084001BD
:1009E000B700410168084001B6008B310C2380310B
:1009F00040013508ED003408EC003308EB00320804
:100A0000EA009D318A258031400169084101BE001C
:100A1000400168084101BD00400167084101BC0078
:100A2000400166084101BB003F304001B50028305D
:100A3000B400C130B3005530B20041015A08400142
:100A4000B900410159084001B8004101580840016E
:100A5000B700410157084001B6008B310C238031AB
:100A600040013508CF003408CE003308CD003208ED
:100A7000CC0041013E084001D30041013D08400146
:100A8000D20041013C084001D10041013B08400136
:100A9000D0009531F825803140014F084101DA003E
:100AA00040014E084101D90040014D084101D800E4
:100AB00040014C084101D7006B08E2006A08E100E0
:100AC0006908E0006808DF0056084001A7004101FE
:100AD00055084001A600410154084001A50041010C
:100AE00053084001A4000130883135208031400195
:100AF0002708B9002608B8002508B7002408B60062
:100B00004330B500B430B4000030B3000030B20060
:100B10008B310C23803140013508D3003408D200DA
:100B20003308D1003208D0004430CF001630CE0058
:100B30000030CD000030CC0094314E248031400193
:100B40004F08E9004E08E8004D08E7004C08E600B1
:100B500091313A21803141016408A4006308A30067
:100B6000A335A40D9830A5002D30A6002308250735
:100B700086002408263D870040016608C03F6708BC
:100B8000C13F052E07307A067B04031DC82DC92DF1
:100B9000052E6F084001A70041016E084001A60024
:100BA00041016D084001A50041016C084001A4000D
:100BB0000130883135208031400127084101DA00B9
:100BC000400126084101D900400125084101D80013
:100BD000400124084101D7009B31E72380314101C6
:100BE0006408A4006308A300A335A40D9830A500F1
:100BF0002D30A6002308250786002408263D8700FF
:100C00007208C03F7308C13F052E410164084201CC
:100C1000ED00410163084201EC0041015A08400126
:100C2000A700410159084001A600410158084001B0
:100C3000A500410157084001A400C330AB007F303C
:100C4000AA000030A9000030A8004330AF007F3078
:100C5000AE000030AD000030AC009E31C8268031BF
:100C6000400127084101DA00400126084101D9006E
:100C7000400125084101D800400124084101D70066
:100C80005A084001E900410159084001E8004101CA
:100C900058084001E700410157084001E600913142
:100CA0003A218031400167084101A10040016608F6
:100CB0004101A0009E315A26803141016408803AEA
:100CC000A30081302302031D672E2C306302031C16
:100CD0006A2E6C2E8D31492D00304101A000A100FB
:100CE0009E315A26803108004101C800CB01CC0159
:100CF0009B319B238631003A03197F2E802E782E5C
:100D00009C314A2486314101CE000A304E06031937
:100D10008A2E8B2E912E0D304E06031D902E912E75
:100D2000972E4B08A03E860087018101A22E4B081A
:100D3000A03E860087014E0881000130CB070030BD
:100D4000CC3D782E0A304001A700A030A800A0308A
:100D50009F315C2786314101CD00C901CA01CC2EEB
:100D60004D0887318827863141014935BE3E8600CE
:100D700087017808C03F7908C13F0A304001A700C9
:100D8000A030A80003019F315C2786314101CD00CE
:100D90000130C9070030CA3D4D08031DD02ED12EA9
:100DA000B02E4808860087013E08C03F3F08C13F7B
:100DB00040084001EA00410141084001EB000030D9
:100DC000EB1BFF30EC00ED006608860087016A0827
:100DD000C03F6B08C13F6C08C23F6D08C33F443041
:100DE000CF007A30CE000030CD000030CC00410181
:100DF00042084001A400410143084001A500890DBB
:100E0000893B8909A600A700013088313520863149
:100E100040012708D3002608D2002508D100240865
:100E2000D00094314E24863140016708860001309D
:100E300087004C08C03F4D08C13F4E08C23F4F08D5
:100E4000C33F4430CF007A30CE000030CD000030B8
:100E5000CC00410144084001A40041014508400183
:100E6000A500890D893B8909A600A70001308831BA
:100E70003520863140012708D3002608D2002508F6
:100E8000D1002408D00094314E24863140016808F6
:100E90008600013087004C08C03F4D08C13F4E0816
:100EA000C23F4F08C33F4430CF007A30CE000030FD
:100EB000CD000030CC00410146084001A4004101B2
:100EC00047084001A500890D893B8909A600A700B4
:100ED000013088313520863140012708D3002608AB
:100EE000D2002508D1002408D00094314E24863148
:100EF000400169088600013087004C08C03F4D085A
:100F0000C13F4E08C23F4F08C33F4101A001080046
:100F10004001A500A301A401A201922F0130A0006D
:100F20002008A5072508860087012030010603193F
:100F30009A2F9B2F8E2F250886008701F7300107F7
:100F4000A00005302002031CA62FA72F8E2F2508F6
:100F5000860087012D300106031DAF2FB02FB72F5C
:100F6000A201A20A0130A0002008A507DE2F250853
:100F7000860087012B300106031DBF2FC02FDE2FF7
:100F8000B22F2508860087012408F3002308F20009
:100F90000A30F4000030F5009D316B25873173086D
:100FA0004001A10001087202A000031CA103200857
:100FB000303EA3000030213DA400B22F250886005A
:100FC0008701D0300107A0000A302002031CE92F5E
:100FD000EA2FC12F2208031DEE2FEF2FFB2F23092D
:100FE000A0002409A100A00A0319A10A2008F80002
:100FF0002108F900FF2F2408F9002308F800080051
:1010020008004001A600A401A501102801304001FA
:10101200A2002208A6070130A4070030A53D260839
:101022008600870101080319172818282F2821088C
:10103200F3002008F2002608860087010108A200BA
:10104200A3012208F4002308F5009D312F258831E1
:1010520072087304031D2E282F2807284001250833
:10106200A1002408A00008004001AC002C080319CC
:101072003B283C285028A71F3F28402850282409F5
:10108200AE002509AF002609B0002709B100AE0A5B
:101092000319AF0A0319B00A0319B10A582827081D
:1010A200B1002608B0002508AF002408AE002708CA
:1010B200260425042404031D5F28602869280030C3
:1010C200A7000030A6000030A5000030A400DF28F1
:1010D2009630AD0077280130A8002808AD0701300E
:1010E200B136B00CAF0CAE0C890B7128FE30310555
:1010F200031D7C287D286C2891280130A80028082F
:10110200AD070130AE070030AF3D0030B03D0030DA
:10111200B13D0130B136B00CAF0CAE0C890B8B284F
:10112200FF303105031D962897287E28A12801301B
:10113200AD020130AE35AF0DB00DB10D890B9B285C
:10114200B01BA428A528AB2802302D020318AA2818
:10115200AB2898282D18AE28AF28B728FF30AE0547
:10116200FF30AF057F30B005FF30B1050310AD0C85
:101172002D08A800A901AA01AB011830A835A90DB4
:10118200AA0DAB0D890BBF282808AE042908AF04AD
:101192002A08B0042B08B1042C080319D128D2283C
:1011A200D728A71FD528D628D728B1173108A700D6
:1011B2003008A6002F08A5002E08A40008007A080F
:1011C2007B04031DE528E72880316A289B31E72349
:1011D200883175084101D6007408D5007308D4001F
:1011E2007208D30056084001A7004101550840018A
:1011F200A600410154084001A500410153084001E5
:10120200A400013088313520883140012708E900E7
:101212002608E8002508E7002408E6004330CF004E
:10122200B430CE000030CD000030CC000030F900E8
:101232000030F8000230F7005830F60041016F0824
:10124200F5006E08F4006D08F3006C08F2009E31A0
:101252002426883175084001A7007408A600730887
:10126200A5007208A4000130883135208831400180
:101272002708D3002608D2002508D1002408D00070
:1012820094314E24883140014F08ED004E08EC00A5
:101292004D08EB004C08EA009D318A258831400157
:1012A20069084101EB00400168084101EA00400180
:1012B20067084101E900400166084101E8005E0853
:1012C2004001B50041015D084001B40041015C08E4
:1012D2004001B30041015B084001B20042015708DE
:1012E2004001B900420156084001B80042015508C8
:1012F2004001B700420154084001B6008B310C2373
:10130200883140013508CF003408CE003308CD00C3
:101312003208CC0041016B084001B50041016A0866
:101322004001B400410169084001B300410168086D
:101332004001B20042015B084001B90042015A0873
:101342004001B800420159084001B7004201580863
:101352004001B6008B310C23883140013508D3009F
:101362003408D2003308D1003208D0009531F82574
:10137200883140014F084101BA0040014E08410145
:10138200B90040014D084101B80040014C0841013B
:10139200B700420153084001B50042015208400122
:1013A200B400420151084001B3004201500840011B
:1013B200B2004201280841015302A3004201290858
:1013C2004101543BA40042012A084101553BA500BA
:1013D20042012B084101563BA60026084001A70006
:1013E200410125084001A600410124084001A50051
:1013F200410123084001A4000130883135208831A1
:1014020040012708B9002608B8002508B7002408BB
:10141200B6008B310C23883140013508E9003408CD
:10142200E8003308E7003208E60041013A084001CB
:10143200ED00410139084001EC004101380840014A
:10144200EB00410137084001EA009D318A258831CD
:10145200400169084101DA00400168084101D900F0
:10146200400167084101D800400166084101D700E8
:101472006B084001CF0041016A084001CE004101E2
:1014820069084001CD00410168084001CC004101DA
:101492005E084001D30041015D084001D2004101D4
:1014A2005C084001D10041015B084001D000953148
:1014B200F825883140014F084101DE0040014E0805
:1014C2004101DD0040014D084101DC0040014C08B2
:1014D2004101DB005E084001A70041015D084001B7
:1014E200A60041015C084001A50041015B084001E2
:1014F200A400C430AB001630AA000030A9000030AE
:10150200A8004430AF001630AE000030AD0000300D
:10151200AC009E31C8268831400127084101DE0017
:10152200400126084101DD00400125084101DC009F
:10153200400124084101DB0056084201AB00410191
:1015420055084201AA00410154084201A900410183
:1015520053084201A800410156084001A700410179
:1015620055084001A600410154084001A50041016F
:1015720053084001A40001308831352088314001F0
:101582002708B9002608B8002508B7002408B600C5
:101592004330B500B430B4000030B3000030B200C4
:1015A2008B310C23883140013508D3003408D20036
:1015B2003308D1003208D0004430CF001630CE00BC
:1015C2000030CD000030CC0094314E2488314001EF
:1015D2004F08E9004E08E8004D08E7004C08E60015
:1015E20091313A21883141016408A4006308A300C3
:1015F200A335A40D9830A5002D30A6002308250799
:1016020086002408263D870040016608C03F67081F
:10161200C13F8631052E400135088039BF0035357E
:10162200C500B41F152B162B172B4514450803199B
:101632001B2B1C2B2B2B450A031D202B212B292B6B
:101642000030B5000030B4000030B3000030B2000A
:10165200B417332B0030B5000030B4000030B300B3
:101662000030B20039088039BA003A08BF0639356D
:10167200C000B81F3D2B3E2B3F2B401440080319DE
:10168200432B442B532B400A031D482B492B512B30
:101692000030B9000030B8000030B7000030B600AA
:1016A200B8175B2B0030B9000030B8000030B7002B
:1016B2000030B600400803195F2B602B652B4508EC
:1016C200031D642B652B6E2B0030B5000030B40077
:1016D2000030B3000030B200462D3208F200380864
:1016E2009D31CD258B3173084001CB007208CA00B1
:1016F2004A08BA00BB01BC01BD013D08C4003C0858
:10170200C3003B08C2003A08C1004B08BA00BB0143
:10171200BC01BD013D08C9003C08C8003B08C70028
:101722003A08C6003308F20037089D31CD258B31C7
:1017320073084001CB007208CA004A08BA00BB0114
:10174200BC01BD013A08C1073B08C23D3C08C33D8C
:101752003D08C43D4B08BA00BB01BC01BD013A08BB
:10176200C6073B08C73D3C08C83D3D08C93D340893
:10177200F20036089D31CD258B3173084001CB0034
:101782007208CA004A08BA00BB01BC01BD013A088E
:10179200C1073B08C23D3C08C33D3D08C43D4B0860
:1017A200BA00BB01BC01BD013A08C6073B08C73DF0
:1017B2003C08C83D3D08C93D0830C135C20DC30DC6
:1017C200C40D890BDE2B3308F20036089D31CD257E
:1017D2008B3173084001CB007208CA004A08C10766
:1017E2004B08C23D0030C33DC43D3208F200370809
:1017F2009D31CD258B3173084001CB007208CA00A0
:101802004A08C1074B08C23D0030C33DC43D083001
:10181200C135C20DC30DC40D890B092C3208F2006B
:1018220036089D31CD258B3173084001CB007208FB
:10183200CA004A08C1074B08C23D0030C33DC43D3F
:101842003308F20038089D31CD258B3173084001F1
:10185200CB007208CA004A08C6074B08C73D0030D1
:10186200C83DC93D3408F20037089D31CD258B3182
:1018720073084001CB007208CA004A08C6074B0829
:10188200C73D0030C83DC93D3408F20038089D31DB
:10189200CD258B3173084001CB007208CA004A087B
:1018A200BA004B08BB00BC01BD010830BA35BB0D04
:1018B200BC0DBD0D890B572C3A08C6073B08C73D26
:1018C2003C08C83D3D08C93D4108BA004208BB007A
:1018D2004308BC004408BD001830BD36BC0CBB0C2C
:1018E200BA0C890B6E2C3A08C6073B08C73D3C0868
:1018F200C83D3D08C93D0830C135C20DC30DC40DF8
:10190200890B7D2C45084007BA00BB01BB0D3A0884
:10191200823ECA00FF303B3DCB00A62C0130C635CB
:10192200C70DC80DC90D890B902CC41F992C9A2C78
:101932009B2C46140130C135C20DC30DC40D890B59
:101942009C2CFF30CA07FF30CB3DC81FA92CAA2C04
:101952008F2CC001C41FAE2CAF2CCB2CFF30410505
:10196200BA00FF304205BB00FF304305BC007F30A8
:101972004405BD003D083C043B043A040319C22C53
:10198200C32CC62CC001C00ACB2C461CC92CCA2CA5
:10199200CB2CC32C40080319CF2CD02CF82C0130AF
:1019A200C6070030C73D0030C83D0030C93D491C64
:1019B200DB2CDC2CF82C4608BA004708BB00480890
:1019C200BC004908BD000130BE00BD37BC0CBB0CD9
:1019D200BA0CBE0BE62C3D08C9003C08C8003B0807
:1019E200C7003A08C6000130CA070030CB3D4B0899
:1019F200803ABA0080303A02031D012DFF304A02BC
:101A0200031C042D052D0F2D7F304001C9008030AD
:101A1200C8000030C7000030C6003A2D40014B0814
:101A2200803ABA0080303A02031D192D01304A0271
:101A320003181C2D1D2D282D00304001C900003037
:101A4200C8000030C7000030C600BF013A2D400177
:101A52004A08C500FF30C605FF30C7057F30C805FC
:101A62000030C905451C362D372D382DC81745368F
:101A7200C9003F08BA003A08C9044908B500480835
:101A8200B4004708B3004608B200080086315D2E54
:101A920042016D0841016406031D532D42016C0889
:101AA200410163060319562D572D472D7A037B04F6
:101AB200031D5C2D5E2D8831E0289B31F1238D3191
:101AC20075084101D2007408D1007308D000720871
:101AD200CF0052084001E900410151084001E800ED
:101AE200410150084001E70041014F084001E60072
:101AF2004730CF006A30CE006030CD000030CC00DD
:101B02000030F9000030F8000230F7005830F600DB
:101B120041016F08F5006E08F4006D08F3006C08CF
:101B2200F2009E3124268D3175084001A700740809
:101B3200A6007308A5007208A40001308831352080
:101B42008D3140012708D3002608D2002508D10094
:101B52002408D00094314E248D3140014F08ED000D
:101B62004E08EC004D08EB004C08EA009D318A2536
:101B72008D31400169084101EB00400168084101D3
:101B8200EA00400167084101E9004001660841019D
:101B9200E80042015B084001B90042015A084001D5
:101BA200B800420159084001B700420158084001FB
:101BB200B60041016B084001B50041016A084001CD
:101BC200B400410169084001B300410168084001C5
:101BD200B2008B310C238D3140013508D30034081B
:101BE200D2003308D1003208D00042015708400128
:101BF200B900420156084001B800420155084001AF
:101C0200B700420154084001B60041015E0840019C
:101C1200B50041015D084001B40041015C0840018A
:101C2200B30041015B084001B2008B310C238D31BE
:101C320040013508CF003408CE003308CD00320809
:101C4200CC009531F8258D3140014F084101BA0091
:101C520040014E084101B90040014D084101B80060
:101C620040014C084101B70052084001ED0041011A
:101C720051084001EC00410150084001EB004101D4
:101C82004F084001EA00420127084001E9004201F1
:101C920026084001E800420125084001E700420110
:101CA20024084001E6009D318A258D3140016908F2
:101CB200B9006808B8006708B7006608B6004201B4
:101CC20053084001B500420152084001B4004201EC
:101CD20051084001B300420150084001B2008B316B
:101CE2000C238D31400135084101AA00400134081E
:101CF2004101A900400133084101A8004001320816
:101D02004101A7003A084001ED00410139084001B4
:101D1200EC00410138084001EB0041013708400165
:101D2200EA0041012A084001E90041012908400175
:101D3200E800410128084001E7004101270840016D
:101D4200E6009D318A258D31400169084101AE00CE
:101D5200400168084101AD00400167084101AC0043
:101D6200400166084101AB002E084001CF0041014D
:101D72002D084001CE0041012C084001CD00410157
:101D82002B084001CC0041015A084001D300410117
:101D920059084001D200410158084001D1004101D7
:101DA20057084001D0009531F8258D3140014F0888
:101DB2004101DA0040014E084101D90040014D08BD
:101DC2004101D80040014C084101D7006B08400195
:101DD200CF0041016A084001CE004101690840017B
:101DE200CD00410168084001CC0041015E0840017C
:101DF200D30041015D084001D20041015C0840016D
:101E0200D10041015B084001D0009531F8258D31A8
:101E120040014F084101DE0040014E084101DD0052
:101E220040014D084101DC0040014C084101DB004A
:101E32005E084001A70041015D084001A600410182
:101E42005C084001A50041015B084001A400C430C8
:101E5200AB001630AA000030A9000030A8004430C0
:101E6200AF001630AE000030AD000030AC009E3145
:101E7200C8268D31400127084101DE0040012608B5
:101E82004101DD00400125084101DC004001240838
:101E92004101DB0052084201A70041015108420101
:101EA200A600410150084201A50041014F0842012C
:101EB200A400410152084001B9004101510840010A
:101EC200B800410150084001B70041014F084001EC
:101ED200B6004730B5006A30B4006030B30000305D
:101EE200B2008B310C238D3140013508D300340808
:101EF200D2003308D1003208D0004430CF0016306F
:101F0200CE000030CD000030CC0094314E248D3113
:101F120040014F08E9004E08E8004D08E7004C0870
:101F2200E60091313A218D3141016408A400630831
:101F3200A300A335A40D9830A5002D30A6002308D8
:101F4200250786002408263D870040016608C03F19
:101F52006708C13F4130CF002030CE000030CD00B5
:101F62000030CC0042013C0838024101A30042018A
:101F72003D08393B4101A40042013E083A3B410180
:101F8200A50042013F083B3B4101A6002608400153
:101F9200A700410125084001A60041012408400193
:101FA200A500410123084001A400013088313520F9
:101FB2008D3140012708D3002608D2002508D10020
:101FC2002408D00094314E248D3140014F08420143
:101FD200A30040014E084201A20040014D08420107
:101FE200A10040014C084201A0003B08BF003A0892
:101FF200BE003908BD003808BC008631052E4401F8
:102002008F0190010130910063308D00C0308C004F
:102012004E01101044010D084101E60044010C0874
:102022004101E5004E011A140330F2000030F300C2
:102032009B31C4239031113044018E0008004001CD
:102042009A010830990096019701093098000730EB
:102052009500FF309100FF309200EF309300F03096
:102062009400F0307E01D9009030CE00FF30C300E2
:102072000730E400FF30B800DA01E501C401B9011C
:102082000630CF00E601BA01C501D001DB01FF3005
:10209200BB00FF30C600FF30D100FF30DC0007304C
:1020A200E700FF30BC00FF30C700FF30D200FF3036
:1020B200DD000F30E800D5105511D4105411D3149F
:1020C20053150130F2000830F3009B31B8239031F0
:1020D2000230F2000030F3009B31BE2390314E01FA
:1020E200161615307D01CB0010307E01A4000E3093
:1020F200A900080076087704031980288128872818
:1021020076087704031D862887288C2874089B315B
:10211200CA239031D928760886007708870049318A
:1021220016000104031996289728B8287608860015
:10213200770887004931403F4001A000413FA1009C
:1021420076088600770887004231403FA200413F6F
:10215200A3002308803AA4002108803A2402031D28
:10216200B428200822020318B728B828D9287608EC
:102172008600770887004231760884007708850058
:10218200403F00074001A0000131413F003DA10056
:1021920020088600210887007408810076088600DE
:1021A2007708870042310130810741310318810AE3
:1021B20008004001A101F31FDF28E028E728F20907
:1021C200F309F20A0319F30AA101A10AF51FEA2889
:1021D200EB28F428F409F509F40A0319F50A013089
:1021E200F6007608A106A201A3017208730403197E
:1021F200FB28FC282B29A001A00A08290130F2356E
:10220200F30D890B00290130F6007608A007F31FB1
:102212000B290C29FF280130A235A30D890B0D29AA
:1022220073087502031D172972087402031C1A2908
:102232001B2920297208F4027308F53B221401308D
:10224200F336F20C890B21290130A002031D2A2941
:102252002B290C29210803192F2930293529A209F4
:10226200A309A20A0319A30A2308F3002208F20011
:10227200080003104001680D690DEF006F08031D8F
:10228200432944294D290030E9000030E80000309C
:10229200E7000030E600AA296608EA006708EB00BA
:1022A2006808EC006908ED001F30ED36EC0CEB0C11
:1022B200EA0C890B56296A08EE00E817FF30E6059A
:1022C200FF30E705FF30E8050030E9059630EF0200
:1022D200EF1F6C296D2985296F08803A973E0318F4
:1022E20073297429752944290130E936E80CE70C71
:1022F200E60C890B76290130EA006A08EF07031D14
:102302008329842975299A2920306F02031C8A297E
:102312008B29952944290130E635E70DE80DE90DB1
:10232200890B8D290130EF026F08031D99299A2923
:102332008C296E0803199E299F29AA29E609E70913
:10234200E809E909E60A0319E70A0319E80A031981
:10235200E90A0800003072054001A0000030730550
:10236200A10080307405A2007F307505A300230808
:10237200220421042004031DBF29C029C8290030DA
:10238200F5000030F4000030F3000030F2000030BD
:102392007605A00000307705A10080307805A20004
:1023A2007F307905A3002308220421042004031DA1
:1023B200DB29DC29E4290030F9000030F800003084
:1023C200F7000030F600F51FE729E829002A00305F
:1023D200A0000030A1000030A2008030A3007208EB
:1023E200A0027308A13B7408A23B7508A33B230813
:1023F200F5002208F4002108F3002008F200F91F7A
:10240200032A042A1C2A0030A0000030A100003058
:10241200A2008030A3007608A0027708A13B7808CA
:10242200A23B7908A33B2308F9002208F8002108FF
:10243200F7002008F6008030F5068030F9067908AA
:102442007502031D2E2A78087402031D2E2A7708AE
:102452007302031D2E2A760872020318312A322AC9
:10246200342A0310352A0314080000304201BB004D
:102472000030BA000030B9000030B8000030BF00B0
:102482000030BE000030BD000030BC004101E3015D
:10249200E40100304201A3000030A2000030A1009C
:1024A2000030A00000304101EB000030EA000030B3
:1024B200E9000030E8000030E2000030E1000030C6
:1024C200E0000030DF0000304201B7000030B6000B
:1024D2000030B5000030B40000304101DE000030B1
:1024E200DD000030DC000030DB000030DA000030BC
:1024F200D9000030D8000030D70000304201B300CC
:102502000030B2000030B1000030B0000030AF0047
:102512000030AE000030AD000030AC000030AB0047
:102522000030AA000030A9000030A80000304101AC
:10253200D6000030D5000030D4000030D300003087
:10254200D2000030D1000030D0000030CF00003087
:102552004201A7000030A6000030A5000030A40010
:1025620003104001191D03140318B82ABB2A4001A5
:102572001915BD2A400119119B3198239231080087
:102582004001CB01CC0107307A067B04031DCA2A25
:10259200CB2AE82A06304001BC00A030BD004C081E
:1025A200C4004B08C300C335C40D9830C5002D309C
:1025B200C6004308450786004408463D8700403F61
:1025C200BE00413FBF009C3159249231182B00308C
:1025D2004001BC00A030BD004C08C4004B08C30041
:1025E200C335C40D9830C5002D30C60043084507D9
:1025F20086004408463D8700403FBE00413FBF0081
:102602004C08C8004B08C700C735C80D4030C90088
:102612002B30CA0047084907860048084A3D870010
:10262200403FC000413FC1009C31592492314001DA
:102632004C08803AC30081304302031D222B2B3009
:102642004B020318252B262B352B07307A067B04E9
:1026520003192C2B2D2B352B0A304001BC00A03046
:10266200BD009C31592492310B304001C3006230CD
:10267200890B392BC30B392B000001304001CB07EA
:102682000030CC3D4C08803AC30081304302031D28
:102692004C2B2C304B02031C4F2B502BC42A0830DE
:1026A2004001BC00A030BD009C3159249231080089
:1026B2004001270886008701403FA900413FAA0048
:1026C200290884002A0885001200253A031D6A2B76
:1026D2006B2B332C2708860087010130810741319B
:1026E2000318810A4201C801C9010310003003180E
:1026F2000130CE00FF30CA00FF30CB004001270876
:1027020086008701403FAE00413FAF002E088400A3
:102712002F0885001200643A0319902B912B9B2BF2
:102722002E0884002F0885001200693A031D9A2B97
:102732009B2B292C2808860087010108840085012B
:1027420002308107003FB000013FB1002E08013E78
:10275200A90000302F3DAA0027088600870129081A
:10276200C03F2A08C13F2030B400B11BB92BBB2B9C
:102772000130BC2B0030AD000130B4023408A03E61
:102782008600013087000A30F2000030F300310881
:10279200F5003008F4009F31AD27933173084001F2
:1027A200A1007208A0009C318B24933140012008C3
:1027B200303E81000A30F2000030F3003108F500AB
:1027C2003008F4009031DA20933173084001B100EF
:1027D2007208B000300831040319F02BF12BF62BEC
:1027E2003408031DF52BF62BBD2B34080319FA2BE5
:1027F200FB2B222C2D080319FF2B002C222C01303D
:10280200B4023408A03E8600013087002D308100DA
:10281200222C3408A03E8600013087000108A9005E
:10282200AA012908F4002A08F5002608F70025085D
:10283200F60090317B20933101304001A900290834
:10284200B40720303406031D272C282C0A2C4D2CCB
:1028520040012708860087010130810741310318B2
:10286200810A4D2C270886008701403FA900413F7D
:10287200AA00290884002A0885000008AB00AC01E0
:102882002B08F4002C08F5002608F7002508F600AE
:1028920090317B209331292C080040015308803964
:1028A200DD005335E400D21F572C582C592C6414E8
:1028B200640803195D2C5E2C6E2C640A031D622CC5
:1028C200632C6B2C0030D3000030D2000030D100DA
:1028D2000030D000D217D301762C0030D300003064
:1028E200D2000030D1000030D0004F088039D4002F
:1028F2005408DD064F35E500CE1F802C812C822C3A
:10290200651465080319862C872C972C650A031D0C
:102912008B2C8C2C942C0030CF000030CE00003059
:10292200CD000030CC00CE17CF019F2C0030CF005D
:102932000030CE000030CD000030CC004F084E04F5
:102942004D044C04031DA62CA72CC02C0030D30030
:102952000030D2000030D1000030D0008030D204EC
:102962007F30D3045D08D4005408D3045308CF0049
:102972005208CE005108CD005008CC00F72D640853
:10298200031DC42CC52CCE2C0030CF000030CE004D
:102992000030CD000030CC00F72D6408D400D50102
:1029A2005508D70065085402D600031CD703560801
:1029B2007F3EDE000030573DDF005308DC00520846
:1029C200DB005108DA005008D9000030D300003093
:1029D200D2000030D1000030D0000030E3000030DF
:1029E200E2000030E1000030E000E501362D65082C
:1029F2000319FC2CFD2C172D0130D935DA0DDB0D16
:102A0200DC0D890BFE2C0130D035D10DD20DD30D4A
:102A1200890B052DE31F0E2D0F2D102D50140130A3
:102A2200E035E10DE20DE30D890B112D4F085C023B
:102A3200031D252D4E085B02031D252D4D085A024C
:102A4200031D252D4C085902031C282D292D322D3A
:102A520063174C08D9024D08DA3B4E08DB3B4F089E
:102A6200DC3B0130D4005408E5071A306502031C30
:102A72003B2D3C2DF82C5C085B045A0459040319C5
:102A8200432D442D5D2D60145D2D0130D035D10DC7
:102A9200D20DD30D890B472DE31F502D512D522DF1
:102AA20050140130E035E10DE20DE30D890B532D99
:102AB200FF30DE07FF30DF3DD21F602D612D462D36
:102AC200E501E31F652D662D822DFF306005D400E0
:102AD200FF306105D500FF306205D6007F30630507
:102AE200D70057085604550454040319792D7A2D3A
:102AF2007D2DE501E50A822D501C802D812D822D30
:102B02007A2D65080319862D872DAF2D0130D00748
:102B12000030D13D0030D23D0030D33D531C922DC8
:102B2200932DAF2D5008D4005108D5005208D6007D
:102B32005308D7000130D800D737D60CD50CD40CA7
:102B4200D80B9D2D5708D3005608D2005508D10046
:102B52005408D0000130DE070030DF3D5F08803AC4
:102B6200D40080305402031DB82DFF305E02031CD6
:102B7200BB2DBC2DC92DFF304001DE000030DF002F
:102B82000030D3000030D2000030D1000030D0003D
:102B920040015F08803AD40080305402031DD32DD7
:102BA20001305E020318D62DD72DE32D4001DE0140
:102BB200DF010030D3000030D2000030D1000030FD
:102BC200D000DD0140015E08E400641CE92DEA2D1D
:102BD200EC2DD217F02D7F30D4005408D205643684
:102BE200D3005D08D4005408D304B72C0800400178
:102BF2004F088039DC004F35DE00CE1F012E022E39
:102C0200032E5E145E080319072E082E182E5E0A84
:102C1200031D0C2E0D2E152E0030CF000030CE00DD
:102C22000030CD000030CC00CE17CF01202E003076
:102C3200CF000030CE000030CD000030CC00530871
:102C42008039DD005D085C060319282E292E2A2E04
:102C52005C175335DD00D21F2F2E302E312E5D141E
:102C62005D080319352E362E462E5D0A031D3A2EB7
:102C72003B2E432E0030D3000030D2000030D10072
:102C82000030D000D217D3014E2E0030D3000030D6
:102C9200D2000030D1000030D0005E085D0203187F
:102CA200532E542E7A2E5C1F572E582E5C2E8030B7
:102CB200D4005408DC065E08DF005D08DE005F0811
:102CC200DD004C08DF005008CC005F08D0004D0842
:102CD200DF005108CD005F08D1004E08DF00520826
:102CE200CE005F08D2004F08DF005308CF005F0814
:102CF200D300DF015D08D400D5015508D7005E0876
:102D02005402D600031CD7035708803AD8008030FB
:102D12005802031D8E2E1A305602031C912E922E3B
:102D2200C42E40014F084E044D044C04031D9A2E3C
:102D32009C2E01309D2E0030DF000030CF0000308D
:102D4200CE000030CD000030CC005D08DE00CB2E7E
:102D52005F1CAC2EAD2EB12E5F360138DF00B32ED4
:102D62000310DF0C4C1CB62EB72EB82EDF17013025
:102D7200D400CF37CE0CCD0CCC0CD40BBA2E0130F4
:102D8200D4005408DE0740015D085E02031CCA2E0F
:102D9200CB2EA92E5C1BCE2ECF2E052F5E08031D37
:102DA200D32ED42EDD2E0030CF000030CE000030E6
:102DB200CD000030CC00FF2F5008CC075108CD3D8C
:102DC2005208CE3D5308CF3D4F1CE82EE92E912FDD
:102DD2005F1CEC2EED2EF12E5F360138DF00F32E54
:102DE2000310DF0C4C1CF62EF72EF82EDF170130E5
:102DF200D400CF37CE0CCD0CCC0CD40BFA2E013034
:102E0200D4005408DE07912F4F08803AD4005308AB
:102E1200803A5402031D172F52084E02031D172F2A
:102E220051084D02031D172F50084C0203181A2F88
:102E32001B2F532FFF30D400FF30D500FF30D600B8
:102E4200FF30D7004C085002D8004D08513BD90042
:102E52004E08523BDA004F08533BDB005808D407B8
:102E62005908D53D5A08D63D5B08D73D5708CF00D3
:102E72005608CE005508CD005408CC008030D4004E
:102E82005408DC06DF09DF0A5F08031D492F4A2FB9
:102E92005B2F0130CC070030CD3D0030CE3D0030FD
:102EA200CF3D5B2F5008CC025108CD3B5208CE3BA0
:102EB2005308CF3B4F084E044D044C04031D622FB0
:102EC200632F8D2F5F08031D672F682F8D2F003012
:102ED200CF000030CE000030CD000030CC00FF2FFC
:102EE2000130CC35CD0DCE0DCF0D890B722FDF1FEA
:102EF2007B2F7C2F7D2F4C145F1C802F812F842FE2
:102F02000314DF0D862F0310DF0D5E0803198A2FCD
:102F12008B2F8D2F0130DE02CE1F902F912F712F1C
:102F2200DD01DF1F952F962FA42F5F087F3903192C
:102F32009B2F9C2F9F2FDD01DD0AA42F4C1CA22F5B
:102F4200A32FA42F9C2F5D080319A82FA92FD62FDA
:102F52000130CC070030CD3D0030CE3D0030CF3DBA
:102F62004F1CB42FB52FD62F4C08D4004D08D500D6
:102F72004E08D6004F08D7000130D800D737D60CFC
:102F8200D50CD40CD80BBF2F5708CF005608CE0053
:102F92005508CD005408CC005E0A0319D12FD22F58
:102FA200D62F0130D4005408DE075E0A0319DA2F47
:102FB200DB2FE02F5E08031DDF2FE02FEE2F003006
:102FC200CF000030CE000030CD000030CC005E08D3
:102FD200031DEC2FED2FEE2FDC015E1CF12FF22FE3
:102FE200F42FCE17F82F7F30D4005408CE055E366A
:0E2FF200CF00DC1FFD2FFE2FFF2FCF17080092
:10372A0044010E10080044010E1408004E010F0E49
:10373A00890C0139080001304101E3070030E43DFA
:10374A00080073084201E3007208E20008007308E7
:10375A004201E7007208E600080073084201E5002A
:10376A007208E400080073084201E1007208E000F0
:10377A00080073084201DF007208DE0008007308BF
:10378A004201DD007208DC000800F30073089B3177
:10379A00FB239B31080058340234003400340134CE
:1037AA0000344F0196019701980199019A019B01F2
:1037BA000800603051018D008F019101063093009D
:1037CA009201080042013B08F5003A08F400390862
:1037DA00F3003808F200080042012308F500220825
:1037EA00F4002108F3002008F2000800F2004E015C
:1037FA000F1E002C012CFC2B720842019A000800B3
:10380A006400800101310130FE020030FF3B7F0875
:10381A007E04031D062C0034803047018E003F30A1
:10382A008D00C0308C0044011F08F33904389F0012
:10383A0008000130450190008F0191013F308D0051
:10384A008C014E019010F03045018E0008004201B3
:10385A00600861040319322C332C382C61088A0061
:10386A0060080A009C317E01D510080042015E08FA
:10387A005F040319412C422C472C5F088A005E081A
:10388A000A009C317E01551108004E018F1E4E2CF4
:10389A004F2C4A2C4201CF019D1C542C552C572CDD
:1038AA001D121D16190808003E304001C2000030E2
:1038BA00B500B6003D08B8003C08B7004230B90070
:1038CA009D314D259C3108007E01D51C6D2C6E2C36
:1038DA00712C9C312C249C317E01551D752C762C23
:1038EA00792C9C313B249C31080044010E1D7E2C0E
:1038FA007F2C862C0E1071088D0070088C000E1417
:10390A008A2C71088D0070088C0008004001A11BE8
:10391A008F2C902C912C9C2C2009A2002109A30009
:10392A00A20A0319A30A2208A0002308A10008007A
:10393A004E01101041016608F1006508F0009C3143
:10394A007A249C3142015C085D040319AD2CAE2C2B
:10395A00B32C5D088A005C080A009C310800440107
:10396A0095019601013097000230930018309200B9
:10397A004E011011440113084201CD0044011208FE
:10398A004201CC00343044019400080040010E1D6D
:10399A00CF2CD02CDA2C01304201B8070030B93DC7
:1039AA000030BA3D0030BB3DE32CFF304201B8077E
:1039BA00FF30B93DFF30BA3DFF30BB3D0800400142
:1039CA008E18E82CE92CF32C01304201B80700309C
:1039DA00B93D0030BA3D0030BB3DFC2CFF304201FE
:1039EA00B807FF30B93DFF30BA3DFF30BB3D080094
:1039FA0040012508A7002408A600A736A60CA7366A
:103A0A00A60C260847018D00400124080339A600A8
:103A1A000530A635FF3E031D0E2D263547018C00C5
:103A2A0008009B31D6239D31903120209D319B3156
:103A3A00DE239D319C3111249D319C31B4249D316A
:103A4A009C311E249D31903100209D319D31AA2543
:103A5A009D31080072088400730885000008740606
:103A6A00031D382D392D3A2D4C2D7308F700720895
:103A7A00F600F20A0319F30A76088400770885002B
:103A8A001200031D492D4A2D2F2DF201F3010800C2
:103A9A0040013808BB003708BA005E2D3608A60078
:103AAA003508A5003A30A7003908A80093315923F0
:103ABA009D3140013A0884003B0885001200031D2D
:103ACA00672D682D532DB501B6010800F601F701DF
:103ADA00721C702D712D752D7408F6077508F73D47
:103AEA000130F435F50D890B762D0130F336F20CE1
:103AFA00890B7B2D72087304031D842D852D6D2D72
:103B0A007708F3007608F200080080304001E906E1
:103B1A006D08CF006C08CE006B08CD006A08CC0097
:103B2A006908D3006808D2006708D1006608D00087
:103B3A009531F8259D3140014F08E9004E08E8000B
:103B4A004D08E7004C08E6000800083042019F00D3
:103B5A0090309D0024309E0040309B0003309C0032
:103B6A000030F2000030F3009B31AC239D3100306D
:103B7A00F2000030F3009B31B2239D310030F20095
:103B8A000030F3009B31A6239D314201CF0108008A
:103B9A004001A400A001A1017208F400F501740813
:103BAA00A2007508A300241CDB2DDC2DE02D2208C1
:103BBA00A0072308A13D0130A235A30D890BE12DF1
:103BCA000310A40C2408031DEB2DEC2DD82D21087D
:103BDA00F3002008F20008004001A600A401A50194
:103BEA00FF2D01304001A2002208A6070130A407D8
:103BFA000030A53D26088600870101080319062E14
:103C0A00072E1E2E2108F3002008F200260886003F
:103C1A0087010108A200A3012208F4002308F50085
:103C2A009D312F259D317208730403191D2E1E2EF6
:103C3A00F62D40012508A1002408A0000800003044
:103C4A004001A3000030A2000030A1000030A00013
:103C5A00721C302E312E3A2E76084001A0077708C2
:103C6A00A13D7808A23D7908A33D0130F635F70D4C
:103C7A00F80DF90D890B3B2E0130F536F40CF30CD7
:103C8A00F20C890B422E7508740473047204031D26
:103C9A004F2E502E2D2E40012308F5002208F40045
:103CAA002108F3002008F200080041012108803AA7
:103CBA00A20080302202031D642E01302002031C60
:103CCA00672E682E712E4001191499111E30410178
:103CDA00A0070030A13D7E2E4101A11F752E762E30
:103CEA007E2E400119109915E2304101A007FF30DC
:103CFA00A13D21084001A100410120084001A00086
:103D0A009C318B249E3140012108A5002008A40083
:103D1A009C31FD249E310800F801F9017908803AA6
:103D2A004001A00081302002031D9D2E2C30780214
:103D3A00031CA02EA12EA22EC72E7908F300780804
:103D4A00F2000A30F4000030F5009D316B259E31F7
:103D5A0079084001A1007808A000A035A10D4030E3
:103D6A00A2002B30A3002008220786002108233D49
:103D7A0087007208C03F7308C13F0130F80700305E
:103D8A00F93D932E080040012708F5002608F400A3
:103D9A002508F3002408F2002B08F9002A08F80085
:103DAA002908F7002808F6009131AB219E31031843
:103DBA00DF2EE02EEA2E40012B08A7002A08A600D3
:103DCA002908A5002808A4000C2F40012F08F50097
:103DDA002E08F4002D08F3002C08F2002708F90039
:103DEA002608F8002508F7002408F6009131AB21CF
:103DFA009E310318012F022F0C2F40012F08A70014
:103E0A002E08A6002D08A5002C08A4000C2F0800D7
:103E1A009D3116259F31CB30F2001C30F3009B31C7
:103E2A00B8239F31E430F2001C30F3009B31BE23EB
:103E3A009F31A030F2001B30F3009B31C4239F3125
:103E4A008B170B179B3198239F3100304101A0003B
:103E5A00A1009E315A269F319E3191269F31EC3026
:103E6A004001E6005830E7005430E8005030E900DD
:103E7A007A30863174269F31923136229F318D31C4
:103E8A0047259F319B3195239F3103104001191D0E
:103E9A0003140318512F542F40011915562F4001AE
:103EAA0019119231C1229F31342F80312528F9000E
:103EBA007908031D612F622F6C2F41016708F900F1
:103ECA007908031D692F6A2F6C2F0030AC2F40012F
:103EDA002808A1002708A0007908883102209F310C
:103EEA0040012008A9002908F907790886008701F6
:103EFA000108031D812F822F862F4101E70100301F
:103F0A00AC2F2808A1002708A00079089D31F125C7
:103F1A009F3140012008A9002108AA007908290731
:103F2A004101E700670886008701010803199E2FEF
:103F3A009F2FAA2F6708860087018101013040015F
:103F4A00A90029084101E707AB2FE7017908080012
:103F5A00F801F51FB12FB22FB92FF409F509F40AA8
:103F6A000319F50AF801F80AF31FBC2FBD2FC22F57
:103F7A00F209F309F20A0319F30A7208730403191E
:103F8A00C72FC82FF12FF701F70AD42F0130F235C6
:103F9A00F30D890BCC2F0130F6007608F707F31FD3
:103FAA00D72FD82FCB2F73087502031DDE2F720867
:103FBA007402031CE12FE22FE62F7208F402730841
:103FCA00F53B0130F336F20C890BE72F0130F7028B
:103FDA00031DF02FF12FD82F78080319F52FF62F8C
:103FEA00FB2FF409F509F40A0319F50A7508F30019
:103FFA007408F2000800253469342C3425346934F5
:0E400A000034253469340A3400342C34003478
:020000040001F9
:0A000E00EC3FFF3F9F3FFF1FFF3F45
:00000001FF
