:1000000080312528C03463347E1480314E01161EA1
:100010000A280B2813280C1E0E280F2813289131AC
:10002000B921803123280B1F1628172823281A1CD2
:100030001A281B282328101C1E281F282328923129
:100040000322803123287E100900803127284101B6
:10005000803102208031EE00803103208031EF00BA
:100060002E3084009130850042011200E800120019
:10007000E9001200EA001200EB001200EC0012008E
:10008000ED00403084002B308500B030FE0004309D
:10009000FF00913163218031FA01FB01CF308400F0
:1000A000003085001F30FE000030FF0091316321D9
:1000B000803120308400013085003C30FE0000306B
:1000C000FF00913163218031A03084000130850030
:1000D0002030FE000030FF009131632180317E101E
:1000E00040019431552CF62D42016D084101640602
:1000F000031D7E2842016C08410163060319812813
:100100008228F62D7A037B04031D87288828322B4A
:1001100091314F21803175084101D2007408D1001E
:100120007308D0007208CF0052084001E900410175
:1001300051084001E800410150084001E700410139
:100140004F084001E6004730CF006A30CE006030F3
:10015000CD000030CC000030F9000030F800023053
:10016000F7004E30F60041016D08F5006C08F40010
:100170006B08F3006A08F2009331E82380317508B8
:100180004001A7007408A6007308A5007208A40027
:10019000013089310721803140012708D30026082A
:1001A000D2002508D1002408D00086310C268031E9
:1001B00040014F08ED004E08EC004D08EB004C08E4
:1001C000EA009231D7228031400169084101DE0006
:1001D000400168084101DD00400167084101DC0081
:1001E000400166084101DB0042015B084001B900A3
:1001F00042015A084001B800420159084001B700C5
:10020000420158084001B60041015E084001B500B6
:1002100041015D084001B40041015C084001B300A8
:1002200041015B084001B2008D31C525803140019C
:100230003508D3003408D2003308D1003208D0008A
:10024000420157084001B900420156084001B80078
:10025000420155084001B700420154084001B60070
:1002600041015A084001B500410159084001B4005C
:10027000410158084001B300410157084001B20054
:100280008D31C525803140013508CF003408CE00BE
:100290003308CD003208CC008B31BD2380314001C2
:1002A0004F084101B20040014E084101B100400138
:1002B0004D084101B00040014C084101AF00520817
:1002C0004001ED00410151084001EC00410150089E
:1002D0004001EB0041014F084001EA0042012708BC
:1002E0004001E900420126084001E80042012508DA
:1002F0004001E700420124084001E6009231D72284
:10030000803140016908B9006808B8006708B70083
:100310006608B600420153084001B5004201520888
:100320004001B400420151084001B30042015008AD
:100330004001B2008D31C5258031400135084101B1
:10034000AA00400134084101A900400133084101DD
:10035000A800400132084101A70032084001ED0029
:10036000410131084001EC00410130084001EB003F
:1003700041012F084001EA0041012A084001E9003B
:10038000410129084001E800410128084001E70037
:10039000410127084001E6009231D7228031400117
:1003A00069084101AE00400168084101AD0040010B
:1003B00067084101AC00400166084101AB002E080E
:1003C0004001CF0041012D084001CE0041012C0821
:1003D0004001CD0041012B084001CC00420137080B
:1003E0004001D300420136084001D20042013508E5
:1003F0004001D100420134084001D0008B31BD23BF
:10040000803140014F084201B70040014E084201CF
:10041000B60040014D084201B50040014C084201C0
:10042000B40041015E084001CF0041015D08400178
:10043000CE0041015C084001CD0041015B08400154
:10044000CC0041015A084001D30041015908400144
:10045000D200410158084001D10041015708400134
:10046000D0008B31BD23803140014F084101DA00BB
:1004700040014E084101D90040014D084101D8001A
:1004800040014C084101D7005A084001A700410132
:1004900059084001A600410158084001A50041014A
:1004A00057084001A400C430AB001630AA00003049
:1004B000A9000030A8004430AF001630AE00003074
:1004C000AD000030AC008731B627803140012708ED
:1004D0004101DA00400126084101D9004001250808
:1004E0004101D800400124084101D70052084201CF
:1004F000A700410151084201A600410150084201F4
:10050000A50041014F084201A400410152084001E9
:10051000B900410151084001B800410150084001B3
:10052000B70041014F084001B6004730B5006A30BE
:10053000B4006030B3000030B2008D31C525803189
:1005400040013508D3003408D2003308D100320806
:10055000D0004430CF001330CE008030CD000030CA
:10056000CC0086310C26803140014F08E9004E084E
:10057000E8004D08E7004C08E6009631002680317F
:1005800041016408A4006308A300A335A40D9830BA
:10059000A5002D30A6002308250786002408263D47
:1005A000870040016608C03F6708C13F4130CF0067
:1005B0002030CE000030CD000030CC004201400899
:1005C00041015F02A300420141084101603BA400D8
:1005D000420142084101613BA5004201430841013B
:1005E000623BA60026084001A70041012508400102
:1005F000A600410124084001A50041012308400153
:10060000A400013089310721803140012708D3003F
:100610002608D2002508D1002408D00086310C26F7
:10062000803140014F084201A30040014E084201C1
:10063000A20040014D084201A10040014C084201C6
:10064000A000410162084201C3004101610842016A
:10065000C200410160084201C10041015F0842013E
:10066000C0009F2D7A087B04031D372B382B5D2D8E
:1006700091314521803175084101D6007408D500BB
:100680007308D4007208D30056084001A700410146
:1006900055084001A600410154084001A500410150
:1006A00053084001A4000130893107218031400105
:1006B0002708E9002608E8002508E7002408E600E6
:1006C0004330CF00B430CE000030CD000030CC003D
:1006D0000030F9000030F8000230F7004E30F6002C
:1006E00041016D08F5006C08F4006B08F3006A081E
:1006F000F2009331E823803175084001A7007408A7
:10070000A6007308A5007208A400013089310721F2
:10071000803140012708D3002608D2002508D100E7
:100720002408D00086310C26803140014F08ED00AE
:100730004E08EC004D08EB004C08EA009231D7223D
:100740008031400169084101DE0040016808410133
:10075000DD00400167084101DC00400166084101FD
:10076000DB005A084001B500410159084001B400BE
:10077000410158084001B300410157084001B2004F
:10078000420157084001B900420156084001B80033
:10079000420155084001B700420154084001B6002B
:1007A0008D31C525803140013508CF003408CE0099
:1007B0003308CD003208CC0041015E084001B5008D
:1007C00041015D084001B40041015C084001B300F3
:1007D00041015B084001B20042015B084001B900E1
:1007E00042015A084001B800420159084001B700CF
:1007F000420158084001B6008D31C52580314001C5
:100800003508D3003408D2003308D1003208D000B4
:100810008B31BD23803140014F084101B2004001BE
:100820004E084101B10040014D084101B0004001B6
:100830004C084101AF00420153084001B50042019C
:1008400052084001B400420151084001B300420186
:1008500050084001B2004201280841015302A300A0
:10086000420129084101543BA40042012A084101E8
:10087000553BA50042012B084101563BA600260826
:100880004001A700410125084001A60041012408BC
:100890004001A500410123084001A4000130893135
:1008A0000721803140012708B9002608B800250833
:1008B000B7002408B6008D31C525803140013508C8
:1008C000E9003408E8003308E7003208E600410197
:1008D00032084001ED00410131084001EC004101C6
:1008E00030084001EB0041012F084001EA0092313D
:1008F000D7228031400169084201B70040016808F1
:100900004201B600400167084201B5004001660897
:100910004201B40041015E084001CF0041015D0881
:100920004001CE0041015C084001CD0041015B085F
:100930004001CC0041015A084001D300410159084F
:100940004001D200410158084001D100410157083F
:100950004001D0008B31BD23803140014F0841015F
:10096000DA0040014E084101D90040014D08410123
:10097000D80040014C084101D7005A084001A700A7
:10098000410159084001A600410158084001A50055
:10099000410157084001A400C430AB001330AA0045
:1009A0008030A9000030A8004430AF001330AE0002
:1009B0008030AD000030AC008731B6278031400177
:1009C00027084101DA00400126084101D900400111
:1009D00025084101D800400124084101D7005608EC
:1009E0004201AB00410155084201AA0041015408EF
:1009F0004201A900410153084201A80041015608E3
:100A00004001A700410155084001A60041015408DA
:100A10004001A500410153084001A4000130893183
:100A20000721803140012708B9002608B8002508B1
:100A3000B7002408B6004330B500B430B40000302D
:100A4000B3000030B2008D31C5258031400135083A
:100A5000D3003408D2003308D1003208D00044302B
:100A6000CF001330CE008030CD000030CC00863176
:100A70000C26803140014F08E9004E08E8004D087F
:100A8000E7004C08E60096310026803141016408F9
:100A9000A4006308A300A335A40D9830A5002D3051
:100AA000A6002308250786002408263D870040016C
:100AB0006608C03F6708C13F9F2D07307A067B0458
:100AC000031D632D642D9F2D6D084001A70041017A
:100AD0006C084001A60041016B084001A5004101DE
:100AE0006A084001A40001308931072180314001AA
:100AF00027084201B700400126084201B600400124
:100B000025084201B500400124084201B40091319A
:100B10004521803141016408A4006308A300A33586
:100B2000A40D9830A5002D30A600230825078600C7
:100B30002408263D87007208C03F7308C13F410169
:100B400064084201ED00410163084201EC003708EE
:100B50004001A700420136084001A60042013508C5
:100B60004001A500420134084001A400C330AB009D
:100B70007F30AA000030A9000030A8004330AF0049
:100B80007F30AE000030AD000030AC008731B627BA
:100B90008031400127084201B70040012608420188
:100BA000B600400125084201B50040012408420179
:100BB000B40037084001E900420136084001E8006E
:100BC000420135084001E700420134084001E600D7
:100BD000963100268031400167084101A1004001A3
:100BE00066084101A00093315E2380314101640811
:100BF000803AA30081302302031D002E2C306302B3
:100C0000031C032E042E742800304101A000A10013
:100C100093315E2380310800400153088039DD00A4
:100C20005335E400D21F152E162E172E64146408B7
:100C300003191B2E1C2E2C2E640A031D202E212E80
:100C4000292E0030D3000030D2000030D100003017
:100C5000D000D217D301342E0030D3000030D200A0
:100C60000030D1000030D0004F088039D400540843
:100C7000DD064F35E500CE1F3E2E3F2E402E65147B
:100C800065080319442E452E552E650A031D492E6D
:100C90004A2E522E0030CF000030CE000030CD0062
:100CA0000030CC00CE17CF015D2E0030CF000030D9
:100CB000CE000030CD000030CC004F084E044D0473
:100CC0004C04031D642E652E7E2E0030D3000030B0
:100CD000D2000030D1000030D0008030D2047F300C
:100CE000D3045D08D4005408D3045308CF0052083D
:100CF000CE005108CD005008CC00B52F6408031D6C
:100D0000822E832E8C2E0030CF000030CE0000309B
:100D1000CD000030CC00B52F6408D400D5015508B3
:100D2000D70065085402D600031CD70356087F3E3F
:100D3000DE000030573DDF005308DC005208DB00C6
:100D40005108DA005008D9000030D3000030D2003A
:100D50000030D1000030D0000030E3000030E2006D
:100D60000030E1000030E000E501F42E65080319D1
:100D7000BA2EBB2ED52E0130D935DA0DDB0DDC0DA8
:100D8000890BBC2E0130D035D10DD20DD30D890B7E
:100D9000C32EE31FCC2ECD2ECE2E50140130E035C5
:100DA000E10DE20DE30D890BCF2E4F085C02031D10
:100DB000E32E4E085B02031DE32E4D085A02031D6D
:100DC000E32E4C085902031CE62EE72EF02E631783
:100DD0004C08D9024D08DA3B4E08DB3B4F08DC3BA0
:100DE0000130D4005408E5071A306502031CF92EBF
:100DF000FA2EB62E5C085B045A0459040319012F1D
:100E0000022F1B2F60141B2F0130D035D10DD20DB6
:100E1000D30D890B052FE31F0E2F0F2F102F50140A
:100E20000130E035E10DE20DE30D890B112FFF30AC
:100E3000DE07FF30DF3DD21F1E2F1F2F042FE501DD
:100E4000E31F232F242F402FFF306005D400FF30F5
:100E50006105D500FF306205D6007F306305D700FD
:100E600057085604550454040319372F382F3B2FC5
:100E7000E501E50A402F501C3E2F3F2F402F382F11
:100E800065080319442F452F6D2F0130D00700301E
:100E9000D13D0030D23D0030D33D531C502F512F57
:100EA0006D2F5008D4005108D5005208D6005308C1
:100EB000D7000130D800D737D60CD50CD40CD80BBE
:100EC0005B2F5708D3005608D2005508D1005408AC
:100ED000D0000130DE070030DF3D5F08803AD400EB
:100EE00080305402031D762FFF305E02031C792FE1
:100EF0007A2F872FFF304001DE000030DF00003006
:100F0000D3000030D2000030D1000030D0004001CA
:100F10005F08803AD40080305402031D912F0130C5
:100F20005E020318942F952FA12F4001DE01DF01EF
:100F30000030D3000030D2000030D1000030D000AB
:100F4000DD0140015E08E400641CA72FA82FAA2F32
:100F5000D217AE2F7F30D4005408D2056436D300A8
:100F60005D08D4005408D304752E080040012708FA
:100F7000F5002608F4002508F3002408F2002B08E9
:100F8000F9002A08F8002908F7002808F600963129
:100F9000E92687310318CD2FCE2FD82F40012B08FB
:100FA000A7002A08A6002908A5002808A400FA2FEF
:100FB00040012F08F5002E08F4002D08F3002C083E
:100FC000F2002708F9002608F8002508F700240891
:100FD000F6009631E92687310318EF2FF02FFA2F0C
:100FE00040012F08A7002E08A6002D08A5002C08F8
:100FF000A400FA2F08004E010F0E890C01390800D9
:1010000042015E085F040319062807280C285F08C0
:101010008A005E080A0088317E01551108004001EF
:10102000A101F31F142815281C28F209F309F20A5C
:101030000319F30AA101A10AF51F1F282028292856
:10104000F409F509F40A0319F50A0130F6007608E7
:10105000A106A201A30172087304031930283128E4
:101060006028A001A00A3D280130F235F30D890B5C
:1010700035280130F6007608A007F31F40284128E4
:1010800034280130A235A30D890B4228730875025C
:10109000031D4C2872087402031C4F285028552841
:1010A0007208F4027308F53B22140130F336F20C97
:1010B000890B56280130A002031D5F2860284128B3
:1010C00021080319642865286A28A209A309A20A2D
:1010D0000319A30A2308F3002208F20008004001C4
:1010E000CB01CC0107307A067B04031D78287928D0
:1010F000962806304001BC009830BD004C08C40062
:101100004B08C300C335C40D9830C5002D30C60050
:101110004308450786004408463D8700403FBE001F
:10112000413FBF009131A9218831C62800304001DC
:10113000BC009830BD004C08C4004B08C300C33548
:10114000C40D9830C5002D30C60043084507860001
:101150004408463D8700403FBE00413FBF004C0869
:10116000C8004B08C700C735C80D4030C9002B3038
:10117000CA0047084907860048084A3D8700403FA3
:10118000C000413FC1009131A921883140014C0884
:10119000803AC30081304302031DD0282B304B021C
:1011A0000318D328D428E32807307A067B040319D0
:1011B000DA28DB28E3280A304001BC009830BD0063
:1011C0009131A92188310B304001C3006230890B75
:1011D000E728C30BE728000001304001CB070030AF
:1011E000CC3D4C08803AC30081304302031DFA28ED
:1011F0002C304B02031CFD28FE28722808304001C9
:10120000BC009830BD009131A9218831080040010F
:10121000AC002C0803190D290E292229A71F11291A
:10122000122922292409AE002509AF002609B000A1
:101230002709B100AE0A0319AF0A0319B00A03194E
:10124000B10A2A292708B1002608B0002508AF00F6
:101250002408AE002708260425042404031D312990
:1012600032293B290030A7000030A6000030A5003D
:101270000030A400B1299630AD0049290130A80002
:101280002808AD070130B136B00CAF0CAE0C890B9D
:101290004329FE303105031D4E294F293E2963297C
:1012A0000130A8002808AD070130AE070030AF3D7F
:1012B0000030B03D0030B13D0130B136B00CAF0C64
:1012C000AE0C890B5D29FF303105031D68296929A2
:1012D000502973290130AD020130AE35AF0DB00D8C
:1012E000B10D890B6D29B01B762977297D29023034
:1012F0002D0203187C297D296A292D18802981292E
:101300008929FF30AE05FF30AF057F30B005FF30D3
:10131000B1050310AD0C2D08A800A901AA01AB016D
:101320001830A835A90DAA0DAB0D890B91292808F5
:10133000AE042908AF042A08B0042B08B1042C0815
:101340000319A329A429A929A71FA729A829A929DD
:10135000B1173108A7003008A6002F08A5002E08F5
:10136000A40008004001270886008701403FA9002B
:10137000413FAA00290884002A0885001200253A66
:10138000031DC329C4298E2A27088600870101303E
:10139000810741310318810A4201CC01CD010310BC
:1013A0000030031801304101E800FF304201CE0057
:1013B000FF30CF004001270886008701403FAE0084
:1013C000413FAF002E0884002F0885001200643AC8
:1013D0000319EB29EC29F6292E0884002F08850033
:1013E0001200693A031DF529F629842A2808860087
:1013F000870101088400850102308107003FB000A9
:10140000013FB1002E08013EA90000302F3DAA0087
:101410002708860087012908C03F2A08C13F2030DD
:10142000B400B11B142A162A0130172A0030AD006F
:101430000130B4023408A03E8600013087000A3033
:10144000F2000030F3003108F5003008F400943168
:10145000F524893173084001A1007208A000913180
:10146000DB21893140012008303E81000A30F20042
:101470000030F3003108F5003008F40088310F2007
:10148000893173084001B1007208B000300831049E
:1014900003194B2A4C2A512A3408031D502A512A79
:1014A000182A34080319552A562A7D2A2D080319AB
:1014B0005A2A5B2A7D2A0130B4023408A03E8600F5
:1014C000013087002D3081007D2A3408A03E86003F
:1014D000013087000108A900AA012908F4002A08A0
:1014E000F5002608F7002508F6009531A125893179
:1014F00001304001A9002908B40720303406031D3B
:10150000822A832A652AA82A4001270886008701A3
:101510000130810741310318810AA82A2708860073
:101520008701403FA900413FAA00290884002A08FA
:1015300085000008AB00AC012B08F4002C08F50076
:101540002608F7002508F6009531A1258931842A5F
:1015500008004101C800CB01CC018731FB278A314B
:10156000003A0319B42AB52AAD2A913199218A315A
:101570004101CE000A304E060319BF2AC02AC62AEE
:101580000D304E06031DC52AC62ACC2A4B08A03EA4
:10159000860087018101D72A4B08A03E860087017B
:1015A0004E0881000130CB070030CC3DAD2A0A3017
:1015B0004001A7009830A800A0309431A4248A31BB
:1015C0004101CD00C901CA01012B4D089631712698
:1015D0008A3141014935BE3E860087017808C03F07
:1015E0007908C13F0A304001A7009830A8000301E4
:1015F0009431A4248A314101CD000130C907003063
:10160000CA3D4D08031D052B062BE52A4808860018
:1016100087013E08C03F3F08C13F40084001EA0043
:10162000410141084001EB000030EB1BFF30EC00B2
:10163000ED006608860087016A08C03F6B08C13F5D
:101640006C08C23F6D08C33F4430CF007A30CE00F3
:101650000030CD000030CC00410142084001A40020
:10166000410143084001A500890D893B8909A60075
:10167000A7000130893107218A3140012708D300B2
:101680002608D2002508D1002408D00086310C2677
:101690008A31400167088600013087004C08C03F4E
:1016A0004D08C13F4E08C23F4F08C33F4430CF00F2
:1016B0007A30CE000030CD000030CC00410144082B
:1016C0004001A400410145084001A500890D893B66
:1016D0008909A600A7000130893107218A3140011C
:1016E0002708D3002608D2002508D1002408D000FE
:1016F00086310C268A314001680886000130870057
:101700004C08C03F4D08C13F4E08C23F4F08C33F81
:101710004430CF007A30CE000030CD000030CC0015
:10172000410146084001A400410147084001A500CD
:10173000890D893B8909A600A7000130893107215D
:101740008A3140012708D3002608D2002508D1009D
:101750002408D00086310C268A31400169088600B1
:10176000013087004C08C03F4D08C13F4E08C23FC2
:101770004F08C33F4101A001080040014F088039D4
:10178000DC004F35DE00CE1FC62BC72BC82B5E14E6
:101790005E080319CC2BCD2BDD2B5E0A031DD12B4C
:1017A000D22BDA2B0030CF000030CE000030CD003D
:1017B0000030CC00CE17CF01E52B0030CF00003039
:1017C000CE000030CD000030CC0053088039DD0061
:1017D0005D085C060319ED2BEE2BEF2B5C175335E0
:1017E000DD00D21FF42BF52BF62B5D145D080319D9
:1017F000FA2BFB2B0B2C5D0A031DFF2B002C082C56
:101800000030D3000030D2000030D1000030D000D2
:10181000D217D301132C0030D3000030D200003097
:10182000D1000030D0005E085D020318182C192C7E
:101830003F2C5C1F1C2C1D2C212C8030D400540804
:10184000DC065E08DF005D08DE005F08DD004C0896
:10185000DF005008CC005F08D0004D08DF005108C1
:10186000CD005F08D1004E08DF005208CE005F08AF
:10187000D2004F08DF005308CF005F08D300DF011C
:101880005D08D400D5015508D7005E085402D60083
:10189000031CD7035708803AD80080305802031D34
:1018A000532C1A305602031C562C572C892C4001FD
:1018B0004F084E044D044C04031D5F2C612C013075
:1018C000622C0030DF000030CF000030CE0000304E
:1018D000CD000030CC005D08DE00902C5F1C712C28
:1018E000722C762C5F360138DF00782C0310DF0C69
:1018F0004C1C7B2C7C2C7D2CDF170130D400CF3787
:10190000CE0CCD0CCC0CD40B7F2C0130D400540861
:10191000DE0740015D085E02031C8F2C902C6E2CAC
:101920005C1B932C942CCA2C5E08031D982C992CBC
:10193000A22C0030CF000030CE000030CD000030AF
:10194000CC00C42D5008CC075108CD3D5208CE3DE7
:101950005308CF3D4F1CAD2CAE2C562D5F1CB12C27
:10196000B22CB62C5F360138DF00B82C0310DF0C28
:101970004C1CBB2CBC2CBD2CDF170130D400CF3746
:10198000CE0CCD0CCC0CD40BBF2C0130D4005408A1
:10199000DE07562D4F08803AD4005308803A54028F
:1019A000031DDC2C52084E02031DDC2C51084D0295
:1019B000031DDC2C50084C020318DF2CE02C182DE2
:1019C000FF30D400FF30D500FF30D600FF30D70005
:1019D0004C085002D8004D08513BD9004E08523BEC
:1019E000DA004F08533BDB005808D4075908D53DAF
:1019F0005A08D63D5B08D73D5708CF005608CE00A1
:101A00005508CD005408CC008030D4005408DC06C2
:101A1000DF09DF0A5F08031D0E2D0F2D202D013079
:101A2000CC070030CD3D0030CE3D0030CF3D202DE5
:101A30005008CC025108CD3B5208CE3B5308CF3B57
:101A40004F084E044D044C04031D272D282D522D04
:101A50005F08031D2C2D2D2D522D0030CF0000309E
:101A6000CE000030CD000030CC00C42D0130CC358C
:101A7000CD0DCE0DCF0D890B372DDF1F402D412D04
:101A8000422D4C145F1C452D462D492D0314DF0DAE
:101A90004B2D0310DF0D5E0803194F2D502D522DD5
:101AA0000130DE02CE1F552D562D362DDD01DF1FF4
:101AB0005A2D5B2D692D5F087F390319602D612D2B
:101AC000642DDD01DD0A692D4C1C672D682D692D03
:101AD000612D5D0803196D2D6E2D9B2D0130CC07F6
:101AE0000030CD3D0030CE3D0030CF3D4F1C792D34
:101AF0007A2D9B2D4C08D4004D08D5004E08D600F9
:101B00004F08D7000130D800D737D60CD50CD40CED
:101B1000D80B842D5708CF005608CE005508CD00AD
:101B20005408CC005E0A0319962D972D9B2D013089
:101B3000D4005408DE075E0A03199F2DA02DA52DA1
:101B40005E08031DA42DA52DB32D0030CF0000305D
:101B5000CE000030CD000030CC005E08031DB12D5A
:101B6000B22DB32DDC015E1CB62DB72DB92DCE17CD
:101B7000BD2D7F30D4005408CE055E36CF00DC1F6B
:101B8000C22DC32DC42DCF17080040013508803960
:101B9000BF003535C500B41FCE2DCF2DD02D451437
:101BA00045080319D42DD52DE42D450A031DD92D43
:101BB000DA2DE22D0030B5000030B4000030B30063
:101BC0000030B200B417EC2D0030B5000030B40086
:101BD0000030B3000030B20039088039BA003A084A
:101BE000BF063935C000B81FF62DF72DF82D40146B
:101BF00040080319FC2DFD2D0C2E400A031D012E5B
:101C0000022E0A2E0030B9000030B8000030B700B4
:101C10000030B600B817142E0030B9000030B800FC
:101C20000030B7000030B60040080319182E192EF6
:101C30001E2E4508031D1D2E1E2E272E0030B5001A
:101C40000030B4000030B3000030B200FF2F320883
:101C5000F200380893313A238D3173084001CB00EC
:101C60007208CA004A08BA00BB01BC01BD013D08A8
:101C7000C4003C08C3003B08C2003A08C1004B083E
:101C8000BA00BB01BC01BD013D08C9003C08C80049
:101C90003B08C7003A08C6003308F2003708933102
:101CA0003A238D3173084001CB007208CA004A08FC
:101CB000BA00BB01BC01BD013A08C1073B08C23DE7
:101CC0003C08C33D3D08C43D4B08BA00BB01BC0104
:101CD000BD013A08C6073B08C73D3C08C83D3D0862
:101CE000C93D3408F200360893313A238D31730828
:101CF0004001CB007208CA004A08BA00BB01BC010F
:101D0000BD013A08C1073B08C23D3C08C33D3D0840
:101D1000C43D4B08BA00BB01BC01BD013A08C6076F
:101D20003B08C73D3C08C83D3D08C93D0830C135AA
:101D3000C20DC30DC40D890B972E3308F20036086F
:101D400093313A238D3173084001CB007208CA00E9
:101D50004A08C1074B08C23D0030C33DC43D3208AC
:101D6000F200370893313A238D3173084001CB00DC
:101D70007208CA004A08C1074B08C23D0030C33D83
:101D8000C43D0830C135C20DC30DC40D890BC22E30
:101D90003208F200360893313A238D31730840013E
:101DA000CB007208CA004A08C1074B08C23D003088
:101DB000C33DC43D3308F200380893313A238D31D6
:101DC00073084001CB007208CA004A08C6074B08D6
:101DD000C73D0030C83DC93D3408F2003708933193
:101DE0003A238D3173084001CB007208CA004A08BB
:101DF000C6074B08C73D0030C83DC93D3408F20056
:101E0000380893313A238D3173084001CB007208B2
:101E1000CA004A08BA004B08BB00BC01BD0108302B
:101E2000BA35BB0DBC0DBD0D890B102F3A08C60786
:101E30003B08C73D3C08C83D3D08C93D4108BA00C4
:101E40004208BB004308BC004408BD001830BD3642
:101E5000BC0CBB0CBA0C890B272F3A08C6073B08F1
:101E6000C73D3C08C83D3D08C93D0830C135C20DDD
:101E7000C30DC40D890B362F45084007BA00BB01BE
:101E8000BB0D3A08823ECA00FF303B3DCB005F2FBE
:101E90000130C635C70DC80DC90D890B492FC41FA8
:101EA000522F532F542F46140130C135C20DC30D8C
:101EB000C40D890B552FFF30CA07FF30CB3DC81F1B
:101EC000622F632F482FC001C41F672F682F842FF4
:101ED000FF304105BA00FF304205BB00FF3043052B
:101EE000BC007F304405BD003D083C043B043A047F
:101EF00003197B2F7C2F7F2FC001C00A842F461C23
:101F0000822F832F842F7C2F40080319882F892F3D
:101F1000B12F0130C6070030C73D0030C83D00304A
:101F2000C93D491C942F952FB12F4608BA00470888
:101F3000BB004808BC004908BD000130BE00BD37E9
:101F4000BC0CBB0CBA0CBE0B9F2F3D08C9003C0853
:101F5000C8003B08C7003A08C6000130CA07003075
:101F6000CB3D4B08803ABA0080303A02031DBA2FAD
:101F7000FF304A02031CBD2FBE2FC82F7F30400107
:101F8000C9008030C8000030C7000030C600F32F01
:101F900040014B08803ABA0080303A02031DD22F2C
:101FA00001304A020318D52FD62FE12F003040010F
:101FB000C9000030C8000030C7000030C600BF01B3
:101FC000F32F40014A08C500FF30C605FF30C705A2
:101FD0007F30C8050030C905451CEF2FF02FF12FC9
:101FE000C8174536C9003F08BA003A08C90449086D
:101FF000B5004808B4004708B3004608B20008001E
:1021EA0008000800080044010E10080044010E14FB
:1021FA00080001304101E3070030E43D080073089C
:10220A004201E3007208E200080073084201E70095
:10221A007208E600080073084201E5007208E4004B
:10222A00080073084201E1007208E0000800730820
:10223A004201DF007208DE00080073084201DD0077
:10224A007208DC000800F3007308913159219131BA
:10225A0008004E34023400340034013400344F0193
:10226A0096019701980199019A019B010800603033
:10227A0051018D008F0191010630930092010800EF
:10228A0041016208F5006108F4006008F3005F0884
:10229A00F200080042012308F5002208F400210890
:1022AA00F3002008F2000800F2004E010F1E5E291A
:1022BA005F295A29720842019A00080064008001C5
:1022CA0001310130FE020030FF3B7F087E04031D0E
:1022DA0064290034803047018E003F308D00C030C1
:1022EA008C0044011F08F33904389F0008000130AC
:1022FA00450190008F0191013F308D008C014E0104
:10230A009010F03045018E00080042016008610417
:10231A00031990299129962961088A0060080A0000
:10232A0091317E01D51008004E018F1E9D299E29EC
:10233A0099294101E90142019D1CA429A529A7293E
:10234A001D121D16190808003E304001C200003057
:10235A00B500B6003D08B8003C08B7004230B900E5
:10236A0092319A22913108007E01D51CBD29BE29DD
:10237A00C12991318A2191317E01551DC529C6296C
:10238A00C929883100209131080044010E1DCE2947
:10239A00CF29D6290E1071088D0070088C000E14F2
:1023AA00DA2971088D0070088C0008004001A11B11
:1023BA00DF29E029E129EC292009A2002109A3004B
:1023CA00A20A0319A30A2208A0002308A1000800F0
:1023DA007308F5007208F400F536F40CF536F40CBF
:1023EA00740847018D0072080339F4000530F4358A
:1023FA00FF3E031DFC2974358C0008004E011010A5
:10240A0041016F08F1006E08F0009131CA21923142
:10241A0042015C085D040319132A142A192A5D086B
:10242A008A005C080A00923108004401950196016D
:10243A000130970002309300183092004E011011BB
:10244A00440113084101E600440112084101E50074
:10245A00343044019400080040010E1D352A362A02
:10246A00402A01304101DF070030E03D0030E13D04
:10247A000030E23D492AFF304101DF07FF30E03DED
:10248A00FF30E13DFF30E23D080040018E184E2A40
:10249A004F2A592A01304101DF070030E03D003060
:1024AA00E13D0030E23D622AFF304101DF07FF30A3
:1024BA00E03DFF30E13DFF30E23D0800913134213B
:1024CA00923195314825923191313C2192319131A5
:1024DA006F21923192311A22923191317C219231BB
:1024EA009231F72292319331172392310800720800
:1024FA0084007308850000087406031D852A862A4D
:10250A00872A992A7308F7007208F600F20A031953
:10251A00F30A76088400770885001200031D962ABC
:10252A00972A7C2AF201F301080040013808BB000F
:10253A003708BA00AB2A3608A6003508A5003A3093
:10254A00A7003908A8008931B221923140013A081E
:10255A0084003B0885001200031DB42AB52AA02A6C
:10256A00B501B6010800F601F701721CBD2ABE2AA0
:10257A00C22A7408F6077508F73D0130F435F50DDF
:10258A00890BC32A0130F336F20C890BC82A720868
:10259A007304031DD12AD22ABA2A7708F3007608CF
:1025AA00F200080080304001E9066D08CF006C088F
:1025BA00CE006B08CD006A08CC006908D300680811
:1025CA00D2006708D1006608D0008B31BD23923152
:1025DA0040014F08E9004E08E8004D08E7004C08A2
:1025EA00E600080044018F01900101309100633038
:1025FA008D00C0308C004E01101044010D084101BD
:10260A00EF0044010C084101EE004E011A14F730A4
:10261A00F2001030F300913122219231113044013D
:10262A008E000800083042019F0090309D0024303F
:10263A009E0040309B0003309C000030F2000030C6
:10264A00F30091310A2193310030F2000030F30097
:10265A009131102193310030F2000030F3009131B2
:10266A00042193314101E90108004001A400A001BD
:10267A00A1017208F400F5017408A2007508A3000C
:10268A00241C482B492B4D2B2208A0072308A13DC7
:10269A000130A235A30D890B4E2B0310A40C24087C
:1026AA00031D582B592B452B2108F3002008F20053
:1026BA00080041012108803AA20080302202031D4D
:1026CA00682B01302002031C6B2B6C2B702B4001F2
:1026DA0019149811792B4001191098154101A00974
:1026EA00A109A00A0319A10A41012108F30020083F
:1026FA00F2009131ED21933108004001A600A401B6
:10270A00A501902B01304001A2002208A607013042
:10271A00A4070030A53D2608860087010108031991
:10272A00972B982BAF2B2108F3002008F2002608DC
:10273A00860087010108A200A3012208F4002308E9
:10274A00F50092317C229331720873040319AE2B7F
:10275A00AF2B872B40012508A1002408A000080000
:10276A004001A600A401A501C32B01304001A2002B
:10277A002208A6070130A4070030A53D26088600D6
:10278A00870101080319CA2BCB2BE22B2108F3007E
:10279A002008F2002608860087010108A200A3018A
:1027AA002208F4002308F50092317C229331720842
:1027BA007304031DE12BE22BBA2B40012508A1006B
:1027CA002408A000080000304001A3000030A20045
:1027DA000030A1000030A000721CF42BF52BFE2B58
:1027EA0076084001A0077708A13D7808A23D79083C
:1027FA00A33D0130F635F70DF80DF90D890BFF2BC6
:10280A000130F536F40CF30CF20C890B062C750822
:10281A00740473047204031D132C142CF12B40014D
:10282A002308F5002208F4002108F3002008F2002A
:10283A000800F801F9017908803A4001A0008130C6
:10284A002002031D2A2C2C307802031C2D2C2E2C3E
:10285A002F2C542C7908F3007808F2000A30F4007F
:10286A000030F5009231B822943179084001A10074
:10287A007808A000A035A10D4030A2002B30A3009B
:10288A002008220786002108233D87007208C03FDE
:10289A007308C13F0130F8070030F93D202C0800C9
:1028AA009231632294313130F2001230F3009131C7
:1028BA00162194314A30F2001230F30091311C2172
:1028CA009431FE30F2001030F3009131222194311C
:1028DA008B170B179031FB20943100304101A00077
:1028EA00A10093315E23943194311E249431EA304D
:1028FA004001E6005830E7005430E8005030E90063
:10290A007A308A31A92294319731742794318031EF
:10291A00732094319031F820943103104001191D2D
:10292A0003140318992C9C2C400119159E2C400164
:10293A00191188316F2094317C2C80312528F900B7
:10294A007908031DA92CAA2CB42C41016708F900A7
:10295A007908031DB12CB22CB42C0030F42C4001A0
:10296A002808A1002708A00079089331B5239431DB
:10297A0040012008A9002908F9077908860087017B
:10298A000108031DC92CCA2CCE2C4101E7010030D5
:10299A00F42C2808A1002708A00079089331822383
:1029AA00943140012008A9002108AA0079082907C2
:1029BA004101E70067088600870101080319E62C30
:1029CA00E72CF22C6708860087018101013040015B
:1029DA00A90029084101E707F32CE7017908080053
:1029EA00F801F51FF92CFA2C012DF409F509F40A5E
:1029FA000319F50AF801F80AF31F042D052D0A2D0B
:102A0A00F209F309F20A0319F30A720873040319A3
:102A1A000F2D102D392DF701F70A1C2D0130F23533
:102A2A00F30D890B142D0130F6007608F707F31F12
:102A3A001F2D202D132D73087502031D262D7208D4
:102A4A007402031C292D2A2D2E2D7208F4027308F4
:102A5A00F53B0130F336F20C890B2F2D0130F702CA
:102A6A00031D382D392D202D780803193D2D3E2DB3
:102A7A00432DF409F509F40A0319F50A7508F30058
:102A8A007408F200080040019A0199019601970121
:102A9A00980107309500FF309100FF309200E7302F
:102AAA009300F8309400F8307E01D9009130CE00BE
:102ABA00FF30C3000730E400FF30B800DA01E50157
:102ACA00C401B9010630CF00E601BA01C501D0013F
:102ADA00DB01FF30BB00FF30C600FF30D100FF3002
:102AEA00DC000730E700FF30BC00FF30C700FF30D2
:102AFA00D200FF30DD000F30E800D5105511D41098
:102B0A005411D3145315F530F2001030F3009131FB
:102B1A0016219531F630F2001030F30091311C2164
:102B2A0095314E01161615307D01CB0010307E010D
:102B3A00A4000E30A9000800760877040319A62D10
:102B4A00A72DAD2D76087704031DAC2DAD2DB22D22
:102B5A007408913128219531FF2D7608860077086F
:102B6A0087004931160001040319BC2DBD2DDE2D45
:102B7A0076088600770887004931403F4001A00067
:102B8A00413FA10076088600770887004231403F1E
:102B9A00A200413FA3002308803AA4002108803AFA
:102BAA002402031DDA2D200822020318DD2DDE2D52
:102BBA00FF2D760886007708870042317608840060
:102BCA0077088500403F00074001A0000131413FDE
:102BDA00003DA100200886002108870074088100B2
:102BEA007608860077088700423101308107413133
:102BFA000318810A080003104001680D690DEF00EF
:102C0A006F08031D092E0A2E132E0030E90000302A
:102C1A00E8000030E7000030E600702E6608EA009F
:102C2A006708EB006808EC006908ED001F30ED3614
:102C3A00EC0CEB0CEA0C890B1C2E6A08EE00E81768
:102C4A00FF30E605FF30E705FF30E8050030E9050B
:102C5A009630EF02EF1F322E332E4B2E6F08803A3A
:102C6A00973E0318392E3A2E3B2E0A2E0130E936AA
:102C7A00E80CE70CE60C890B3C2E0130EA006A08E6
:102C8A00EF07031D492E4A2E3B2E602E20306F027D
:102C9A00031C502E512E5B2E0A2E0130E635E70D0D
:102CAA00E80DE90D890B532E0130EF026F08031D61
:102CBA005F2E602E522E6E080319642E652E702E1A
:102CCA00E609E709E809E909E60A0319E70A03191F
:102CDA00E80A0319E90A08004001A500A301A401B2
:102CEA00A2017B2E0130A0002008A5072508860036
:102CFA008701203001060319832E842E772E25089A
:102D0A0086008701F7300107A00005302002031C66
:102D1A008F2E902E772E2508860087012D300106EA
:102D2A00031D982E992EA02EA201A20A0130A000FE
:102D3A002008A507C72E2508860087012B30010623
:102D4A00031DA82EA92EC72E9B2E250886008701B3
:102D5A002408F3002308F2000A30F4000030F500DA
:102D6A009231B822963173084001A100010872021B
:102D7A00A000031CA1032008303EA3000030213D1F
:102D8A00A4009B2E250886008701D0300107A000E9
:102D9A000A302002031CD22ED32EAA2E2208031D8B
:102DAA00D72ED82EE42E2309A0002409A100A00AB8
:102DBA000319A10A2008F8002108F900E82E2408BE
:102DCA00F9002308F8000800003072054001A0004D
:102DDA0000307305A10080307405A2007F307505AC
:102DEA00A3002308220421042004031DFD2EFE2E25
:102DFA00062F0030F5000030F4000030F3000030F8
:102E0A00F20000307605A00000307705A10080307E
:102E1A007805A2007F307905A30023082204210443
:102E2A002004031D192F1A2F222F0030F900003019
:102E3A00F8000030F7000030F600F51F252F262F86
:102E4A003E2F0030A0000030A1000030A2008030E8
:102E5A00A3007208A0027308A13B7408A23B75087C
:102E6A00A33B2308F5002208F4002108F3002008F8
:102E7A00F200F91F412F422F5A2F0030A0000030D4
:102E8A00A1000030A2008030A3007608A0027708D3
:102E9A00A13B7808A23B7908A33B2308F900220842
:102EAA00F8002108F7002008F6008030F506803087
:102EBA00F90679087502031D6C2F78087402031D40
:102ECA006C2F77087302031D6C2F760872020318A1
:102EDA006F2F702F722F0310732F03140800003006
:102EEA004101E2000030E1000030E0000030DF0084
:102EFA0000304201C3000030C2000030C10000307F
:102F0A00C0004101E301E40100304201A3000030A6
:102F1A00A2000030A1000030A00000304101DE0014
:102F2A000030DD000030DC000030DB000030420100
:102F3A00BF000030BE000030BD000030BC000030D1
:102F4A00BB000030BA000030B9000030B8000030D1
:102F5A004101DA000030D9000030D8000030D70033
:102F6A0000304201B7000030B6000030B500003032
:102F7A00B4000030B3000030B2000030B1000030BD
:102F8A00B0000030AF000030AE000030AD000030BD
:102F9A00AC000030AB000030AA000030A9000030BD
:102FAA00A80000304101D6000030D5000030D4001E
:102FBA000030D3000030D2000030D1000030D00001
:102FCA000030CF0000304201A7000030A6000030D8
:102FDA00A5000030A40003104001191D03140318B2
:102FEA00F72FFA2F40011915FC2F400119119031C2
:102FFA00FB2097310800253469342C342534693490
:0E300A000034253469340A3400342C34003488
:020000040001F9
:0A000E00EC3FFF3F9F3FFF1FFF3F45
:00000001FF
