:1000000080312528C03463347E1480314E01161EA1
:100010000A280B2813280C1E0E280F2813289231AB
:100020003422803123280B1F1628172823281A1C56
:100030001A281B282328101C1E281F282328923129
:100040007E22803123287E1009008031272841013B
:10005000803102208031EE00803103208031EF00BA
:10006000A53084009130850042011200E8001200A2
:10007000E9001200EA001200EB001200EC0012008E
:10008000ED00403084002B308500B030FE0004309D
:10009000FF009131D0218031FA01FB01CF30840083
:1000A000003085001F30FE000030FF009131D0216C
:1000B000803120308400013085003C30FE0000306B
:1000C000FF009131D0218031A030840001308500C3
:1000D0002030FE000030FF009131D02180317E10B1
:1000E00040019431F02CB32D42016D0841016406AA
:1000F000031D7E2842016C08410163060319812813
:100100008228B32D6C036D04031D87288828322BA9
:100110009131C621803175084101D2007408D100A7
:100120007308D0007208CF0052084001E900410175
:1001300051084001E800410150084001E700410139
:100140004F084001E6004730CF006A30CE006030F3
:10015000CD000030CC000030F9000030F800023053
:10016000F7005830F60041016B08F5006A08F4000A
:100170006908F3006808F20094313E248031750864
:100180004001A7007408A6007308A5007208A40027
:10019000013089316521803140012708D3002608CC
:1001A000D2002508D1002408D0008C311B248031D6
:1001B00040014F08ED004E08EC004D08EB004C08E4
:1001C000EA00933152238031400169084101DE0089
:1001D000400168084101DD00400167084101DC0081
:1001E000400166084101DB0042015B084001B900A3
:1001F00042015A084001B800420159084001B700C5
:10020000420158084001B60041015E084001B500B6
:1002100041015D084001B40041015C084001B300A8
:1002200041015B084001B2008D31C525803140019C
:100230003508D3003408D2003308D1003208D0008A
:10024000420157084001B900420156084001B80078
:10025000420155084001B700420154084001B60070
:1002600041015A084001B500410159084001B4005C
:10027000410158084001B300410157084001B20054
:100280008D31C525803140013508CF003408CE00BE
:100290003308CD003208CC008531C92580314001BA
:1002A0004F084101B20040014E084101B100400138
:1002B0004D084101B00040014C084101AF00520817
:1002C0004001ED00410151084001EC00410150089E
:1002D0004001EB0041014F084001EA0042012708BC
:1002E0004001E900420126084001E80042012508DA
:1002F0004001E700420124084001E6009331522307
:10030000803140016908B9006808B8006708B70083
:100310006608B600420153084001B5004201520888
:100320004001B400420151084001B30042015008AD
:100330004001B2008D31C5258031400135084101B1
:10034000AA00400134084101A900400133084101DD
:10035000A800400132084101A70032084001ED0029
:10036000410131084001EC00410130084001EB003F
:1003700041012F084001EA0041012A084001E9003B
:10038000410129084001E800410128084001E70037
:10039000410127084001E60093315223803140019A
:1003A00069084101AE00400168084101AD0040010B
:1003B00067084101AC00400166084101AB002E080E
:1003C0004001CF0041012D084001CE0041012C0821
:1003D0004001CD0041012B084001CC00420137080B
:1003E0004001D300420136084001D20042013508E5
:1003F0004001D100420134084001D0008531C925B7
:10040000803140014F084201B70040014E084201CF
:10041000B60040014D084201B50040014C084201C0
:10042000B40041015E084001CF0041015D08400178
:10043000CE0041015C084001CD0041015B08400154
:10044000CC0041015A084001D30041015908400144
:10045000D200410158084001D10041015708400134
:10046000D0008531C925803140014F084101DA00B3
:1004700040014E084101D90040014D084101D8001A
:1004800040014C084101D7005A084001A700410132
:1004900059084001A600410158084001A50041014A
:1004A00057084001A400C430AB001630AA00003049
:1004B000A9000030A8004430AF001630AE00003074
:1004C000AD000030AC009431AB24803140012708EE
:1004D0004101DA00400126084101D9004001250808
:1004E0004101D800400124084101D70052084201CF
:1004F000A700410151084201A600410150084201F4
:10050000A50041014F084201A400410152084001E9
:10051000B900410151084001B800410150084001B3
:10052000B70041014F084001B6004730B5006A30BE
:10053000B4006030B3000030B2008D31C525803189
:1005400040013508D3003408D2003308D100320806
:10055000D0004430CF001630CE000030CD00003047
:10056000CC008C311B24803140014F08E9004E083B
:10057000E8004D08E7004C08E60097311727803166
:1005800041016408A4006308A300A335A40D9830BA
:10059000A5002D30A6002308250786002408263D47
:1005A000870040016608C03F6708C13F4130CF0067
:1005B0002030CE000030CD000030CC004201400899
:1005C00041015F02A300420141084101603BA400D8
:1005D000420142084101613BA5004201430841013B
:1005E000623BA60026084001A70041012508400102
:1005F000A600410124084001A50041012308400153
:10060000A400013089316521803140012708D300E1
:100610002608D2002508D1002408D0008C311B24E4
:10062000803140014F084201A30040014E084201C1
:10063000A20040014D084201A10040014C084201C6
:10064000A000410162084201C3004101610842016A
:10065000C200410160084201C10041015F0842013E
:10066000C0005C2D6C086D04031D372B382B5C2DEE
:100670009131BC21803175084101D6007408D50044
:100680007308D4007208D30056084001A700410146
:1006900055084001A600410154084001A500410150
:1006A00053084001A40001308931652180314001A7
:1006B0002708E9002608E8002508E7002408E600E6
:1006C0004330CF00B430CE000030CD000030CC003D
:1006D0000030F9000030F8000230F7005830F60022
:1006E00041016B08F5006A08F4006908F300680826
:1006F000F20094313E24803175084001A70074084F
:10070000A6007308A5007208A40001308931652194
:10071000803140012708D3002608D2002508D100E7
:100720002408D0008C311B24803140014F08ED009B
:100730004E08EC004D08EB004C08EA0093315223C0
:100740008031400169084101DE0040016808410133
:10075000DD00400167084101DC00400166084101FD
:10076000DB005A084001B500410159084001B400BE
:10077000410158084001B300410157084001B2004F
:10078000420157084001B900420156084001B80033
:10079000420155084001B700420154084001B6002B
:1007A0008D31C525803140013508CF003408CE0099
:1007B0003308CD003208CC0041015E084001B5008D
:1007C00041015D084001B40041015C084001B300F3
:1007D00041015B084001B20042015B084001B900E1
:1007E00042015A084001B800420159084001B700CF
:1007F000420158084001B6008D31C52580314001C5
:100800003508D3003408D2003308D1003208D000B4
:100810008531C925803140014F084101B2004001B6
:100820004E084101B10040014D084101B0004001B6
:100830004C084101AF00420153084001B50042019C
:1008400052084001B400420151084001B300420186
:1008500050084001B2004201280841015302A300A0
:10086000420129084101543BA40042012A084101E8
:10087000553BA50042012B084101563BA600260826
:100880004001A700410125084001A60041012408BC
:100890004001A500410123084001A4000130893135
:1008A0006521803140012708B9002608B8002508D5
:1008B000B7002408B6008D31C525803140013508C8
:1008C000E9003408E8003308E7003208E600410197
:1008D00032084001ED00410131084001EC004101C6
:1008E00030084001EB0041012F084001EA0093313C
:1008F00052238031400169084201B7004001680875
:100900004201B600400167084201B5004001660897
:100910004201B40041015E084001CF0041015D0881
:100920004001CE0041015C084001CD0041015B085F
:100930004001CC0041015A084001D300410159084F
:100940004001D200410158084001D100410157083F
:100950004001D0008531C925803140014F08410157
:10096000DA0040014E084101D90040014D08410123
:10097000D80040014C084101D7005A084001A700A7
:10098000410159084001A600410158084001A50055
:10099000410157084001A400C430AB001630AA0042
:1009A0000030A9000030A8004430AF001630AE007F
:1009B0000030AD000030AC009431AB2480314001F8
:1009C00027084101DA00400126084101D900400111
:1009D00025084101D800400124084101D7005608EC
:1009E0004201AB00410155084201AA0041015408EF
:1009F0004201A900410153084201A80041015608E3
:100A00004001A700410155084001A60041015408DA
:100A10004001A500410153084001A4000130893183
:100A20006521803140012708B9002608B800250853
:100A3000B7002408B6004330B500B430B40000302D
:100A4000B3000030B2008D31C5258031400135083A
:100A5000D3003408D2003308D1003208D00044302B
:100A6000CF001630CE000030CD000030CC008C31ED
:100A70001B24803140014F08E9004E08E8004D0872
:100A8000E7004C08E60097311727803141016408E0
:100A9000A4006308A300A335A40D9830A5002D3051
:100AA000A6002308250786002408263D870040016C
:100AB0006608C03F6708C13F410164084201ED007C
:100AC000410163084201EC0037084001A7004201E0
:100AD00036084001A600420135084001A500420148
:100AE00034084001A400C330AB007F30AA000030BE
:100AF000A9000030A8004330AF007F30AE000030C6
:100B0000AD000030AC009431AB24803140012708A7
:100B10004201B700400126084201B6004001250805
:100B20004201B500400124084201B40037084001E9
:100B3000E900420136084001E80042013508400161
:100B4000E700420134084001E60097311727803161
:100B5000400167084101A100400166084101A00071
:100B60008731D127803141016408803AA300813068
:100B70002302031DBD2D2C306302031CC02DC12D8B
:100B8000742800304101A000A1008731D1278031B5
:100B9000080040014F088039DC004F35DE00CE1FD1
:100BA000D22DD32DD42D5E145E080319D82DD92D46
:100BB000E92D5E0A031DDD2DDE2DE62D0030CF0070
:100BC0000030CE000030CD000030CC00CE17CF0179
:100BD000F12D0030CF000030CE000030CD000030CD
:100BE000CC0053088039DD005D085C060319F92D3F
:100BF000FA2DFB2D5C175335DD00D21F002E012E80
:100C0000022E5D145D080319062E072E172E5D0AAD
:100C1000031D0B2E0C2E142E0030D3000030D200FA
:100C20000030D1000030D000D217D3011F2E003089
:100C3000D3000030D2000030D1000030D0005E0878
:100C40005D020318242E252E4B2E5C1F282E292EE4
:100C50002D2E8030D4005408DC065E08DF005D08CD
:100C6000DE005F08DD004C08DF005008CC005F08A4
:100C7000D0004D08DF005108CD005F08D1004E08BC
:100C8000DF005208CE005F08D2004F08DF00530893
:100C9000CF005F08D300DF015D08D400D5015508FF
:100CA000D7005E085402D600031CD7035708803AC9
:100CB000D80080305802031D5F2E1A305602031CE4
:100CC000622E632E952E40014F084E044D044C04B5
:100CD000031D6B2E6D2E01306E2E0030DF000030B4
:100CE000CF000030CE000030CD000030CC005D08D9
:100CF000DE009C2E5F1C7D2E7E2E822E5F360138FC
:100D0000DF00842E0310DF0C4C1C872E882E892ECA
:100D1000DF170130D400CF37CE0CCD0CCC0CD40B68
:100D20008B2E0130D4005408DE0740015D085E02BE
:100D3000031C9B2E9C2E7A2E5C1B9F2EA02ED62E43
:100D40005E08031DA42EA52EAE2E0030CF0000306D
:100D5000CE000030CD000030CC00D02F5008CC07A2
:100D60005108CD3D5208CE3D5308CF3D4F1CB92E02
:100D7000BA2E622F5F1CBD2EBE2EC22E5F360138EA
:100D8000DF00C42E0310DF0C4C1CC72EC82EC92E4A
:100D9000DF170130D400CF37CE0CCD0CCC0CD40BE8
:100DA000CB2E0130D4005408DE07622F4F08803A62
:100DB000D4005308803A5402031DE82E52084E0214
:100DC000031DE82E51084D02031DE82E50084C0269
:100DD0000318EB2EEC2E242FFF30D400FF30D5006B
:100DE000FF30D600FF30D7004C085002D8004D0825
:100DF000513BD9004E08523BDA004F08533BDB0011
:100E00005808D4075908D53D5A08D63D5B08D73D48
:100E10005708CF005608CE005508CD005408CC0026
:100E20008030D4005408DC06DF09DF0A5F08031DA8
:100E30001A2F1B2F2C2F0130CC070030CD3D003056
:100E4000CE3D0030CF3D2C2F5008CC025108CD3B79
:100E50005208CE3B5308CF3B4F084E044D044C0480
:100E6000031D332F342F5E2F5F08031D382F392FBA
:100E70005E2F0030CF000030CE000030CD000030BB
:100E8000CC00D02F0130CC35CD0DCE0DCF0D890B40
:100E9000432FDF1F4C2F4D2F4E2F4C145F1C512F13
:100EA000522F552F0314DF0D572F0310DF0D5E084F
:100EB00003195B2F5C2F5E2F0130DE02CE1F612FE6
:100EC000622F422FDD01DF1F662F672F752F5F080E
:100ED0007F3903196C2F6D2F702FDD01DD0A752FFF
:100EE0004C1C732F742F752F6D2F5D080319792FEC
:100EF0007A2FA72F0130CC070030CD3D0030CE3DFA
:100F00000030CF3D4F1C852F862FA72F4C08D400D3
:100F10004D08D5004E08D6004F08D7000130D80044
:100F2000D737D60CD50CD40CD80B902F5708CF0040
:100F30005608CE005508CD005408CC005E0A0319AF
:100F4000A22FA32FA72F0130D4005408DE075E0A7A
:100F50000319AB2FAC2FB12F5E08031DB02FB12F9B
:100F6000BF2F0030CF000030CE000030CD00003069
:100F7000CC005E08031DBD2FBE2FBF2FDC015E1C01
:100F8000C22FC32FC52FCE17C92F7F30D4005408CE
:100F9000CE055E36CF00DC1FCE2FCF2FD02FCF1740
:100FA000080041012108803AA20080302202031D7E
:100FB000DB2F01302002031CDE2FDF2FE32F400147
:100FC00019149811EC2F4001191098154101A0092E
:100FD000A109A00A0319A10A41012108F300200870
:100FE000F2009231682287310800F2004E010F1E94
:100FF000FA2FFB2FF62F720842019A000800080012
:1010000008000800F9007908031D0728082811289E
:101010007A08F9007908031D0E280F2811280030DE
:101020004D2840012808A1002708A0007908943124
:101030000B24883140012008A9002908F907790804
:10104000860087010108031D262827282A28FA017F
:1010500000304D282808A1002708A0007908933106
:10106000D823883140012008A9002108AA00790866
:101070002907FA007A088600870101080319412828
:1010800042284B287A088600870181010130A90097
:101090002908FA074C28FA0179080800003072057F
:1010A0004001A00000307305A10080307405A2004B
:1010B0007F307505A3002308220421042004031DAA
:1010C000622863286B280030F5000030F4000030FF
:1010D000F3000030F20000307605A0000030770504
:1010E000A10080307805A2007F307905A300230895
:1010F000220421042004031D7E287F288728003035
:10110000F9000030F8000030F7000030F600F51F5D
:101110008A288B28A3280030A0000030A1000030CE
:10112000A2008030A3007208A0027308A13B7408DB
:10113000A23B7508A33B2308F5002208F400210810
:10114000F3002008F200F91FA628A728BF280030C6
:10115000A0000030A1000030A2008030A30076087B
:10116000A0027708A13B7808A23B7908A33B23089B
:10117000F9002208F8002108F7002008F600803066
:10118000F5068030F90679087502031DD128780824
:101190007402031DD12877087302031DD128760835
:1011A00072020318D428D528D7280310D82803148E
:1011B000080000304101E2000030E1000030E000B2
:1011C0000030DF0000304201C3000030C2000030B8
:1011D000C1000030C0004101E301E40100304201E0
:1011E000A3000030A2000030A1000030A0000030B9
:1011F0004101DE000030DD000030DC000030DB00AB
:1012000000304201BF000030BE000030BD000030A1
:10121000BC000030BB000030BA000030B900003024
:10122000B80000304101DA000030D9000030D800A9
:101230000030D70000304201B7000030B600003067
:10124000B5000030B4000030B3000030B200003010
:10125000B1000030B0000030AF000030AE00003010
:10126000AD000030AC000030AB000030AA00003010
:10127000A9000030A80000304101D6000030D500A0
:101280000030D4000030D3000030D2000030D10054
:101290000030D0000030CF0000304201A700003005
:1012A000A6000030A5000030A40003104001191D65
:1012B000031403185C295F294001191561294001B5
:1012C000191191316D21883108004001AC002C08C2
:1012D00003196B296C298029A71F6F297029802980
:1012E0002409AE002509AF002609B0002709B10086
:1012F000AE0A0319AF0A0319B00A0319B10A882903
:101300002708B1002608B0002508AF002408AE0069
:101310002708260425042404031D8F2990299929D0
:101320000030A7000030A6000030A5000030A40067
:101330000F2A9630AD00A7290130A8002808AD0774
:101340000130B136B00CAF0CAE0C890BA129FE30C8
:101350003105031DAC29AD299C29C1290130A80004
:101360002808AD070130AE070030AF3D0030B03D7A
:101370000030B13D0130B136B00CAF0CAE0C890B72
:10138000BB29FF303105031DC629C729AE29D12944
:101390000130AD020130AE35AF0DB00DB10D890B8E
:1013A000CB29B01BD429D529DB2902302D02031803
:1013B000DA29DB29C8292D18DE29DF29E729FF30A2
:1013C000AE05FF30AF057F30B005FF30B10503102B
:1013D000AD0C2D08A800A901AA01AB011830A83551
:1013E000A90DAA0DAB0D890BEF292808AE04290819
:1013F000AF042A08B0042B08B1042C080319012AF1
:10140000022A072AA71F052A062A072AB117310828
:10141000A7003008A6002F08A5002E08A400080089
:101420004001270886008701403FA900413FAA00EC
:10143000290884002A0885001200253A031D212A64
:10144000222AEC2A270886008701013081074131D2
:101450000318810A4201CC01CD01031000300318AA
:1014600001304101E700FF304201CE00FF30CF00E4
:101470004001270886008701403FAE00413FAF0092
:101480002E0884002F0885001200643A0319492AA7
:101490004A2A542A2E0884002F0885001200693A2F
:1014A000031D532A542AE22A2808860087010108CE
:1014B0008400850102308107003FB000013FB10088
:1014C0002E08013EA90000302F3DAA002708860003
:1014D00087012908C03F2A08C13F2030B400B11B52
:1014E000722A742A0130752A0030AD000130B4022E
:1014F0003408A03E8600013087000A30F200003038
:10150000F3003108F5003008F40095313F258A31A9
:1015100073084001A1007208A000923156228A315E
:1015200040012008303E81000A30F2000030F30014
:101530003108F5003008F40096314A268A317308E4
:101540004001B1007208B000300831040319A92A23
:10155000AA2AAF2A3408031DAE2AAF2A762A3408F5
:101560000319B32AB42ADB2A2D080319B82AB92A89
:10157000DB2A0130B4023408A03E86000130870027
:101580002D308100DB2A3408A03E86000130870020
:101590000108A900AA012908F4002A08F500260874
:1015A000F7002508F6009531EB258A31013040011E
:1015B000A9002908B40720303406031DE02AE12AD7
:1015C000C32A062B400127088600870101308107C6
:1015D00041310318810A062B270886008701403F06
:1015E000A900413FAA00290884002A0885000008B4
:1015F000AB00AC012B08F4002C08F5002608F7001E
:101600002508F6009531EB258A31E22A08004101D0
:10161000C800CB01CC01913170218B31003A031904
:10162000122B132B0B2B923115228B314101CE0043
:101630000A304E0603191D2B1E2B242B0D304E068F
:10164000031D232B242B2A2B4B08A03E8600870149
:101650008101352B4B08A03E860087014E08810092
:101660000130CB070030CC3D0B2B08304001A700E8
:101670009830A800A030883102208B314101CD0084
:10168000C901CA015F2B4D08973188278B31410171
:101690004935BE3E860087017808C03F7908C13FC2
:1016A00008304001A7009830A800030188310220CB
:1016B0008B314101CD000130C9070030CA3D4D08D2
:1016C000031D632B642B432B4808860087013E08CB
:1016D000C03F3F08C13F40084001EA0041014108C6
:1016E0004001EB000030EB1BFF30EC00ED00660822
:1016F000860087016A08C03F6B08C13F6C08C23F83
:101700006D08C33F4430CF007A30CE000030CD00AA
:101710000030CC00410142084001A40041014308CF
:101720004001A500890D893B8909A600A700013069
:10173000893165218B3140012708D3002608D2006A
:101740002508D1002408D0008C311B248B314001A6
:1017500067088600013087004C08C03F4D08C13F34
:101760004E08C23F4F08C33F4430CF007A30CE000E
:101770000030CD000030CC00410144084001A400FD
:10178000410145084001A500890D893B8909A60052
:10179000A7000130893165218B3140012708D30032
:1017A0002608D2002508D1002408D0008C311B2443
:1017B0008B31400168088600013087004C08C03F2B
:1017C0004D08C13F4E08C23F4F08C33F4430CF00D1
:1017D0007A30CE000030CD000030CC004101460808
:1017E0004001A400410147084001A500890D893B43
:1017F0008909A600A7000130893165218B3140019C
:101800002708D3002608D2002508D1002408D000DC
:101810008C311B248B314001690886000130870020
:101820004C08C03F4D08C13F4E08C23F4F08C33F60
:101830004101A0010800400153088039DD00533503
:10184000E400D21F242C252C262C641464080319D0
:101850002A2C2B2C3B2C640A031D2F2C302C382CCB
:101860000030D3000030D2000030D1000030D00072
:10187000D217D301432C0030D3000030D200003007
:10188000D1000030D0004F088039D4005408DD0664
:101890004F35E500CE1F4D2C4E2C4F2C651465089E
:1018A0000319532C542C642C650A031D582C592CF5
:1018B000612C0030CF000030CE000030CD00003071
:1018C000CC00CE17CF016C2C0030CF000030CE0002
:1018D0000030CD000030CC004F084E044D044C04C5
:1018E000031D732C742C8D2C0030D3000030D200DB
:1018F0000030D1000030D0008030D2047F30D304DB
:101900005D08D4005408D3045308CF005208CE0019
:101910005108CD005008CC00C42D6408031D912C43
:10192000922C9B2C0030CF000030CE000030CD0038
:101930000030CC00C42D6408D400D5015508D70070
:1019400065085402D600031CD70356087F3EDE000C
:101950000030573DDF005308DC005208DB0051081F
:10196000DA005008D9000030D3000030D200003037
:10197000D1000030D0000030E3000030E200003041
:10198000E1000030E000E501032D65080319C92CD2
:10199000CA2CE42C0130D935DA0DDB0DDC0D890BB6
:1019A000CB2C0130D035D10DD20DD30D890BD22CDB
:1019B000E31FDB2CDC2CDD2C50140130E035E10D75
:1019C000E20DE30D890BDE2C4F085C02031DF22CA7
:1019D0004E085B02031DF22C4D085A02031DF22C27
:1019E0004C085902031CF52CF62CFF2C63174C08ED
:1019F000D9024D08DA3B4E08DB3B4F08DC3B013097
:101A0000D4005408E5071A306502031C082D092D7F
:101A1000C52C5C085B045A0459040319102D112DC0
:101A20002A2D60142A2D0130D035D10DD20DD30DC1
:101A3000890B142DE31F1D2D1E2D1F2D5014013059
:101A4000E035E10DE20DE30D890B202DFF30DE07BF
:101A5000FF30DF3DD21F2D2D2E2D132DE501E31F6D
:101A6000322D332D4F2DFF306005D400FF3061053E
:101A7000D500FF306205D6007F306305D7005708D8
:101A80005604550454040319462D472D4A2DE501EB
:101A9000E50A4F2D501C4D2D4E2D4F2D472D65081D
:101AA0000319532D542D7C2D0130D0070030D13D2A
:101AB0000030D23D0030D33D531C5F2D602D7C2D76
:101AC0005008D4005108D5005208D6005308D7005A
:101AD0000130D800D737D60CD50CD40CD80B6A2DD2
:101AE0005708D3005608D2005508D1005408D0003A
:101AF0000130DE070030DF3D5F08803AD4008030DF
:101B00005402031D852DFF305E02031C882D892D94
:101B1000962DFF304001DE000030DF000030D300A2
:101B20000030D2000030D1000030D00040015F080A
:101B3000803AD40080305402031DA02D01305E0293
:101B40000318A32DA42DB02D4001DE01DF010030CC
:101B5000D3000030D2000030D1000030D000DD01D1
:101B600040015E08E400641CB62DB72DB92DD217D4
:101B7000BD2D7F30D4005408D2056436D3005D08F3
:101B8000D4005408D304842C08004001350880395F
:101B9000BF003535C500B41FCE2DCF2DD02D451437
:101BA00045080319D42DD52DE42D450A031DD92D43
:101BB000DA2DE22D0030B5000030B4000030B30063
:101BC0000030B200B417EC2D0030B5000030B40086
:101BD0000030B3000030B20039088039BA003A084A
:101BE000BF063935C000B81FF62DF72DF82D40146B
:101BF00040080319FC2DFD2D0C2E400A031D012E5B
:101C0000022E0A2E0030B9000030B8000030B700B4
:101C10000030B600B817142E0030B9000030B800FC
:101C20000030B7000030B60040080319182E192EF6
:101C30001E2E4508031D1D2E1E2E272E0030B5001A
:101C40000030B4000030B3000030B200FF2F320883
:101C5000F20038089331B4238D3173084001CB0072
:101C60007208CA004A08BA00BB01BC01BD013D08A8
:101C7000C4003C08C3003B08C2003A08C1004B083E
:101C8000BA00BB01BC01BD013D08C9003C08C80049
:101C90003B08C7003A08C6003308F2003708933102
:101CA000B4238D3173084001CB007208CA004A0882
:101CB000BA00BB01BC01BD013A08C1073B08C23DE7
:101CC0003C08C33D3D08C43D4B08BA00BB01BC0104
:101CD000BD013A08C6073B08C73D3C08C83D3D0862
:101CE000C93D3408F20036089331B4238D317308AE
:101CF0004001CB007208CA004A08BA00BB01BC010F
:101D0000BD013A08C1073B08C23D3C08C33D3D0840
:101D1000C43D4B08BA00BB01BC01BD013A08C6076F
:101D20003B08C73D3C08C83D3D08C93D0830C135AA
:101D3000C20DC30DC40D890B972E3308F20036086F
:101D40009331B4238D3173084001CB007208CA006F
:101D50004A08C1074B08C23D0030C33DC43D3208AC
:101D6000F20037089331B4238D3173084001CB0062
:101D70007208CA004A08C1074B08C23D0030C33D83
:101D8000C43D0830C135C20DC30DC40D890BC22E30
:101D90003208F20036089331B4238D3173084001C4
:101DA000CB007208CA004A08C1074B08C23D003088
:101DB000C33DC43D3308F20038089331B4238D315C
:101DC00073084001CB007208CA004A08C6074B08D6
:101DD000C73D0030C83DC93D3408F2003708933193
:101DE000B4238D3173084001CB007208CA004A0841
:101DF000C6074B08C73D0030C83DC93D3408F20056
:101E000038089331B4238D3173084001CB00720838
:101E1000CA004A08BA004B08BB00BC01BD0108302B
:101E2000BA35BB0DBC0DBD0D890B102F3A08C60786
:101E30003B08C73D3C08C83D3D08C93D4108BA00C4
:101E40004208BB004308BC004408BD001830BD3642
:101E5000BC0CBB0CBA0C890B272F3A08C6073B08F1
:101E6000C73D3C08C83D3D08C93D0830C135C20DDD
:101E7000C30DC40D890B362F45084007BA00BB01BE
:101E8000BB0D3A08823ECA00FF303B3DCB005F2FBE
:101E90000130C635C70DC80DC90D890B492FC41FA8
:101EA000522F532F542F46140130C135C20DC30D8C
:101EB000C40D890B552FFF30CA07FF30CB3DC81F1B
:101EC000622F632F482FC001C41F672F682F842FF4
:101ED000FF304105BA00FF304205BB00FF3043052B
:101EE000BC007F304405BD003D083C043B043A047F
:101EF00003197B2F7C2F7F2FC001C00A842F461C23
:101F0000822F832F842F7C2F40080319882F892F3D
:101F1000B12F0130C6070030C73D0030C83D00304A
:101F2000C93D491C942F952FB12F4608BA00470888
:101F3000BB004808BC004908BD000130BE00BD37E9
:101F4000BC0CBB0CBA0CBE0B9F2F3D08C9003C0853
:101F5000C8003B08C7003A08C6000130CA07003075
:101F6000CB3D4B08803ABA0080303A02031DBA2FAD
:101F7000FF304A02031CBD2FBE2FC82F7F30400107
:101F8000C9008030C8000030C7000030C600F32F01
:101F900040014B08803ABA0080303A02031DD22F2C
:101FA00001304A020318D52FD62FE12F003040010F
:101FB000C9000030C8000030C7000030C600BF01B3
:101FC000F32F40014A08C500FF30C605FF30C705A2
:101FD0007F30C8050030C905451CEF2FF02FF12FC9
:101FE000C8174536C9003F08BA003A08C90449086D
:101FF000B5004808B4004708B3004608B20008001E
:1022D40044010E10080044010E1408004E010F0EB4
:1022E400890C0139080001304101E3070030E43D65
:1022F400080073084201E3007208E2000800730852
:102304004201E7007208E600080073084201E50094
:102314007208E400080073084201E1007208E0005A
:10232400080073084201DF007208DE000800730829
:102334004201DD007208DC000800F30073088731F5
:10234400F527913108005834023400340034013444
:1023540000344F0196019701980199019A019B015C
:102364000800603051018D008F0191010630930007
:102374009201080041016208F5006108F400600858
:10238400F3005F08F200080042012308F500220868
:10239400F4002108F3002008F20008006400800122
:1023A40001310130FE020030FF3B7F087E04031D33
:1023B400D1290034803047018E003F308D00C03079
:1023C4008C0044011F08F33904389F0008000130D1
:1023D400450190008F0191013F308D008C014E0129
:1023E4009010F03045018E0008004201600861043D
:1023F4000319FD29FE29032A61088A0060080A00DE
:1024040092317E01D510080042015E085F04031971
:102414000C2A0D2A122A5F088A005E080A009231EB
:102424007E01551108004E018F1E192A1A2A152AF9
:10243400FB0142019D1C1F2A202A222A1D121D165F
:10244400190808003E304001C2000030B500B60053
:102454003D08B8003C08B7004230B9009331152359
:10246400923108007E01D51C382A392A3C2A913140
:10247400F72192317E01551D402A412A442A923186
:1024840006229231080044010E1D492A4A2A512A83
:102494000E1071088D0070088C000E14552A7108F6
:1024A4008D0070088C0008004001A11B5A2A5B2A89
:1024B4005C2A672A2009A2002109A300A20A0319A1
:1024C400A30A2208A0002308A10008007308F5004D
:1024D4007208F400F536F40CF536F40C7408470170
:1024E4008D0072080339F4000530F435FF3E031DF6
:1024F400772A74358C0008004E01101041016F08D2
:10250400F1006E08F00092314522923142015C08DC
:102514005D0403198E2A8F2A942A5D088A005C08B8
:102524000A00923108004401950196010130970098
:1025340002309300183092004E0110114401130828
:102544004101E600440112084101E5003430440130
:102554009400080040010E1DB02AB12ABB2A0130A4
:102564004101DF070030E03D0030E13D0030E23D55
:10257400C42AFF304101DF07FF30E03DFF30E13D79
:10258400FF30E23D080040018E18C92ACA2AD42A25
:1025940001304101DF070030E03D0030E13D003013
:1025A400E23DDD2AFF304101DF07FF30E03DFF302F
:1025B400E13DFF30E23D08009131AB21923195318C
:1025C400922592319131B32192319131DC219231B2
:1025D4009231952292319131E921923193317223D2
:1025E4009231933192239231080072088400730867
:1025F400850000087406031D002B012B022B142BED
:102604007308F7007208F600F20A0319F30A760851
:102614008400770885001200031D112B122BF72A62
:10262400F201F301080040013808BB003708BA0082
:10263400262B3608A6003508A5003A30A70039082D
:10264400A8008A311022933140013A0884003B08E3
:1026540085001200031D2F2B302B1B2BB501B60157
:102664000800F601F701721C382B392B3D2B740836
:10267400F6077508F73D0130F435F50D890B3E2B4F
:102684000130F336F20C890B432B72087304031DDB
:102694004C2B4D2B352B7708F3007608F2000800FD
:1026A40080304001E9066D08CF006C08CE006B084D
:1026B400CD006A08CC006908D3006808D200670816
:1026C400D1006608D0008531C925933140014F08F7
:1026D400E9004E08E8004D08E7004C08E600080051
:1026E40044018F0190010130910063308D00C030AE
:1026F4008C004E01101044010D084101EF0044010B
:102704000C084101EE004E011A14FF30F2000730AC
:10271400F300913199219331113044018E00080066
:10272400083042019F0090309D0024309E004030CC
:102734009B0003309C000030F2000030F300913124
:10274400812193310030F2000030F3009131872170
:1027540093310030F2000030F30091317B2193314A
:10276400FB0108004001A400A001A1017208F400CB
:10277400F5017408A2007508A300241CC22BC32B06
:10278400C72B2208A0072308A13D0130A235A30DC1
:10279400890BC82B0310A40C2408031DD22BD32BA4
:1027A400BF2B2108F3002008F20008004001A60016
:1027B400A401A501E62B01304001A2002208A607CE
:1027C4000130A4070030A53D2608860087010108D2
:1027D4000319ED2BEE2B052C2108F3002008F20041
:1027E4002608860087010108A200A3012208F4003C
:1027F4002308F5009231F722933172087304031908
:10280400042C052CDD2B40012508A1002408A00080
:1028140008004001A600A401A501192C01304001C3
:10282400A2002208A6070130A4070030A53D26080F
:102834008600870101080319202C212C382C21083B
:10284400F3002008F2002608860087010108A20090
:10285400A3012208F4002308F5009231F7229431F1
:1028640072087304031D372C382C102C40012508E2
:10287400A1002408A000080000304001A30000309B
:10288400A2000030A1000030A000721C4A2C4B2C86
:10289400542C76084001A0077708A13D7808A23D92
:1028A4007908A33D0130F635F70DF80DF90D890BC4
:1028B400552C0130F536F40CF30CF20C890B5C2C1E
:1028C4007508740473047204031D692C6A2C472C64
:1028D40040012308F5002208F4002108F300200831
:1028E400F2000800F801F9017908803A4001A000DB
:1028F40081302002031D802C2C307802031C832C91
:10290400842C852CAA2C7908F3007808F2000A306C
:10291400F4000030F50093313323943179084001F9
:10292400A1007808A000A035A10D4030A2002B30F2
:10293400A3002008220786002108233D870072088F
:10294400C03F7308C13F0130F8070030F93D762CD1
:10295400080040012708F5002608F4002508F300C4
:102964002408F2002B08F9002A08F8002908F700C7
:102974002808F60088314E2094310318C22CC32C49
:10298400CD2C40012B08A7002A08A6002908A50081
:102994002808A400EF2C40012F08F5002E08F400AD
:1029A4002D08F3002C08F2002708F9002608F80087
:1029B4002508F7002408F60088314E2094310318C6
:1029C400E42CE52CEF2C40012F08A7002E08A600CC
:1029D4002D08A5002C08A400EF2C08009231DE225B
:1029E4009431AC30F2001230F30091318D219431E6
:1029F400C530F2001230F3009131932194317530D7
:102A0400F2001130F3009131992194318B170B1797
:102A140091316D21943100304101A000A100873132
:102A2400D1279431943174249431E8304001E60084
:102A34005830E7005430E8005030E900EC308B3176
:102A4400072394318831D920943180317320943113
:102A540091316A21943103104001191D03140318A4
:102A6400342D372D40011915392D40011911963196
:102A7400AA269431172D80312528F801F51F432DFE
:102A8400442D4B2DF409F509F40A0319F50AF8014C
:102A9400F80AF31F4E2D4F2D542DF209F309F20AB3
:102AA4000319F30A720873040319592D5A2D832D3F
:102AB400F701F70A662D0130F235F30D890B5E2D0F
:102AC4000130F6007608F707F31F692D6A2D5D2D96
:102AD40073087502031D702D72087402031C732D94
:102AE400742D782D7208F4027308F53B0130F33627
:102AF400F20C890B792D0130F702031D822D832DF1
:102B04006A2D78080319872D882D8D2DF409F50970
:102B1400F40A0319F50A7508F3007408F2000800B2
:102B240040019A0199019601970198010730950097
:102B3400FF309100FF309200E7309300F8309400AA
:102B4400F8307E01D9009130CE00FF30C300073049
:102B5400E400FF30B800DA01E501C401B901063030
:102B6400CF00E601BA01C501D001DB01FF30BB0093
:102B7400FF30C600FF30D100FF30DC000730E70033
:102B8400FF30BC00FF30C700FF30D200FF30DD0053
:102B94000F30E800D5105511D4105411D314531527
:102BA4000030F2000830F30091318D21953101306D
:102BB400F2000830F3009131932195314E0116163D
:102BC40015307D01CB0010307E01A4000E30A90029
:102BD4000800760877040319F02DF12DF72D7608F7
:102BE4007704031DF62DF72DFC2D740891319F21D8
:102BF4009531492E760886007708870049311600FA
:102C040001040319062E072E282E7608860077085D
:102C140087004931403F4001A000413FA1007608B0
:102C24008600770887004231403FA200413FA3005D
:102C34002308803AA4002108803A2402031D242E8C
:102C4400200822020318272E282E492E76088600F3
:102C54007708870042317608840077088500403F72
:102C640000074001A0000131413F003DA1002008C0
:102C7400860021088700740881007608860077089A
:102C8400870042310130810741310318810A08006D
:102C94004001A101F31F4F2E502E572EF209F309C4
:102CA400F20A0319F30AA101A10AF51F5A2E5B2E99
:102CB400642EF409F509F40A0319F50A0130F60043
:102CC4007608A106A201A3017208730403196B2EEE
:102CD4006C2E9B2EA001A00A782E0130F235F30D44
:102CE400890B702E0130F6007608A007F31F7B2EA7
:102CF4007C2E6F2E0130A235A30D890B7D2E730817
:102D04007502031D872E72087402031C8A2E8B2EF3
:102D1400902E7208F4027308F53B22140130F33646
:102D2400F20C890B912E0130A002031D9A2E9B2ECA
:102D34007C2E210803199F2EA02EA52EA209A309DB
:102D4400A20A0319A30A2308F3002208F2000800C8
:102D54004001CB01CC0100304001BC009830BD00E3
:102D64004C08C4004B08C300C335C40D9830C500DB
:102D74002D30C6004308450786004408463D8700B9
:102D8400403FBE00413FBF004C08C8004B08C7008D
:102D9400C735C80D4030C9002B30CA004708490761
:102DA400860048084A3D8700403FC000413FC100BB
:102DB40092312422963140014C08803AC30081307C
:102DC4004302031DE72E2B304B020318EA2EEB2E91
:102DD400F32E08304001BC009830BD00923124220B
:102DE40096310B304001C3006230890BF72EC30BC0
:102DF400F72E000001304001CB070030CC3D4C08D9
:102E0400803AC30081304302031D0A2F2C304B0249
:102E1400031C0D2F0E2FAD2E06304001BC00983040
:102E2400BD00923124229631080003104001680D40
:102E3400690DEF006F08031D202F212F2A2F00306A
:102E4400E9000030E8000030E7000030E600872F9A
:102E54006608EA006708EB006808EC006908ED0002
:102E64001F30ED36EC0CEB0CEA0C890B332F6A089F
:102E7400EE00E817FF30E605FF30E705FF30E80510
:102E84000030E9059630EF02EF1F492F4A2F622FD9
:102E94006F08803A973E0318502F512F522F212F3D
:102EA4000130E936E80CE70CE60C890B532F0130AE
:102EB400EA006A08EF07031D602F612F522F772F56
:102EC40020306F02031C672F682F722F212F0130CF
:102ED400E635E70DE80DE90D890B6A2F0130EF02A5
:102EE4006F08031D762F772F692F6E0803197B2F28
:102EF4007C2F872FE609E709E809E909E60A03199F
:102F0400E70A0319E80A0319E90A08004001A500C1
:102F1400A301A401A201922F0130A0002008A5075B
:102F24002508860087012030010603199A2F9B2F5C
:102F34008E2F250886008701F7300107A000053091
:102F44002002031CA62FA72F8E2F25088600870199
:102F54002D300106031DAF2FB02FB72FA201A20AF7
:102F64000130A0002008A507DE2F25088600870170
:102F74002B300106031DBF2FC02FDE2FB22F2508D3
:102F8400860087012408F3002308F2000A30F400C5
:102F94000030F50093313323973173084001A100C9
:102FA40001087202A000031CA1032008303EA30004
:102FB4000030213DA400B22F250886008701D030BF
:102FC4000107A0000A302002031CE92FEA2FC12FB9
:102FD4002208031DEE2FEF2FFB2F2309A000240945
:102FE400A100A00A0319A10A2008F8002108F90089
:102FF400FF2F2408F9002308F80008002534693459
:103004002C342534693400340A3400342C3400342C
:020000040001F9
:0A000E00EC3FFF3F9F3FFF1FFF3F45
:00000001FF
