:1000000080312528080008007E1480314E01161E1C
:100010000A280B2813280C1E0E280F2813289D31A0
:100020008525803123280B1F1628172823281A1C02
:100030001A281B282328101C1E281F2823289D311E
:10004000B925803123287E10090080312728F83017
:1000500084009C30850042011200E8001200E90093
:100060001200EA001200EB001200EC001200ED009A
:10007000403084002B308500B030FE000430FF009B
:100080009D312D258031FA01FB01CF3084000030F5
:1000900085002130FE000030FF009D312D2580318C
:1000A00020308400013085003C30FE000030FF002D
:1000B0009D312D258031A030840001308500203015
:1000C000FE000030FF009D312D2580317E10400163
:1000D00090317E287A087B04031D6F287028942AAB
:1000E0009D310F25803175084101D6007408D50077
:1000F0007308D4007208D30056084001A7004101DC
:1001000055084001A600410154084001A5004101E5
:1001100053084001A40001309431972480314001FC
:100120002708E9002608E8002508E7002408E6007B
:100130004330CF00B430CE000030CD000030CC00D2
:100140000030F9000030F8000230F7005830F600B7
:1001500041016F08F5006E08F4006D08F3006C08AB
:10016000F2009F319327803175084001A700740881
:10017000A6007308A5007208A400013094319724EA
:10018000803140012708D3002608D2002508D1007D
:100190002408D00096315626803140014F08ED00EA
:1001A0004E08EC004D08EB004C08EA009E31A626F4
:1001B0008031400169084101EB00400168084101BC
:1001C000EA00400167084101E90040016608410179
:1001D000E8005E084001B50041015D084001B4003F
:1001E00041015C084001B30041015B084001B200DD
:1001F000420157084001B900420156084001B800C9
:10020000420155084001B700420154084001B600C0
:100210008B310C23803140013508CF003408CE00EB
:100220003308CD003208CC0041016B084001B50015
:1002300041016A084001B400410169084001B3006E
:10024000410168084001B20042015B084001B90069
:1002500042015A084001B800420159084001B70064
:10026000420158084001B6008B310C238031400117
:100270003508D3003408D2003308D1003208D0004A
:1002800089310421803140014F084101B200400111
:100290004E084101B10040014D084101B00040014C
:1002A0004C084101AF00420153084001B500420132
:1002B00052084001B400420151084001B30042011C
:1002C00050084001B2004201280841015302A30036
:1002D000420129084101543BA40042012A0841017E
:1002E000553BA50042012B084101563BA6002608BC
:1002F0004001A700410125084001A6004101240852
:100300004001A500410123084001A40001309431BF
:100310009724803140012708B9002608B800250835
:10032000B7002408B6008B310C238031400135081A
:10033000E9003408E8003308E7003208E60041012C
:1003400032084001ED00410131084001EC0041015B
:1003500030084001EB0041012F084001EA009E31C6
:10036000A6268031400169084101DA004001680891
:100370004101D900400167084101D80040016608E9
:100380004101D7006B084001CF0041016A084001DC
:10039000CE00410169084001CD00410168084001DB
:1003A000CC0041015E084001D30041015D084001DD
:1003B000D20041015C084001D10041015B084001CD
:1003C000D00089310421803140014F084101DE0015
:1003D00040014E084101DD0040014D084101DC00B3
:1003E00040014C084101DB005E084001A7004101CB
:1003F0005D084001A60041015C084001A5004101E3
:100400005B084001A400C430AB001630AA000030E5
:10041000A9000030A8004430AF001630AE00003014
:10042000AD000030AC009031392080314001270808
:100430004101DE00400126084101DD0040012508A0
:100440004101DC00400124084101DB005608420163
:10045000AB00410155084201AA0041015408420184
:10046000A900410153084201A8004101560840017A
:10047000A700410155084001A60041015408400170
:10048000A500410153084001A40001309431972494
:10049000803140012708B9002608B8002508B700B8
:1004A0002408B6004330B500B430B4000030B300C7
:1004B0000030B2008B310C23803140013508D3006D
:1004C0003408D2003308D1003208D0004430CF00C5
:1004D0001630CE000030CD000030CC0096315626CC
:1004E000803140014F08E9004E08E8004D08E70060
:1004F0004C08E60092318B22803141016008A40053
:100500005F08A300A335A40D9830A5002D30A600E8
:100510002308250786002408263D87004001660839
:10052000C03F6708C13F052F02307A067B04031DD8
:100530009A2A9B2A262C9D310F258031750841016E
:10054000D6007408D5007308D4007208D30056088A
:100550004001A700410155084001A600410154088F
:100560004001A500410153084001A400013094312D
:100570009724803140012708E9002608E800250873
:10058000E7002408E6004330CF00B430CE0000304E
:10059000CD000030CC000030F9000030F80002300F
:1005A000F7005830F60041016F08F5006E08F400BE
:1005B0006D08F3006C08F2009F31932780317508B5
:1005C0004001A7007408A6007308A5007208A400E3
:1005D000013094319724803140012708D300260848
:1005E000D2002508D1002408D0009631562680314B
:1005F00040014F08ED004E08EC004D08EB004C08A0
:10060000EA009E31A6268031400169084101EB00D5
:10061000400168084101EA00400167084101E90022
:10062000400166084101E8003E304001B500053058
:10063000B400D630B3003930B20042013B0840016B
:10064000B90042013A084001B800420139084001AE
:10065000B700420138084001B6008B310C238031CD
:1006600040013508E9003408E8003308E7003208A3
:10067000E6003E30B5000B30B4004330B300963096
:10068000B20041016B084001B90041016A08400114
:10069000B800410169084001B70041016808400104
:1006A000B6008B310C23803140013508ED00340851
:1006B000EC003308EB003208EA009E31A6268031B8
:1006C000400169084101B600400168084101B500D8
:1006D000400167084101B400400166084101B300D0
:1006E0003F304001B5007430B4006D30B300C63007
:1006F000B20041015A084001B900410159084001C6
:10070000B800410158084001B700410157084001B5
:10071000B6008B310C23803140013508CF003408FE
:10072000CE003308CD003208CC004101360840012C
:10073000D300410135084001D20041013408400195
:10074000D100410133084001D000893104218031BA
:1007500040014F084101DA0040014E084101D90033
:1007600040014D084101D80040014C084101D7002B
:100770006B084201BB0041016A084201BA00410115
:1007800069084201B900410168084201B80041010D
:1007900056084001A700410155084001A60041014B
:1007A00054084001A500410153084001A400013054
:1007B00094319724803140012708B9002608B800F9
:1007C0002508B7002408B6004330B500B430B400A3
:1007D0000030B3000030B2008B310C238031400177
:1007E0003508D3003408D2003308D1003208D000D5
:1007F0004430CF001630CE000030CD000030CC00A9
:1008000096315626803140014F08E9004E08E80035
:100810004D08E7004C08E60092318B2280314101FF
:100820006008A4005F08A300A335A40D9830A500BC
:100830002D30A6002308250786002408263D8700C2
:1008400040016608C03F6708C13F052F05307A06A2
:100850007B04031D2C2C2D2C302D9D310F25803138
:1008600075084101D6007408D5007308D4007208D9
:10087000D30056084001A700410155084001A600D9
:10088000410154084001A500410153084001A40062
:10089000013094319724803140012708E90026086F
:1008A000E8002508E7002408E6004330CF00B43014
:1008B000CE000030CD000030CC000030F900003018
:1008C000F8000230F7005830F60041016F08F500DB
:1008D0006E08F4006D08F3006C08F2009F31932756
:1008E000803175084001A7007408A6007308A500B0
:1008F0007208A40001309431972480314001270808
:10090000D3002608D2002508D1002408D000963153
:100910005626803140014F08ED004E08EC004D088E
:10092000EB004C08EA009E31A626803140016908A0
:100930004101EB00400168084101EA0040016708FD
:100940004101E900400166084101E8003F304001F3
:10095000B5004C30B400CC30B300CD30B200410112
:100960006B084001B90041016A084001B80041012B
:1009700069084001B700410168084001B6008B31A9
:100980000C238031400135084101DA004001340870
:100990004101D900400133084101D800400132082B
:1009A0004101D70056084001A70041015508400108
:1009B000A600410154084001A5004101530840012F
:1009C000A400013094319724803140012708B900F8
:1009D0002608B8002508B7002408B6004330B50043
:1009E000B430B4000030B3000030B2008B310C23BF
:1009F000803140013508D3003408D2003308D100DB
:100A00003208D0004430CF001630CE000030CD0088
:100A10000030CC0096315626803140014F08E90065
:100A20004E08E8004D08E7004C08E60092318B22A2
:100A3000803141016008A4005F08A300A335A40D24
:100A40009830A5002D30A60023082507860024082D
:100A5000263D870040016608C03F6708C13F052F5B
:100A600006307A067B04031D362D372DC22E9D31AC
:100A70000F25803175084101D6007408D500730830
:100A8000D4007208D30056084001A7004101550860
:100A90004001A600410154084001A500410153084E
:100AA0004001A4000130943197248031400127088F
:100AB000E9002608E8002508E7002408E60043309E
:100AC000CF00B430CE000030CD000030CC0000307C
:100AD000F9000030F8000230F7005830F60041010C
:100AE0006F08F5006E08F4006D08F3006C08F20062
:100AF0009F319327803175084001A7007408A60034
:100B00007308A5007208A400013094319724803145
:100B100040012708D3002608D2002508D100240868
:100B2000D00096315626803140014F08ED004E0826
:100B3000EC004D08EB004C08EA009E31A6268031FF
:100B4000400169084101EB00400168084101EA00E9
:100B5000400167084101E900400166084101E800E1
:100B60003F304001B5008C30B400ED30B30091301F
:100B7000B20042013B084001B90042013A0840017D
:100B8000B800420139084001B7004201380840016D
:100B9000B6008B310C23803140013508E900340860
:100BA000E8003308E7003208E6003F30B500953032
:100BB000B400E330B3005430B20041016B0840018F
:100BC000B90041016A084001B800410169084001CB
:100BD000B700410168084001B6008B310C23803119
:100BE00040013508ED003408EC003308EB00320812
:100BF000EA009E31A6268031400169084101B60015
:100C0000400168084101B500400167084101B40096
:100C1000400166084101B3003F304001B5004C304F
:100C2000B400FA30B300AD30B20041015A084001BF
:100C3000B900410159084001B8004101580840017C
:100C4000B700410157084001B6008B310C238031B9
:100C500040013508CF003408CE003308CD003208FB
:100C6000CC00410136084001D30041013508400164
:100C7000D200410134084001D10041013308400154
:100C8000D00089310421803140014F084101DA0050
:100C900040014E084101D90040014D084101D800F2
:100CA00040014C084101D7006B084201BB004101E3
:100CB0006A084201BA00410169084201B9004101D4
:100CC00068084201B800410156084001A7004101EF
:100CD00055084001A600410154084001A50041010A
:100CE00053084001A4000130943197248031400121
:100CF0002708B9002608B8002508B7002408B60060
:100D00004330B500B430B4000030B3000030B2005E
:100D10008B310C23803140013508D3003408D200D8
:100D20003308D1003208D0004430CF001630CE0056
:100D30000030CD000030CC00963156268031400185
:100D40004F08E9004E08E8004D08E7004C08E600AF
:100D500092318B22803141016008A4005F08A3001A
:100D6000A335A40D9830A5002D30A6002308250733
:100D700086002408263D870040016608C03F6708BA
:100D8000C13F052F07307A067B04031DC82EC92EEC
:100D9000052F6F084001A70041016E084001A60021
:100DA00041016D084001A50041016C084001A4000B
:100DB0000130943197248031400127084101DA0045
:100DC000400126084101D900400125084101D80011
:100DD000400124084101D7009D310F258031410198
:100DE0006008A4005F08A300A335A40D9830A500F7
:100DF0002D30A6002308250786002408263D8700FD
:100E00007208C03F7308C13F052F410160084201CD
:100E1000ED0041015F084201EC0041015A08400128
:100E2000A700410159084001A600410158084001AE
:100E3000A500410157084001A400C330AB007F303A
:100E4000AA000030A9000030A8004330AF007F3076
:100E5000AE000030AD000030AC0090313920803160
:100E6000400127084101DA00400126084101D9006C
:100E7000400125084101D800400124084101D70064
:100E80005A084001E900410159084001E8004101C8
:100E900058084001E700410157084001E60092313F
:100EA0008B228031400167084101A10040016608A2
:100EB0004101A0009F31C927803141016008803A7B
:100EC000A30081302302031D672F2C305F02031C17
:100ED0006A2F6C2F8D31492D00304101A000A100F7
:100EE0009F31C9278031080000304201BF00003027
:100EF000BE000030BD000030BC000030C300003038
:100F0000C2000030C1000030C0004101DF01E0013B
:100F100000304201A3000030A2000030A1000030E8
:100F2000A00000304101EB000030EA000030E90091
:100F30000030E80000304201BB000030BA00003051
:100F4000B9000030B8000030B7000030B600003003
:100F5000B5000030B40000304101DE000030DD009B
:100F60000030DC000030DB000030DA000030D90057
:100F70000030D8000030D70000304201B30000300C
:100F8000B2000030B1000030B0000030AF000030DF
:100F9000AE000030AD000030AC000030AB000030DF
:100FA000AA000030A9000030A80000304101D6009E
:100FB0000030D5000030D4000030D3000030D20023
:100FC0000030D1000030D0000030CF0000304201AE
:100FD000A7000030A6000030A5000030A4000310D8
:100FE0004001191D03140318F62FF92F400119159C
:100FF000FB2F400119119C31C024873108000800E3
:10100000803047018E003F308D00C0308C0044019D
:101010001F08F33904389F000800400127088600A4
:101020008701403FA900413FAA00290884002A08FF
:1010300085001200253A031D1E281F28E9282708CD
:10104000860087010130810741310318810A42017E
:10105000CC01CD0103100030031801304101E6003E
:10106000FF304201CE00FF30CF004001270886004C
:101070008701403FAE00413FAF002E0884002F089B
:1010800085001200643A03194628472851282E0883
:1010900084002F0885001200693A031D502851284A
:1010A000DF282808860087010108840085010230B6
:1010B0008107003FB000013FB1002E08013EA900AA
:1010C00000302F3DAA002708860087012908C03F6D
:1010D0002A08C13F2030B400B11B6F2871280130AD
:1010E00072280030AD000130B4023408A03E860002
:1010F000013087000A30F2000030F3003108F500BB
:101100003008F40091311E21883173084001A1009C
:101110007208A0009D31A725883140012008303E8B
:1011200081000A30F2000030F3003108F500300889
:10113000F40092312B22883173084001B10072080B
:10114000B000300831040319A628A728AC283408B9
:10115000031DAB28AC28732834080319B028B12824
:10116000D8282D080319B528B628D8280130B4028C
:101170003408A03E8600013087002D308100D82839
:101180003408A03E8600013087000108A900AA01AA
:101190002908F4002A08F5002608F7002508F600BB
:1011A0009131CC21883101304001A9002908B407D0
:1011B00020303406031DDD28DE28C0280329400125
:1011C0002708860087010130810741310318810A11
:1011D0000329270886008701403FA900413FAA0054
:1011E000290884002A0885000008AB00AC012B0800
:1011F000F4002C08F5002608F7002508F6009131C8
:10120000CC218831DF28080040014F088039DC00FC
:101210004F35DE00CE1F0D290E290F295E145E0802
:1012200003191329142924295E0A031D18291929D1
:1012300021290030CF000030CE000030CD0000303A
:10124000CC00CE17CF012C290030CF000030CE00CB
:101250000030CD000030CC0053088039DD005D083F
:101260005C0603193429352936295C175335DD000E
:10127000D21F3B293C293D295D145D0803194129F2
:10128000422952295D0A031D462947294F2900306A
:10129000D3000030D2000030D1000030D000D2178F
:1012A000D3015A290030D3000030D2000030D100E1
:1012B0000030D0005E085D0203185F29602986298E
:1012C0005C1F6329642968298030D4005408DC0637
:1012D0005E08DF005D08DE005F08DD004C08DF000F
:1012E0005008CC005F08D0004D08DF005108CD0049
:1012F0005F08D1004E08DF005208CE005F08D20020
:101300004F08DF005308CF005F08D300DF015D08FE
:10131000D400D5015508D7005E085402D600031C3E
:10132000D7035708803AD80080305802031D9A2905
:101330001A305602031C9D299E29D02940014F08CE
:101340004E044D044C04031DA629A8290130A929E7
:101350000030DF000030CF000030CE000030CD0084
:101360000030CC005D08DE00D7295F1CB829B92900
:10137000BD295F360138DF00BF290310DF0C4C1C8C
:10138000C229C329C429DF170130D400CF37CE0CBE
:10139000CD0CCC0CD40BC6290130D4005408DE0788
:1013A00040015D085E02031CD629D729B5295C1BC4
:1013B000DA29DB29112A5E08031DDF29E029E92942
:1013C0000030CF000030CE000030CD000030CC0027
:1013D0000B2B5008CC075108CD3D5208CE3D530889
:1013E000CF3D4F1CF429F5299D2A5F1CF829F929C6
:1013F000FD295F360138DF00FF290310DF0C4C1C8C
:10140000022A032A042ADF170130D400CF37CE0C7A
:10141000CD0CCC0CD40B062A0130D4005408DE07C6
:101420009D2A4F08803AD4005308803A5402031D85
:10143000232A52084E02031D232A51084D02031D80
:10144000232A50084C020318262A272A5F2AFF3035
:10145000D400FF30D500FF30D600FF30D7004C0855
:101460005002D8004D08513BD9004E08523BDA00DB
:101470004F08533BDB005808D4075908D53D5A089C
:10148000D63D5B08D73D5708CF005608CE0055081B
:10149000CD005408CC008030D4005408DC06DF09AD
:1014A000DF0A5F08031D552A562A672A0130CC0738
:1014B0000030CD3D0030CE3D0030CF3D672A500892
:1014C000CC025108CD3B5208CE3B5308CF3B4F08CE
:1014D0004E044D044C04031D6E2A6F2A992A5F089E
:1014E000031D732A742A992A0030CF000030CE00E1
:1014F0000030CD000030CC000B2B0130CC35CD0DB1
:10150000CE0DCF0D890B7E2ADF1F872A882A892AD4
:101510004C145F1C8C2A8D2A902A0314DF0D922A0A
:101520000310DF0D5E080319962A972A992A0130C5
:10153000DE02CE1F9C2A9D2A7D2ADD01DF1FA12A03
:10154000A22AB02A5F087F390319A72AA82AAB2A42
:10155000DD01DD0AB02A4C1CAE2AAF2AB02AA82A27
:101560005D080319B42AB52AE22A0130CC070030FD
:10157000CD3D0030CE3D0030CF3D4F1CC02AC12AAA
:10158000E22A4C08D4004D08D5004E08D6004F087A
:10159000D7000130D800D737D60CD50CD40CD80BD7
:1015A000CB2A5708CF005608CE005508CD00540866
:1015B000CC005E0A0319DD2ADE2AE22A0130D400BB
:1015C0005408DE075E0A0319E62AE72AEC2A5E08B9
:1015D000031DEB2AEC2AFA2A0030CF000030CE009F
:1015E0000030CD000030CC005E08031DF82AF92A37
:1015F000FA2ADC015E1CFD2AFE2A002BCE17042BE2
:101600007F30D4005408CE055E36CF00DC1F092B96
:101610000A2B0B2BCF170800400135088039BF007B
:101620003535C500B41F152B162B172B451445084F
:1016300003191B2B1C2B2B2B450A031D202B212BA5
:10164000292B0030B5000030B4000030B30000306A
:10165000B200B417332B0030B5000030B4000030B6
:10166000B3000030B20039088039BA003A08BF062A
:101670003935C000B81F3D2B3E2B3F2B401440088E
:101680000319432B442B532B400A031D482B492B92
:10169000512B0030B9000030B8000030B7000030E6
:1016A000B600B8175B2B0030B9000030B80000302E
:1016B000B7000030B600400803195F2B602B652B84
:1016C0004508031D642B652B6E2B0030B5000030E0
:1016D000B4000030B3000030B200462D3208F200F2
:1016E00038089F3109278B3173084001CB007208FD
:1016F000CA004A08BA00BB01BC01BD013D08C400D4
:101700003C08C3003B08C2003A08C1004B08BA00BD
:10171000BB01BC01BD013D08C9003C08C8003B0835
:10172000C7003A08C6003308F20037089F3109277E
:101730008B3173084001CB007208CA004A08BA0016
:10174000BB01BC01BD013A08C1073B08C23D3C08D2
:10175000C33D3D08C43D4B08BA00BB01BC01BD01FF
:101760003A08C6073B08C73D3C08C83D3D08C93D8F
:101770003408F20036089F3109278B317308400185
:10178000CB007208CA004A08BA00BB01BC01BD0107
:101790003A08C1073B08C23D3C08C33D3D08C43D73
:1017A0004B08BA00BB01BC01BD013A08C6073B08A3
:1017B000C73D3C08C83D3D08C93D0830C135C20D94
:1017C000C30DC40D890BDE2B3308F20036089F31A0
:1017D00009278B3173084001CB007208CA004A0800
:1017E000C1074B08C23D0030C33DC43D3208F20082
:1017F00037089F3109278B3173084001CB007208ED
:10180000CA004A08C1074B08C23D0030C33DC43D71
:101810000830C135C20DC30DC40D890B092C320827
:10182000F20036089F3109278B3173084001CB0045
:101830007208CA004A08C1074B08C23D0030C33DC8
:10184000C43D3308F20038089F3109278B317308F3
:101850004001CB007208CA004A08C6074B08C73DC2
:101860000030C83DC93D3408F20037089F310927D0
:101870008B3173084001CB007208CA004A08C607C2
:101880004B08C73D0030C83DC93D3408F200380858
:101890009F3109278B3173084001CB007208CA00C1
:1018A0004A08BA004B08BB00BC01BD010830BA357C
:1018B000BB0DBC0DBD0D890B572C3A08C6073B0864
:1018C000C73D3C08C83D3D08C93D4108BA00420833
:1018D000BB004308BC004408BD001830BD36BC0C3A
:1018E000BB0CBA0C890B6E2C3A08C6073B08C73DE7
:1018F0003C08C83D3D08C93D0830C135C20DC30D87
:10190000C40D890B7D2C45084007BA00BB01BB0DF7
:101910003A08823ECA00FF303B3DCB00A62C013086
:10192000C635C70DC80DC90D890B902CC41F992C45
:101930009A2C9B2C46140130C135C20DC30DC40D29
:10194000890B9C2CFF30CA07FF30CB3DC81FA92C48
:10195000AA2C8F2CC001C41FAE2CAF2CCB2CFF3077
:101960004105BA00FF304205BB00FF304305BC0013
:101970007F304405BD003D083C043B043A04031994
:10198000C22CC32CC62CC001C00ACB2C461CC92CAF
:10199000CA2CCB2CC32C40080319CF2CD02CF82CEC
:1019A0000130C6070030C73D0030C83D0030C93D9A
:1019B000491CDB2CDC2CF82C4608BA004708BB007D
:1019C0004808BC004908BD000130BE00BD37BC0C52
:1019D000BB0CBA0CBE0BE62C3D08C9003C08C80085
:1019E0003B08C7003A08C6000130CA070030CB3DAB
:1019F0004B08803ABA0080303A02031D012DFF30B7
:101A00004A02031C042D052D0F2D7F304001C90013
:101A10008030C8000030C7000030C6003A2D4001B9
:101A20004B08803ABA0080303A02031D192D01306C
:101A30004A0203181C2D1D2D282D00304001C9001D
:101A40000030C8000030C7000030C600BF013A2D8A
:101A500040014A08C500FF30C605FF30C7057F308A
:101A6000C8050030C905451C362D372D382DC8173F
:101A70004536C9003F08BA003A08C9044908B5000C
:101A80004808B4004708B3004608B2000800873190
:101A90005D2F42016D0841016006031D532D420177
:101AA0006C0841015F060319562D572D472D7A0307
:101AB0007B04031D5C2D5E2D80316A289D31192524
:101AC0008D3175084101D2007408D1007308D0002F
:101AD0007208CF0052084001E9004101510840015D
:101AE000E800410150084001E70041014F08400172
:101AF000E6004730CF006A30CE006030CD000030C5
:101B0000CC000030F9000030F8000230F700583007
:101B1000F60041016F08F5006E08F4006D08F3004F
:101B20006C08F2009F3193278D3175084001A700A2
:101B30007408A6007308A5007208A400013094314F
:101B400097248D3140012708D3002608D2002508AC
:101B5000D1002408D000963156268D3140014F081F
:101B6000ED004E08EC004D08EB004C08EA009E31F9
:101B7000A6268D31400169084101EB00400168084B
:101B80004101EA00400167084101E900400166089F
:101B90004101E80042015B084001B90042015A08D6
:101BA0004001B800420159084001B70042015808FD
:101BB0004001B60041016B084001B50041016A08CF
:101BC0004001B400410169084001B30041016808C7
:101BD0004001B2008B310C238D3140013508D30018
:101BE0003408D2003308D1003208D000420157082F
:101BF0004001B900420156084001B80042015508B1
:101C00004001B700420154084001B60041015E089E
:101C10004001B50041015D084001B40041015C088C
:101C20004001B30041015B084001B2008B310C233D
:101C30008D3140013508CF003408CE003308CD0087
:101C40003208CC00893104218D3140014F08410117
:101C5000B20040014E084101B10040014D08410170
:101C6000B00040014C084101AF0052084001ED00B6
:101C7000410151084001EC00410150084001EB00D6
:101C800041014F084001EA00420127084001E900F4
:101C9000420126084001E800420125084001E70012
:101CA000420124084001E6009E31A6268D31400104
:101CB0006908B9006808B8006708B7006608B60088
:101CC000420153084001B500420152084001B400EE
:101CD000420151084001B300420150084001B200E6
:101CE0008B310C238D31400135084101AA004001A0
:101CF00034084101A900400133084101A800400116
:101D000032084101A70032084001ED0041013108CD
:101D10004001EC00410130084001EB0041012F0877
:101D20004001EA0041012A084001E9004101290877
:101D30004001E800410128084001E700410127086F
:101D40004001E6009E31A6268D314001690841011F
:101D5000AE00400168084101AD0040016708410143
:101D6000AC00400166084101AB002E084001CF00E5
:101D700041012D084001CE0041012C084001CD0059
:101D800041012B084001CC0041015A084001D30019
:101D9000410159084001D200410158084001D100D9
:101DA000410157084001D000893104218D314001A3
:101DB0004F084101DA0040014E084101D9004001BD
:101DC0004D084101D80040014C084101D7006B0883
:101DD0004001CF0041016A084001CE00410169087D
:101DE0004001CD00410168084001CC0041015E087E
:101DF0004001D30041015D084001D20041015C086F
:101E00004001D10041015B084001D000893104212B
:101E10008D3140014F084101DE0040014E08410173
:101E2000DD0040014D084101DC0040014C0841014A
:101E3000DB005E084001A70041015D084001A600EB
:101E400041015C084001A50041015B084001A4007C
:101E5000C430AB001630AA000030A9000030A80042
:101E60004430AF001630AE000030AD000030AC00A2
:101E7000903139208D31400127084101DE004001B9
:101E800026084101DD00400125084101DC00400138
:101E900024084101DB0052084201A700410151081A
:101EA0004201A600410150084201A50041014F082E
:101EB0004201A400410152084001B900410151080A
:101EC0004001B800410150084001B70041014F08EE
:101ED0004001B6004730B5006A30B4006030B3004E
:101EE0000030B2008B310C238D3140013508D30016
:101EF0003408D2003308D1003208D0004430CF007B
:101F00001630CE000030CD000030CC009631562681
:101F10008D3140014F08E9004E08E8004D08E70008
:101F20004C08E60092318B228D3141016008A400FB
:101F30005F08A300A335A40D9830A5002D30A6009E
:101F40002308250786002408263D870040016608EF
:101F5000C03F6708C13F4130CF002030CE00003085
:101F6000CD000030CC00420140083C024101A300FA
:101F7000420141083D3B4101A400420142083E3B71
:101F80004101A500420143083F3B4101A60026084C
:101F90004001A700410125084001A6004101240895
:101FA0004001A500410123084001A4000130943103
:101FB00097248D3140012708D3002608D200250838
:101FC000D1002408D000963156268D3140014F08AB
:101FD0004201A30040014E084201A20040014D0809
:101FE0004201A10040014C084201A0003F08C3008B
:101FF0003E08C2003D08C1003C08C0008731052FE3
:10200400F801F9017908803A4001A00081302002EA
:10201400031D0E282C307802031C112812281328C3
:1020240038287908F3007808F2000A30F400003008
:10203400F5009E318726903179084001A100780887
:10204400A000A035A10D4030A2002B30A300200831
:10205400220786002108233D87007208C03F7308C9
:10206400C13F0130F8070030F93D04280800400161
:102074002708F5002608F4002508F3002408F200D8
:102084002B08F9002A08F8002908F7002808F600A8
:102094009331742390310318502851285B28400150
:1020A4002B08A7002A08A6002908A5002808A400D0
:1020B4007D2840012F08F5002E08F4002D08F300B8
:1020C4002C08F2002708F9002608F8002508F70074
:1020D4002408F6009331742390310318722873286E
:1020E4007D2840012F08A7002E08A6002D08A50072
:1020F4002C08A4007D2808009E3132269031E73058
:10210400F2001D30F3009C31E02490310030F200E5
:102114001E30F3009C31E6249031C830F2001C30AC
:10212400F3009C31EC2490318B170B179C31C024A5
:10213400903100304101A000A1009F31C9279031A6
:10214400903102209031EC304001E6005830E70035
:102154005430E8005030E9007A309531422590310E
:102164008731742790318D31472590319C31BD24BE
:10217400903103104001191D03140318C228C52807
:1021840040011915C728400119119331FF239031DB
:10219400A52880312528F9007908031DD228D328E1
:1021A400DD2841016508F9007908031DDA28DB28D8
:1021B400DD2800301D2940012808A1002708A000BF
:1021C40079089F316027903140012008A90029082F
:1021D400F9077908860087010108031DF228F3280E
:1021E400F7284101E50100301D292808A10027082E
:1021F400A00079089F312D27903140012008A900C3
:102204002108AA00790829074101E500650886002C
:102214008701010803190F2910291B296508860065
:102224008701810101304001A90029084101E50726
:102234001C29E50179080800F801F51F2229232942
:102244002A29F409F509F40A0319F50AF801F80A28
:10225400F31F2D292E293329F209F309F20A031950
:10226400F30A720873040319382939296229F7011A
:10227400F70A45290130F235F30D890B3D29013068
:10228400F6007608F707F31F482949293C29730803
:102294007502031D4F2972087402031C5229532925
:1022A40057297208F4027308F53B0130F336F20C37
:1022B400890B58290130F702031D61296229492934
:1022C40078080319662967296C29F409F509F40AC1
:1022D4000319F50A7508F3007408F20008004001B8
:1022E4009A01083099009601970109309800073047
:1022F4009500FF309100FF309200EF309300F030F2
:102304009400F0307E01D9009030CE00FF30C3003D
:102314000730E400FF30B800DA01E501C401B90177
:102324000630CF00E601BA01C501D001DB01FF3060
:10233400BB00FF30C600FF30D100FF30DC000730A7
:10234400E700FF30BC00FF30C700FF30D200FF3091
:10235400DD000F30E800D5105511D4105411D314FA
:1023640053150230F2000030F3009C31E024913127
:102374000330F2000030F3009C31E62491314E0129
:10238400161615307D01CB0010307E01A4000E30EE
:10239400A9000800760877040319D129D229D8297D
:1023A40076087704031DD729D829DD2974089C31C0
:1023B400F22491312A2A7608860077088700493169
:1023C400160001040319E729E829092A760886007A
:1023D400770887004931403F4001A000413FA100F8
:1023E40076088600770887004231403FA200413FCB
:1023F400A3002308803AA4002108803A2402031D84
:10240400052A200822020318082A092A2A2A7608FB
:1024140086007708870042317608840077088500B3
:10242400403F00074001A0000131413F003DA100B1
:102434002008860021088700740881007608860039
:102444007708870042310130810741310318810A3E
:1024540008004001A101F31F302A312A382AF20969
:10246400F309F20A0319F30AA101A10AF51F3B2A91
:102474003C2A452AF409F509F40A0319F50A01303E
:10248400F6007608A106A201A301720873040319D9
:102494004C2A4D2A7C2AA001A00A592A0130F2357F
:1024A400F30D890B512A0130F6007608A007F31FBB
:1024B4005C2A5D2A502A0130A235A30D890B5E2ABD
:1024C40073087502031D682A72087402031C6B2AC0
:1024D4006C2A712A7208F4027308F53B2214013045
:1024E400F336F20C890B722A0130A002031D7B2AF9
:1024F4007C2A5D2A21080319802A812A862AA209B6
:10250400A309A20A0319A30A2308F3002208F2006C
:10251400080003104001680D690DEF006F08031DEA
:10252400942A952A9E2A0030E9000030E800003001
:10253400E7000030E600FB2A6608EA006708EB00C3
:102544006808EC006908ED001F30ED36EC0CEB0C6C
:10255400EA0C890BA72A6A08EE00E817FF30E605A3
:10256400FF30E705FF30E8050030E9059630EF025B
:10257400EF1FBD2ABE2AD62A6F08803A973E031859
:10258400C42AC52AC62A952A0130E936E80CE70C84
:10259400E60C890BC72A0130EA006A08EF07031D1D
:1025A400D42AD52AC62AEB2A20306F02031CDB2A40
:1025B400DC2AE62A952A0130E635E70DE80DE90D17
:1025C400890BDE2A0130EF026F08031DEA2AEB2A89
:1025D400DD2A6E080319EF2AF02AFB2AE609E70927
:1025E400E809E909E60A0319E70A0319E80A0319DD
:1025F400E90A08004001A500A301A401A201062BD9
:102604000130A0002008A507250886008701203096
:10261400010603190E2B0F2B022B250886008701B8
:10262400F7300107A00005302002031C1A2B1B2BD6
:10263400022B2508860087012D300106031D232B5C
:10264400242B2B2BA201A20A0130A0002008A507ED
:10265400522B2508860087012B300106031D332BDE
:10266400342B522B262B2508860087012408F300DF
:102674002308F2000A30F4000030F5009E3187266A
:10268400923173084001A10001087202A000031CEA
:10269400A1032008303EA3000030213DA400262BD6
:1026A400250886008701D0300107A0000A302002E7
:1026B400031C5D2B5E2B352B2208031D622B632B21
:1026C4006F2B2309A0002409A100A00A0319A10A61
:1026D4002008F8002108F900732B2408F9002308C6
:1026E400F8000800003072054001A00000307305B6
:1026F400A10080307405A2007F307505A300230873
:10270400220421042004031D882B892B912B0030E3
:10271400F5000030F4000030F3000030F200003027
:102724007605A00000307705A10080307805A2006E
:102734007F307905A3002308220421042004031D0B
:10274400A42BA52BAD2B0030F9000030F80000308D
:10275400F7000030F600F51FB02BB12BC92B003069
:10276400A0000030A1000030A2008030A300720855
:10277400A0027308A13B7408A23B7508A33B23087D
:10278400F5002208F4002108F3002008F200F91FE4
:10279400CC2BCD2BE52B0030A0000030A100003065
:1027A400A2008030A3007608A0027708A13B780835
:1027B400A23B7908A33B2308F9002208F80021086A
:1027C400F7002008F6008030F5068030F906790815
:1027D4007502031DF72B78087402031DF72B770885
:1027E4007302031DF72B760872020318FA2BFB2BD6
:1027F400FD2B0310FE2B031408004001CB01CC0178
:1028040007307A067B04031D082C092C262C06307D
:102814004001BC00A030BD004C08C4004B08C300FC
:10282400C335C40D9830C5002D30C6004308450794
:1028340086004408463D8700403FBE00413FBF003C
:102844009D3175259331562C00304001BC00A030D9
:10285400BD004C08C4004B08C300C335C40D9830F8
:10286400C5002D30C6004308450786004408463D90
:102874008700403FBE00413FBF004C08C8004B08E2
:10288400C700C735C80D4030C9002B30CA004708FF
:102894004907860048084A3D8700403FC000413F41
:1028A400C1009D317525933140014C08803AC30025
:1028B40081304302031D602C2B304B020318632C20
:1028C400642C732C07307A067B0403196A2C6B2C56
:1028D400732C0A304001BC00A030BD009D31752529
:1028E40093310B304001C3006230890B772CC30B4A
:1028F400772C000001304001CB070030CC3D4C0860
:10290400803AC30081304302031D8A2C2C304B02D1
:10291400031C8D2C8E2C022C08304001BC00A030EE
:10292400BD009D317525933108004001AC002C0891
:1029340003199D2C9E2CB22CA71FA12CA22CB22CC7
:102944002409AE002509AF002609B0002709B1000B
:10295400AE0A0319AF0A0319B00A0319B10ABA2C53
:102964002708B1002608B0002508AF002408AE00EF
:102974002708260425042404031DC12CC22CCB2CB7
:102984000030A7000030A6000030A5000030A400ED
:10299400412D9630AD00D92C0130A8002808AD0790
:1029A4000130B136B00CAF0CAE0C890BD32CFE3019
:1029B4003105031DDE2CDF2CCE2CF32C0130A800B6
:1029C4002808AD070130AE070030AF3D0030B03D00
:1029D4000030B13D0130B136B00CAF0CAE0C890BF8
:1029E400ED2CFF303105031DF82CF92CE02C032DC0
:1029F4000130AD020130AE35AF0DB00DB10D890B14
:102A0400FD2CB01B062D072D0D2D02302D020318B1
:102A14000C2D0D2DFA2C2D18102D112D192DFF30E4
:102A2400AE05FF30AF057F30B005FF30B1050310B0
:102A3400AD0C2D08A800A901AA01AB011830A835D6
:102A4400A90DAA0DAB0D890B212D2808AE04290868
:102A5400AF042A08B0042B08B1042C080319332D41
:102A6400342D392DA71F372D382D392DB1173108A5
:102A7400A7003008A6002F08A5002E08A40008000F
:102A84004101C800CB01CC019C31C3249531003AEB
:102A940003194D2D4E2D462D9D316525953141014E
:102AA400CE000A304E060319582D592D5F2D0D30D6
:102AB4004E06031D5E2D5F2D652D4B08A03E86003E
:102AC40087018101702D4B08A03E860087014E08C6
:102AD40081000130CB070030CC3D462D0A30400147
:102AE400A700A030A800A0309031CD20953141013D
:102AF400CD00C901CA019A2D4D089231FC229531AD
:102B040041014935BE3E860087017808C03F7908F7
:102B1400C13F0A304001A700A030A8000301903152
:102B2400CD2095314101CD000130C9070030CA3DA7
:102B34004D08031D9E2D9F2D7E2D4808860087017C
:102B44003E08C03F3F08C13F40084001EA00410140
:102B540041084001EB000030EB1BFF30EC00ED00BE
:102B64006608860087016A08C03F6B08C13F6C088D
:102B7400C23F6D08C33F4430CF007A30CE000030EE
:102B8400CD000030CC00410142084001A4004101C5
:102B940043084001A500890D893B8909A600A700C7
:102BA400013094319724953140012708D300260839
:102BB400D2002508D1002408D0009631562695313C
:102BC400400167088600013087004C08C03F4D086B
:102BD400C13F4E08C23F4F08C33F4430CF007A3054
:102BE400CE000030CD000030CC004101440840014B
:102BF400A400410145084001A500890D893B8909CC
:102C0400A600A7000130943197249531400127088C
:102C1400D3002608D2002508D1002408D00096311C
:102C240056269531400168088600013087004C081B
:102C3400C03F4D08C13F4E08C23F4F08C33F443018
:102C4400CF007A30CE000030CD000030CC004101FE
:102C540046084001A400410147084001A500890D30
:102C6400893B8909A600A700013094319724953146
:102C740040012708D3002608D2002508D1002408E3
:102C8400D0009631562695314001690886000130FE
:102C940087004C08C03F4D08C13F4E08C23F4F0853
:102CA400C33F4101A0010800400153088039DD0001
:102CB4005335E400D21F5F2E602E612E6414640825
:102CC4000319652E662E762E640A031D6A2E6B2E5A
:102CD400732E0030D3000030D2000030D100003019
:102CE400D000D217D3017E2E0030D3000030D200A2
:102CF4000030D1000030D0004F088039D40054088F
:102D0400DD064F35E500CE1F882E892E8A2E6514E8
:102D1400650803198E2E8F2E9F2E650A031D932E90
:102D2400942E9C2E0030CF000030CE000030CD0019
:102D34000030CC00CE17CF01A72E0030CF000030DA
:102D4400CE000030CD000030CC004F084E044D04BE
:102D54004C04031DAE2EAF2EC82E0030D30000301D
:102D6400D2000030D1000030D0008030D2047F3057
:102D7400D3045D08D4005408D3045308CF00520888
:102D8400CE005108CD005008CC00FF2F6408031D6D
:102D9400CC2ECD2ED62E0030CF000030CE00003009
:102DA400CD000030CC00FF2F6408D400D5015508B5
:102DB400D70065085402D600031CD70356087F3E8B
:102DC400DE000030573DDF005308DC005208DB0012
:102DD4005108DA005008D9000030D3000030D20086
:102DE4000030D1000030D0000030E3000030E200B9
:102DF4000030E1000030E000E5013E2F65080319D2
:102E0400042F052F1F2F0130D935DA0DDB0DDC0D12
:102E1400890B062F0130D035D10DD20DD30D890B7E
:102E24000D2FE31F162F172F182F50140130E035E4
:102E3400E10DE20DE30D890B192F4F085C02031D10
:102E44002D2F4E085B02031D2D2F4D085A02031D22
:102E54002D2F4C085902031C302F312F3A2F6317A2
:102E64004C08D9024D08DA3B4E08DB3B4F08DC3BEB
:102E74000130D4005408E5071A306502031C432FBF
:102E8400442F002F5C085B045A04590403194B2F88
:102E94004C2F652F6014652F0130D035D10DD20D24
:102EA400D30D890B4F2FE31F582F592F5A2F50142E
:102EB4000130E035E10DE20DE30D890B5B2FFF30AE
:102EC400DE07FF30DF3DD21F682F692F4E2FE5014B
:102ED400E31F6D2F6E2F8A2FFF306005D400FF3063
:102EE4006105D500FF306205D6007F306305D70049
:102EF40057085604550454040319812F822F852F33
:102F0400E501E50A8A2F501C882F892F8A2F822FEA
:102F1400650803198E2F8F2FB72F0130D00700308B
:102F2400D13D0030D23D0030D33D531C9A2F9B2F0E
:102F3400B72F5008D4005108D5005208D6005308C2
:102F4400D7000130D800D737D60CD50CD40CD80B09
:102F5400A52F5708D3005608D2005508D1005408AD
:102F6400D0000130DE070030DF3D5F08803AD40036
:102F740080305402031DC02FFF305E02031CC32F98
:102F8400C42FD12FFF304001DE000030DF000030BD
:102F9400D3000030D2000030D1000030D000400116
:102FA4005F08803AD40080305402031DDB2F0130C7
:102FB4005E020318DE2FDF2FEB2F4001DE01DF015D
:102FC4000030D3000030D2000030D1000030D000F7
:102FD400DD0140015E08E400641CF12FF22FF42FA0
:102FE400D217F82F7F30D4005408D2056436D300AA
:0C2FF4005D08D4005408D304BF2E080070
:10397A0044010E10080044010E1408004E010F0EF7
:10398A00890C0139080001304101DF070030E03DB0
:10399A00080073084201E3007208E2000800730895
:1039AA004201E7007208E600080073084201E500D8
:1039BA007208E400080073084201E1007208E0009E
:1039CA00080073084201DF007208DE00080073086D
:1039DA004201DD007208DC000800F30073089D3123
:1039EA0023259C3108005834023400340034013451
:1039FA0000344F0196019701980199019A019B01A0
:103A0A000800603051018D008F019101063093004A
:103A1A009201080042013F08F5003E08F4003D0803
:103A2A00F3003C08F200080042012308F5002208CE
:103A3A00F4002108F3002008F2000800F2004E0109
:103A4A000F1E282D292D242D720842019A000800E4
:103A5A006400800101310130FE020030FF3B7F0823
:103A6A007E04031D2E2D00340130450190008F0184
:103A7A0091013F308D008C014E019010F0304501CC
:103A8A008E00080042016008610403194D2D4E2D75
:103A9A00532D61088A0060080A009D317E01D51005
:103AAA00080042015E085F0403195C2D5D2D622D3A
:103ABA005F088A005E080A009D317E0155110800E0
:103ACA004E018F1E692D6A2D652D4101E7014201C4
:103ADA009D1C702D712D732D1D121D1619080800BD
:103AEA003E304001C2000030B500B6003D08B800C3
:103AFA003C08B7004230B9009E3169269D31080062
:103B0A007E01D51C892D8A2D8D2D9D3147259D310C
:103B1A007E01551D912D922D952D9D3156259D3154
:103B2A00080044010E1D9A2D9B2DA22D0E1071081E
:103B3A008D0070088C000E14A62D71088D00700877
:103B4A008C0008004001A11BAB2DAC2DAD2DB82D6A
:103B5A002009A2002109A300A20A0319A30A220824
:103B6A00A0002308A10008004E01101041016408BA
:103B7A00F1006308F0009D3196259D3142015C08F1
:103B8A005D040319C92DCA2DCF2D5D088A005C0872
:103B9A000A009D3108004401950196010130970001
:103BAA0002309300183092004E011011440113089C
:103BBA004101E200440112084101E10034304401AC
:103BCA009400080040010E1DEB2DEC2DF62D01305E
:103BDA004201BC070030BD3D0030BE3D0030BF3D54
:103BEA00FF2DFF304201BC07FF30BD3DFF30BE3D17
:103BFA00FF30BF3D080040018E18042E052E0F2EFF
:103C0A0001304201BC070030BD3D0030BE3D0030EE
:103C1A00BF3D182EFF304201BC07FF30BD3DFF30CB
:103C2A00BE3DFF30BF3D080040012508A70024081B
:103C3A00A600A736A60CA736A60C260847018D00B3
:103C4A00400124080339A6000530A635FF3E031DAE
:103C5A002A2E263547018C0008009C31FE249E310D
:103C6A00913171219E319D3106259E318831002086
:103C7A009E319D31D0259E319D3139259E319E310F
:103C8A00C6269E319E31E6269E31080072088400BF
:103C9A007308850000087406031D542E552E562EEF
:103CAA00682E7308F7007208F600F20A0319F30A7D
:103CBA0076088400770885001200031D652E662E9B
:103CCA004B2EF201F301080040013808BB00370807
:103CDA00BA007A2E3608A6003508A5003A30A700A1
:103CEA003908A80088310D209E3140013A08840025
:103CFA003B0885001200031D832E842E6F2EB5010A
:103D0A00B6010800F601F701721C8C2E8D2E912E39
:103D1A007408F6077508F73D0130F435F50D890B7F
:103D2A00922E0130F336F20C890B972E7208730427
:103D3A00031DA02EA12E892E7708F3007608F20023
:103D4A00080080304001E9066D08CF006C08CE00FB
:103D5A006B08CD006A08CC006908D3006808D20055
:103D6A006708D1006608D000893104219E314001DC
:103D7A004F08E9004E08E8004D08E7004C08E60045
:103D8A00080044018F0190010130910063308D00D9
:103D9A00C0308C004E01101044010D084101E400AE
:103DAA0044010C084101E3004E011A14FF30F200ED
:103DBA000730F3009C31EC249E31113044018E000F
:103DCA000800083042019F0090309D0024309E0078
:103DDA0040309B0003309C000030F2000030F300BA
:103DEA009C31D4249E310030F2000030F3009C3123
:103DFA00DA249E310030F2000030F3009C31CE24E8
:103E0A009E314101E70108004001A400A001A1017F
:103E1A007208F400F5017408A2007508A300241CB6
:103E2A00172F182F1C2F2208A0072308A13D0130A5
:103E3A00A235A30D890B1D2F0310A40C2408031D02
:103E4A00272F282F142F2108F3002008F20008003A
:103E5A004001A600A401A5013B2F01304001A200A8
:103E6A002208A6070130A4070030A53D26088600CF
:103E7A00870101080319422F432F5A2F2108F30003
:103E8A002008F2002608860087010108A200A30183
:103E9A002208F4002308F5009E314B269F31720850
:103EAA0073040319592F5A2F322F40012508A100F4
:103EBA002408A00008004001A600A401A5016E2F55
:103ECA0001304001A2002208A6070130A4070030F1
:103EDA00A53D26088600870101080319752F762F4C
:103EEA008D2F2108F3002008F2002608860087019A
:103EFA000108A200A3012208F4002308F5009E315C
:103F0A004B269F3172087304031D8C2F8D2F652F4A
:103F1A0040012508A1002408A00008000030400143
:103F2A00A3000030A2000030A1000030A000721CE3
:103F3A009F2FA02FA92F76084001A0077708A13D3F
:103F4A007808A23D7908A33D0130F635F70DF80D42
:103F5A00F90D890BAA2F0130F536F40CF30CF20C8B
:103F6A00890BB12F7508740473047204031DBE2FE4
:103F7A00BF2F9C2F40012308F5002208F4002108D6
:103F8A00F3002008F200080041012108803AA2004B
:103F9A0080302202031DD32F01302002031CD62FAA
:103FAA00D72FE02F40011914991114304101A007AD
:103FBA000030A13DED2F4101A11FE42FE52FED2F88
:103FCA00400119109915EC304101A007FF30A13DBD
:103FDA0021084001A100410120084001A0009D31B3
:103FEA00A7259F3140012108A5002008A4009E3181
:103FFA0019269F310800253469342C342534693454
:0E400A000034253469340A3400342C34003478
:020000040001F9
:0A000E00EC3FFF3F9F3FFF1FFF3F45
:00000001FF
