:1000000080313128080008007E1480314E01161E10
:100010000A280B2813280C1E0E280F2813289631A7
:10002000AE2680312F280B1F162817282F281A1DBF
:100030001A281B282328101D1E281F282328973123
:100040005A2780312F281A1C262827282F28101CD1
:100050002A282B282F289731432780312F287E10DC
:1000600009008031332843019531D7258031EC00D8
:100070009531D8258031ED009531D9258031EE00BC
:100080009531DA258031EF00D03084002C308500A6
:100090002030FE000330FF0096313C2680313E3098
:1000A0008400003085001D30FE000030FF009631D6
:1000B0003C2680314F308400013085001630FE0030
:1000C0000030FF0096313C268031A03084000130A2
:1000D00085004C30FE000030FF0096313C26803118
:1000E0007E1040018C31A52C410131088039BB00C4
:1000F0003135C100B01F7D287E287F28411441087A
:100100000319832884289328410A031D88288928F5
:1001100091280030B1000030B0000030AF00003056
:10012000AE00B0179B280030B1000030B0000030A6
:10013000AF000030AE0035088039B6003608BB0687
:100140003535BC00B41FA528A628A7283C143C08B8
:100150000319AB28AC28BB283C0A031DB028B128E2
:10016000B9280030B5000030B4000030B3000030D2
:10017000B200B417C3280030B5000030B40000301E
:10018000B3000030B2003C080319C728C828CD28A6
:100190004108031DCC28CD28D6280030B1000030FE
:1001A000B0000030AF000030AE00AE2A2E08A00034
:1001B000340888314920803141012108C7002008D6
:1001C000C6004608B600B701B801B9013908C00039
:1001D0003808BF003708BE003608BD004708B60023
:1001E000B701B801B9013908C5003808C40037089B
:1001F000C3003608C2002F08A00033088831492008
:10020000803141012108C7002008C6004608B60019
:10021000B701B801B9013608BD073708BE3D380837
:10022000BF3D3908C03D4708B600B701B801B90164
:100230003608C2073708C33D3808C43D3908C53DF4
:100240003008A0003208883149208031410121085E
:10025000C7002008C6004608B600B701B801B901BA
:100260003608BD073708BE3D3808BF3D3908C03DD8
:100270004708B600B701B801B9013608C207370808
:10028000C33D3808C43D3908C53D0830BD35BE0DF5
:10029000BF0DC00D890B46292F08A00032088831F8
:1002A0004920803141012108C7002008C6004608C6
:1002B000BD074708BE3D0030BF3DC03D2E08A00031
:1002C000330888314920803141012108C7002008C6
:1002D000C6004608BD074708BE3D0030BF3DC03DD3
:1002E0000830BD35BE0DBF0DC00D890B71292E081C
:1002F000A000320888314920803141012108C7001F
:100300002008C6004608BD074708BE3D0030BF3D77
:10031000C03D2F08A00034088831492080314101B8
:100320002108C7002008C6004608C2074708C33D89
:100330000030C43DC53D3008A00033088831492055
:10034000803141012108C7002008C6004608C207C5
:100350004708C33D0030C43DC53D3008A000340807
:1003600088314920803141012108C7002008C6009A
:100370004608B6004708B700B801B9010830B635DD
:10038000B70DB80DB90D890BBF293608C20737085C
:10039000C33D3808C43D3908C53D3D08B6003E0898
:1003A000B7003F08B8004008B9001830B936B80C9B
:1003B000B70CB60C890BD6293608C2073708C33DDF
:1003C0003808C43D3908C53D0830BD35BE0DBF0DE8
:1003D000C00D890BE52941083C07B600B701B70DF0
:1003E0003608823EC600FF30373DC7000E2A013076
:1003F000C235C30DC40DC50D890BF829C01F012AD4
:10040000022A032A42140130BD35BE0DBF0DC00DB6
:10041000890B042AFF30C607FF30C73DC41F112ACD
:10042000122AF729BC01C01F162A172A332AFF30C7
:100430003D05B600FF303E05B700FF303F05B80070
:100440007F304005B90039083804370436040319F1
:100450002A2A2B2A2E2ABC01BC0A332A421C312A02
:10046000322A332A2B2A3C080319372A382A602AD1
:100470000130C2070030C33D0030C43D0030C53DEF
:10048000451C432A442A602A4208B6004308B700A4
:100490004408B8004508B9000130BA00B937B80CB3
:1004A000B70CB60CBA0B4E2A3908C5003808C40080
:1004B0003708C3003608C2000130C6070030C73D08
:1004C0004708803AB60080303602031D692AFF30A3
:1004D0004602031C6C2A6D2A772A7F304101C50031
:1004E0008030C4000030C3000030C200A22A4101A5
:1004F0004708803AB60080303602031D812A013059
:1005000046020318842A852A902A00304101C5003A
:100510000030C4000030C3000030C200BB01A22A7A
:1005200041014608C100FF30C205FF30C3057F30DE
:10053000C4050030C505411C9E2A9F2AA02AC41765
:100540004136C5003B08B6003608C5044508B10071
:100550004408B0004308AF004208AE000800410163
:100560004F088039D9004F35E000CE1FB82AB92A8C
:10057000BA2A601460080319BE2ABF2ACF2A600A6B
:10058000031DC32AC42ACC2A0030CF000030CE007D
:100590000030CD000030CC00CE17CF01D72A00307C
:1005A000CF000030CE000030CD000030CC004B0832
:1005B0008039D0005008D9064B35E100CA1FE12A26
:1005C000E22AE32A611461080319E72AE82AF82AD3
:1005D000610A031DEC2AED2AF52A0030CB00003019
:1005E000CA000030C9000030C800CA17CB01002B78
:1005F0000030CB000030CA000030C9000030C80015
:100600004B084A0449044804031D072B082B212BDF
:100610000030CF000030CE000030CD000030CC00E4
:100620008030CE047F30CF045908D0005008CF046A
:100630004F08CB004E08CA004D08C9004C08C8003E
:10064000582C6008031D252B262B2F2B0030CB00A8
:100650000030CA000030C9000030C800582C6008C3
:10066000D000D1015108D30061085002D200031C10
:10067000D30352087F3EDA000030533DDB004F08C1
:10068000D8004E08D7004D08D6004C08D5000030E1
:10069000CF000030CE000030CD000030CC00003064
:1006A000DF000030DE000030DD000030DC00E10162
:1006B000972B610803195D2B5E2B782B0130D53504
:1006C000D60DD70DD80D890B5F2B0130CC35CD0D54
:1006D000CE0DCF0D890B662BDF1F6F2B702B712B6F
:1006E0004C140130DC35DD0DDE0DDF0D890B722B76
:1006F0004B085802031D862B4A085702031D862B00
:1007000049085602031D862B48085502031C892BF5
:100710008A2B932B5F174808D5024908D63B4A0815
:10072000D73B4B08D83B0130D0005008E1071A30C6
:100730006102031C9C2B9D2B592B5808570456040F
:1007400055040319A42BA52BBE2B5C14BE2B013022
:10075000CC35CD0DCE0DCF0D890BA82BDF1FB12BC6
:10076000B22BB32B4C140130DC35DD0DDE0DDF0D6B
:10077000890BB42BFF30DA07FF30DB3DCE1FC12BD6
:10078000C22BA72BE101DF1FC62BC72BE32BFF30AA
:100790005C05D000FF305D05D100FF305E05D20062
:1007A0007F305F05D30053085204510450040319ED
:1007B000DA2BDB2BDE2BE101E10AE32B4C1CE12BD6
:1007C000E22BE32BDB2B61080319E72BE82B102C22
:1007D0000130CC070030CD3D0030CE3D0030CF3D64
:1007E0004F1CF32BF42B102C4C08D0004D08D100DB
:1007F0004E08D2004F08D3000130D400D337D20CBA
:10080000D10CD00CD40BFE2B5308CF005208CE00D5
:100810005108CD005008CC000130DA070030DB3D34
:100820005B08803AD00080305002031D192CFF3045
:100830005A02031C1C2C1D2C2A2CFF304101DA000B
:100840000030DB000030CF000030CE000030CD00A3
:100850000030CC0041015B08803AD000803050026B
:10086000031D342C01305A020318372C382C442C29
:100870004101DA01DB010030CF000030CE00003052
:10088000CD000030CC00D90141015A08E000601CC5
:100890004A2C4B2C4D2CCE17512C7F30D0005008B9
:1008A000CE056036CF005908D0005008CF04182B71
:1008B0000800400127088039B1002735B800A61F7D
:1008C000622C632C642C381438080319682C692CAA
:1008D000792C380A031D6D2C6E2C762C0030A70065
:1008E0000030A6000030A5000030A400A617A70124
:1008F000812C0030A7000030A6000030A500003099
:10090000A40023088039A8002808B1062335B900BF
:10091000A21F8B2C8C2C8D2C391439080319912C87
:10092000922CA22C390A031D962C972C9F2C003058
:10093000A3000030A2000030A1000030A000A217E8
:10094000A301AA2C0030A3000030A2000030A100B7
:100950000030A0002308220421042004031DB12C30
:10096000B22CCB2C0030A7000030A6000030A50030
:100970000030A4008030A6047F30A7043108A8000E
:100980002808A7042708A3002608A2002508A1001C
:100990002408A000022E3808031DCF2CD02CD92CFF
:1009A0000030A3000030A2000030A1000030A00001
:1009B000022E3808A800A9012908AB00390828022E
:1009C000AA00031CAB032A087F3EB20000302B3D77
:1009D000B3002708B0002608AF002508AE002408A1
:1009E000AD000030A7000030A6000030A5000030A8
:1009F000A4000030B7000030B6000030B500003071
:100A0000B400B901412D39080319072D082D222DF5
:100A10000130AD35AE0DAF0DB00D890B092D013094
:100A2000A435A50DA60DA70D890B102DB71F192DE7
:100A30001A2D1B2D24140130B435B50DB60DB70D8C
:100A4000890B1C2D23083002031D302D22082F0294
:100A5000031D302D21082E02031D302D20082D02EC
:100A6000031C332D342D3D2D37172008AD022108EE
:100A7000AE3B2208AF3B2308B03B0130A80028085A
:100A8000B9071A303902031C462D472D032D3008B3
:100A90002F042E042D0403194E2D4F2D682D3414D0
:100AA000682D0130A435A50DA60DA70D890B522D7B
:100AB000B71F5B2D5C2D5D2D24140130B435B50DB1
:100AC000B60DB70D890B5E2DFF30B207FF30B33D79
:100AD000A61F6B2D6C2D512DB901B71F702D712DD7
:100AE0008D2DFF303405A800FF303505A900FF30FB
:100AF0003605AA007F303705AB002B082A042904ED
:100B000028040319842D852D882DB901B90A8D2D4E
:100B1000241C8B2D8C2D8D2D852D39080319912D9D
:100B2000922DBA2D0130A4070030A53D0030A63D1E
:100B30000030A73D271C9D2D9E2DBA2D2408A8000E
:100B40002508A9002608AA002708AB000130AC0040
:100B5000AB37AA0CA90CA80CAC0BA82D2B08A7002E
:100B60002A08A6002908A5002808A4000130B20719
:100B70000030B33D3308803AA80080302802031DBE
:100B8000C32DFF303202031CC62DC72DD42DFF30DC
:100B90004001B2000030B3000030A7000030A600D2
:100BA0000030A5000030A40040013308803AA800BE
:100BB00080302802031DDE2D013032020318E12DA2
:100BC000E22DEE2D4001B201B3010030A70000304C
:100BD000A6000030A5000030A400B1014001320899
:100BE000B800381CF42DF52DF72DA617FB2D7F30FE
:100BF000A8002808A6053836A7003108A80028084C
:100C0000A704C22C080000304001C1000030C00021
:100C10000030BF000030BE0000304201DE00003076
:100C2000DD000030DC000030DB004001C801C901FC
:100C300000304201D2000030D1000030D00000303E
:100C4000CF000F2F420120032104031D282E292E3F
:100C50008F2E9631F2268631410123084201D600BB
:100C6000410122084201D500410121084201D4007E
:100C7000410120084201D30056084101B50042015C
:100C800055084101B400420154084101B30042013A
:100C900053084101B2004730B1006A30B000603003
:100CA000AF000030AE008031742086314101310840
:100CB000CF003008CE002F08CD002E08CC004430E5
:100CC000CB001630CA000030C9000030C8008231A5
:100CD000AF22863141014B08E5004A08E40049088B
:100CE000E3004808E2008B31422386314001490885
:100CF0004101ED00400148084101EC00EC35ED0DEB
:100D00006030EE002E30EF006C086E0786006D0834
:100D10006F3D87006208C03F6308C13F012F9631D5
:100D2000E1268631410123084201DA00410122080F
:100D30004201D900410121084201D80041012008A7
:100D40004201D7005A084101A3004201590841015C
:100D5000A200420158084101A10042015708410187
:100D6000A000013087312027863141012308B500DA
:100D70002208B4002108B3002008B2004330B100BB
:100D8000B430B0000030AF000030AE0080317420CD
:100D9000863141013108CF003008CE002F08CD0048
:100DA0002E08CC004430CB001630CA000030C900F9
:100DB0000030C8008231AF22863141014B08E50086
:100DC0004A08E4004908E3004808E2008B31422366
:100DD0008631400149084101ED00400148084101C8
:100DE000EC00EC35ED0D6030EE002E30EF006C08BD
:100DF0006E0786006D086F3D87006208C03F63087C
:100E0000C13F01304001C8070030C93D1A304101DF
:100E1000EC00F830890B0A2FEC0B0A2F0000400180
:100E20004908803A4101EC0080306C02031D1B2F01
:100E3000C83040014802031C1E2F1F2F222E08001D
:100E40004101A80028080319262F272F3B2FA31F95
:100E50002A2F2B2F3B2F2009AA002109AB002209A2
:100E6000AC002309AD00AA0A0319AB0A0319AC0AA6
:100E70000319AD0A432F2308AD002208AC00210856
:100E8000AB002008AA002308220421042004031D2B
:100E90004A2F4B2F542F0030A3000030A200003007
:100EA000A1000030A000CA2F9630A900622F0130A7
:100EB000A4002408A9070130AD36AC0CAB0CAA0C79
:100EC000890B5C2FFE302D05031D672F682F572FD0
:100ED0007C2F0130A4002408A9070130AA070030A4
:100EE000AB3D0030AC3D0030AD3D0130AD36AC0C1B
:100EF000AB0CAA0C890B762FFF302D05031D812F1B
:100F0000822F692F8C2F0130A9020130AA35AB0D39
:100F1000AC0DAD0D890B862FAC1B8F2F902F962F0C
:100F2000023029020318952F962F832F2918992F05
:100F30009A2FA22FFF30AA05FF30AB057F30AC05FA
:100F4000FF30AD050310A90C2908A400A501A601D6
:100F5000A7011830A435A50DA60DA70D890BAA2F42
:100F60002408AA042508AB042608AC042708AD040D
:100F700028080319BC2FBD2FC22FA31FC02FC12FBC
:100F8000C22FAD172D08A3002C08A2002B08A1002A
:100F90002A08A00008004101AD00AB01AC01D82F28
:100FA0000130A9002908AD070130AB070030AC3D86
:100FB0002D0886000130870001080319E02FE12F7A
:100FC000FA2F2808A1002708A0002D08860001306C
:100FD00087000108A900AA012908A2002A08A30085
:100FE0009731C1278731410120082104031DF92FC2
:100FF000FA2FD02F2C08A8002B08A7000800080003
:101000004101A100210896313026883108004401B1
:101010008F01900101309100B1308D00E0308C00E3
:101020004E01101044010D084001C70044010C0896
:101030004001C6004E011A1403304101A0000030E7
:10104000A10096311E268831013044018E0008002F
:1010500044019501960101309700B1309300E030D2
:1010600092004E011011440113084001C5004401D3
:1010700012084001C4004E011A15FF304101A000C2
:101080000730A100963127268831013044019400B1
:1010900008004101A800A401A5012008A200A301A5
:1010A0002208A6002308A700281C572858285C28D7
:1010B0002608A4072708A53D0130A635A70D890BF2
:1010C0005D280310A80C2808031D672868285428E9
:1010D0002508A1002408A0000800083042019F0054
:1010E00090309D0024309E00CF309B009C0100304A
:1010F0004101A0000030A1009531F1258831003078
:101100004101A0000030A1009531FA25883100305E
:101110004101A0000030A1009531E825883140014F
:10112000CC01080041013008803AB1008030310222
:10113000031D9C2801302F02031C9F28A028A428EF
:10114000400119149811AC284101B01FA828A92802
:10115000AC2840011910981541013008A8002F084B
:10116000A70097310327883141012808AC002708E0
:10117000AB0097318A27883108004101AD00AB01EF
:10118000AC01CA280130A9002908AD070130AB071E
:101190000030AC3D2D08860001308700010803199E
:1011A000D228D328EC282808A1002708A0002D0861
:1011B0008600013087000108A900AA012908A200C1
:1011C0002A08A3009731C127883141012008210452
:1011D0000319EB28EC28C2282C08A8002B08A7002C
:1011E00008004101AA01AB012B08803AA60080301B
:1011F0002602031DFD28C8302A02031C00290129EC
:101200000229282941012B08A1002A08A0000A3040
:10121000A2000030A3009731E027883141012B085C
:10122000A7002A08A600A635A70DD030A8002C30AC
:10123000A9002608280786002708293D87002008DE
:10124000C03F2108C13F0130AA070030AB3DF42860
:1012500008004101A601A31F2E292F293629A20922
:10126000A309A20A0319A30AA601A60AA11F3929E4
:101270003A293F29A009A109A00A0319A10A2008B7
:1012800021040319442945296E29A501A50A5129DC
:101290000130A035A10D890B49290130A400240893
:1012A000A507A11F54295529482921082302031DF8
:1012B0005B2920082202031C5E295F29632920087C
:1012C000A2022108A33B0130A136A00C890B64299E
:1012D0000130A502031D6D296E2955292608031921
:1012E000722973297829A209A309A20A0319A30A5A
:1012F0002308A1002208A000080041304001A300FB
:101300002030A2000030A1000030A00042015B08A4
:1013100040013E02BA0042015C0840013F3BBB0075
:1013200042015D084001403BBC0042015E084001B3
:10133000413BBD003D08F3003C08F2003B08F100D2
:101340003A08F00001308D314B2589317308400196
:10135000A7007208A6007108A5007008A4008431D7
:1013600059248931400123084201D200400122085A
:101370004201D100400121084201D0004001200873
:101380004201CF00400141084201DE004001400817
:101390004201DD0040013F084201DC0040013E08FF
:1013A0004201DB0008004101B2003208031DD929C7
:1013B000DA29E52940014A084101B2003208031D3B
:1013C000E229E329E5290030282A2F08A8002E0861
:1013D000A70032088731CB27893141012708B000A7
:1013E0003008B20732088600013087000108031D6B
:1013F000FA29FB29FF294001CA010030282A2F08B9
:10140000A8002E08A70032088831BD20893141018B
:101410002708B0002808B100320830074001CA0090
:101420004A0886000130870001080319182A192A82
:10143000252A4A08860001308700810101304101D8
:10144000B00030084001CA07262ACA01410132080B
:10145000080040019A01990196019701980107300F
:101460009500FF309100FF309200E7309300F83094
:101470009400F8307E01D9009130CE00FF30C300D7
:101480000730E400FF30B800DA01E501C401B9011A
:10149000CF01E601BA01C501D001DB01FF30BB007D
:1014A000FF30C600FF30D100FF30DC000730E7001E
:1014B000FF30BC00FF30C700FF30D200FF30DD003E
:1014C0000F30E800D5105511D4105411D314531512
:1014D000CA304101A0001530A10096310C268A3196
:1014E00002304101A0000030A100963115268A315A
:1014F0004E01161615307D01CB0010307E01A40080
:101500000E30A90008004101240825040319892A86
:101510008A2A902A24082504031D8F2A902A952AB6
:101520002208883100208A31E12A24088600250813
:10153000870049311600010403199F2AA02AC02AF6
:1015400024088600250887004931403FA600413F16
:10155000A70024088600250887004231403FA800E4
:10156000413FA9002908803AAA002708803A2A02A8
:10157000031DBC2A260828020318BF2AC02AE12A14
:101580004101240886002508870042312408840090
:1015900025088500403F0007A6000131413F003D7E
:1015A000A700260886002708870022088100240853
:1015B0008600250887004231013081074131031838
:1015C000810A08004101A601A11FE72AE82AEF2AA3
:1015D000A009A109A00A0319A10AA601A60AA31F2E
:1015E000F22AF32AFC2AA209A309A20A0319A30AD0
:1015F0000130A4002408A606A701A80120082104A0
:101600000319032B042B332BA501A50A102B013042
:10161000A035A10D890B082B0130A4002408A507D3
:10162000A11F132B142B072B0130A735A80D890BF5
:10163000152B21082302031D1F2B20082202031C47
:10164000222B232B282B2008A2022108A33B27149E
:101650000130A136A00C890B292B0130A502031DF6
:10166000322B332B142B26080319372B382B3D2B09
:10167000A709A809A70A0319A80A2808A10027088A
:10168000A000080003104101640D650DEB006B081C
:10169000031D4B2B4C2B552B0030E5000030E40094
:1016A0000030E3000030E200B22B6208E60063087D
:1016B000E7006408E8006508E9001F30E936E80C37
:1016C000E70CE60C890B5E2B6608EA00E417FF3096
:1016D000E205FF30E305FF30E4050030E505963014
:1016E000EB02EB1F742B752B8D2B6B08803A973E0A
:1016F00003187B2B7C2B7D2B4C2B0130E536E40C27
:10170000E30CE20C890B7E2B0130E6006608EB0748
:10171000031D8B2B8C2B7D2BA22B20306B02031CEB
:10172000922B932B9D2B4C2B0130E235E30DE40DD6
:10173000E50D890B952B0130EB026B08031DA12BE6
:10174000A22B942B6A080319A62BA72BB22BE20914
:10175000E309E409E509E20A0319E30A0319E40AC3
:101760000319E50A08004101CC01CD010030410117
:10177000C3009830C4004D08C9004C08C800C835E3
:10178000C90D6030CA002E30CB0048084A078600D9
:1017900049084B3D8700403FC500413FC600963198
:1017A0009E268B3105304101C3009830C40096312C
:1017B0009E268B3100304101C3009830C4004D0893
:1017C000C9004C08C800C835C90DD030CA002C303B
:1017D000CB0048084A07860049084B3D8700403F38
:1017E000C500413FC60096319E268B3141014D0810
:1017F000803AC80080304802031D002CC7304C02DC
:101800000318032C042C0C2C05304101C300983024
:10181000C40096319E268B3101304101CC07003047
:10182000CD3D4D08803AC80080304802031D1A2C77
:10183000C8304C02031C1D2C1E2CB62B033041015A
:10184000C3009830C40096319E268B3108004101B8
:10185000AD00AB01AC01AA01312C0130A800280871
:10186000AD072D08860001308700203001060319DE
:101870003A2C3B2C2D2C2D08860001308700F730A8
:101880000107A80005302802031C472C482C2D2CEA
:101890002D088600013087002D300106031D512CD4
:1018A000522C592CAA01AA0A0130A8002808AD0719
:1018B000822C2D088600013087002B300106031D85
:1018C000622C632C822C542C2D088600013087005A
:1018D0002C08A1002B08A0000A30A2000030A300B1
:1018E0009731E0278C3141012108A900010820022D
:1018F000A800031CA9032808303EAB000030293D96
:10190000AC00542C2D08860001308700D030010730
:10191000A8000A302802031C8E2C8F2C642C2A0865
:10192000031D932C942CA02C2B09A8002C09A90092
:10193000A80A0319A90A2808A6002908A700A42CA8
:101940002C08A7002B08A6000800973171278C31BE
:1019500015304101A0001730A10096310C268C31C2
:101960002C304101A0001730A100963115268C3192
:1019700048304101A0001630A10096311E268C315E
:101980007D304101A0000930A100963127268C311D
:101990008B170B179531CE258C319531D4258C3191
:1019A00000304101AF00B000883192208C31883185
:1019B000F1208C3155304101E2005130E3004D30CF
:1019C000E4006130E50059308E31EB268C319531E1
:1019D000CB258C319531D1258C3164304101AF005C
:1019E0000030B000883192208C3140015A08420109
:1019F000A100400159084201A000400158084201DD
:101A0000A500400157084201A400400156084201C8
:101A1000A300400155084201A200400154084201C0
:101A2000A900400153084201A800400152084201A8
:101A3000A700400151084201A600400150084201A0
:101A4000AD0040014F084201AC0040014E08420188
:101A5000AB0040014D084201AA006408B1006308D0
:101A6000B0006208AF006108AE00863103268C31F9
:101A70009531CE258C319531D4258C310030410102
:101A8000AF00B000883192208C318B31B3238C3180
:101A9000DA2C80313128F80078080319502D512DA7
:101AA000652DF31F542D552D652D7009FA00710910
:101AB000FB007209FC007309FD00FA0A0319FB0A16
:101AC0000319FC0A0319FD0A6D2D7308FD00720845
:101AD000FC007108FB007008FA00730872047104BE
:101AE0007004031D742D752D7E2D0030F300003021
:101AF000F2000030F1000030F000F42D9630F900D3
:101B00008C2D0130F4007408F9070130FD36FC0C0F
:101B1000FB0CFA0C890B862DFE307D05031D912DE3
:101B2000922D812DA62D0130F4007408F9070130A3
:101B3000FA070030FB3D0030FC3D0030FD3D013038
:101B4000FD36FC0CFB0CFA0C890BA02DFF307D053B
:101B5000031DAB2DAC2D932DB62D0130F9020130B4
:101B6000FA35FB0DFC0DFD0D890BB02DFC1BB92DBD
:101B7000BA2DC02D023079020318BF2DC02DAD2D16
:101B80007918C32DC42DCC2DFF30FA05FF30FB058D
:101B90007F30FC05FF30FD050310F90C7908F400D7
:101BA000F501F601F7011830F435F50DF60DF70DD6
:101BB000890BD42D7408FA047508FB047608FC041C
:101BC0007708FD0478080319E62DE72DEC2DF31FA7
:101BD000EA2DEB2DEC2DFD177D08F3007C08F200BB
:101BE0007B08F1007A08F000080041012D0886000A
:101BF0008701403FAF00413FB0002F08840030080C
:101C000085001200253A031D062E072ED02E2D0822
:101C1000860087010130810741310318810A4201A2
:101C2000DF01E00103100030031801304001CB0058
:101C3000FF30C200FF30C30041012D08860087013C
:101C4000403FB400413FB5003408840035088500AA
:101C50001200643A03192D2E2E2E382E34088400DB
:101C6000350885001200693A031D372E382EC62E1E
:101C70002E08860087010108840085010230810753
:101C8000003FB600013FB7003408013EAF0000300E
:101C9000353DB0002D08860087012F08C03F300871
:101CA000C13F2030BA00B71B562E582E0130592E96
:101CB0000030B3000130BA023A08A03E860001307D
:101CC00087000A30A0000030A1003708A3003608C2
:101CD000A200893129218D3141012108A800200865
:101CE000A700973103278D3141012708303E81003D
:101CF0000A30A0000030A1003708A3003608A20077
:101D00008A31E2228D3141012108B7002008B60056
:101D10003608370403198D2E8E2E932E3A08031D94
:101D2000922E932E5A2E3A080319972E982EBF2ED4
:101D3000330803199C2E9D2EBF2E0130BA023A089B
:101D4000A03E8600013087002D308100BF2E3A086A
:101D5000A03E8600013087000108AF00B0012F08C7
:101D6000A2003008A3002C08A5002B08A4008A318B
:101D700083228D3101304101AF002F08BA07203096
:101D80003A06031DC42EC52EA72EEA2E41012D08AA
:101D9000860087010130810741310318810AEA2E4C
:101DA0002D0886008701403FAF00413FB0002F085B
:101DB0008400300885000008B100B2013108A2009B
:101DC0003208A3002C08A5002B08A4008A31832226
:101DD0008D31C62E08004201C800CB01CC019531DF
:101DE000DB258E31003A0319F62EF72EEF2E9631B1
:101DF0008E268E314201CE000A304E060319012F85
:101E0000022F082F0D304E06031D072F082F0F2F0E
:101E10004B08203E86000130870081011B2F4B08B4
:101E2000203E8600013087004E0881000130CB073C
:101E30000030CC3DEF2E05304101AE009830AF00B0
:101E400020308931D3218E314201CD00C901CA0130
:101E5000462F4D088C3127248E31420149353E3EB4
:101E600086000130870041012608C03F2708C13F96
:101E70000530AE009830AF0003018931D3218E3197
:101E80004201CD000130C9070030CA3D4D08031D95
:101E90004A2F4B2F292F4808860087013E08C03F54
:101EA0003F08C13F40084101E600420141084101AD
:101EB000E7000030E71BFF30E800E9006208860019
:101EC00087016608C03F6708C13F6808C23F6908CC
:101ED000C33F4430CB007A30CA000030C900003024
:101EE000C800420142084101A000420143084101EB
:101EF000A100890D893B8909A200A3000130873127
:101F000020278E3141012308CF002208CE0021086E
:101F1000CD002008CC008231AF228E314101630810
:101F2000860087014808C03F4908C13F4A08C23FB0
:101F30004B08C33F4430CB007A30CA000030C900A0
:101F40000030C800420144084101A0004201450898
:101F50004101A100890D893B8909A200A30001303C
:101F6000873120278E3141012308CF002208CE007F
:101F70002108CD002008CC008231AF228E314101F2
:101F80006408860087014808C03F4908C13F4A08E5
:101F9000C23F4B08C33F4430CB007A30CA00003008
:101FA000C9000030C800420146084101A0004201BA
:101FB00047084101A100890D893B8909A200A300BE
:101FC0000130873120278E3141012308CF002208BC
:101FD000CE002108CD002008CC008231AF228E3106
:101FE000410165088600013087004808C03F490864
:101FF000C13F4A08C23F4B08C33F4201A00108004D
:102B9400080044010E14080044010E10080044010A
:102BA400141408004401141008005834023400348A
:102BB40000344E010F0E890C013908004F019601B3
:102BC4009701980199019A019B010800410121088C
:102BD4004401A100410120084401A0000800410172
:102BE40021084201EE00410120084201ED000800E5
:102BF400410121084401A300410120084401A2002D
:102C04000800623051018D008F019101063093005C
:102C140092010800410121084201EC004101200811
:102C24004201EB000800410121084201EA00410190
:102C340020084201E9000800410121084201E8009E
:102C4400410120084201E700080041012108420136
:102C5400E600410120084201E50008004101A0000E
:102C64004E010F1E362E372E322E4101200842010E
:102C74009A0008006400800101310130FE02003036
:102C8400FF3B7F087E04031D3D2E003403104001EA
:102C9400191D031403184F2E522E40011915542EDA
:102CA400400119110800803047018E001F308D004B
:102CB400C0308C0044011F08F33904389F00080019
:102CC4000130450190008F0191013F308D008C014E
:102CD4004E019010F03045018E00080042016B084F
:102CE4006C040319762E772E7C2E6C088A006B08F0
:102CF4000A0096317E01D5100800420169086A0471
:102D04000319852E862E8B2E6A088A0069080A000C
:102D140096317E01551108004E018F1E922E932E7E
:102D24008E2E4001CC0142019D1C992E9A2E9C2E80
:102D34001D121D1619080800C5304101C7000030D6
:102D4400BB00BC004408BE004308BD00C730BF0040
:102D54009731A327963108007E01D51CB22EB32EDD
:102D6400B62E9631702696317E01551DBA2EBB2E95
:102D7400BE2E96317F269631080044010E1DC32EC7
:102D8400C42ECB2E0E1071088D0070088C000E140A
:102D9400CF2E71088D0070088C0008004401141DAA
:102DA400D42ED52EDC2E14107108930070089200D6
:102DB4001414E02E7108930070089200080040017A
:102DC40041084101A300400140084101A200400123
:102DD4003F084101A10040013E084101A000080054
:102DE400420152084101A300420151084101A200DD
:102DF400420150084101A10042014F084101A000D5
:102E040008004101A81B072F082F092F142F270999
:102E1400A9002809AA00A90A0319AA0A2908A700CF
:102E24002A08A800080040010E1D192F1A2F232F6D
:102E34000130BE070030BF3D0030C03D0030C13D11
:102E44002B2FFF30BE07FF30BF3DFF30C03DFF30AA
:102E5400C13D080040018E18302F312F3A2F013028
:102E6400BE070030BF3D0030C03D0030C13D422FA1
:102E7400FF30BE07FF30BF3DFF30C03DFF30C13DD6
:102E840008004E01101040014708F1004608F00008
:102E94009631BF2697314201670868040319532FFE
:102EA400542F592F68088A0067080A0097310800D0
:102EB4004E01101140014508F1004408F00096311C
:102EC400D026973142016508660403196A2F6B2FD7
:102ED400702F66088A0065080A009731080095314A
:102EE400E02597318A31292297319631032697318B
:102EF40096315526973188312820973196316226AC
:102F0400973188310720973188316D209731080037
:102F140041012C08AE002B08AD00AE36AD0CAE3628
:102F2400AD0C2D0847018D0041012B080339AD007C
:102F34000530AD35FF3E031D9B2F2D3547018C0019
:102F4400080041013E08C2003D08C100B42F3C08FE
:102F5400AC003B08AB00C130AD003F08AE008D3182
:102F6400F52597314101410884004208850012008B
:102F7400031DBD2FBE2FA92FBB01BC0108004101B9
:102F8400200884002108850000082206031DCB2F99
:102F9400CC2FCD2FDF2F2108A5002008A400A00AE4
:102FA4000319A10A24088400250885001200031DC2
:102FB400DC2FDD2FC12FA001A10108004101A401D4
:102FC400A501201CE62FE72FEB2F2208A4072308D6
:102FD400A53D0130A235A30D890BEC2F0130A1369C
:102FE400A00C890BF12F20082104031DFA2FFB2FBD
:102FF400E32F2508A1002408A00008002534693423
:0A30040000340A3400342C34003488
:020000040001F9
:0A000E00EC3FFF3F9F3FFF1FFF3F45
:00000001FF
