:04000000803114280F
:100008007E1480314E01161E0A280B2812280C1E59
:100018000E280F2812288431A52480317E1009006B
:100028008031162885314A258031DE0085314B25FF
:100038008031DF0085314C258031E00085314D2548
:100048008031E100D03084002C3085002030FE0063
:100058000330FF008431FF2480313D3084000030BC
:1000680085001730FE000030FF008431FF24803106
:10007800A0308400003085002030FE000030FF00F2
:100088008431FF2480317E1040018331822B40016E
:10009800220886008701403FA400413FA5002408AC
:1000A8008400250885001200253A031D5C285D2878
:1000B800AC292208860087010130810741310318E5
:1000C800810ACD01CE010310003003180130D2009F
:1000D800FF30CF00FF30D000220886008701403F64
:1000E800A900413FAA00290884002A0885001200B7
:1000F800643A0319802881288B28290884002A0853
:1001080085001200693A031D8A288B2815292308BF
:100118008600870101088400850102308107003FBD
:10012800AC00013FAD002908013EA40000302A3D83
:10013800A5002208860087012408C03F2508C13F82
:100148002030B000AD1BA928AB280130AC28003006
:10015800AB000130B0023008A03E860087010A30AB
:10016800F0000030F1002D08F3002C08F200833174
:100178002F2380317108F8007008F7008431942427
:1001880080317708303E81000A30F0000030F100FD
:1001980040012D08F3002C08F2008131C72180317D
:1001A80071084001AD007008AC002C082D0403193B
:1001B800DE28DF28E4283008031DE328E428AD28DA
:1001C80030080319E828E9280E292B080319ED2817
:1001D800EE280E290130B0023008A03E86008701C3
:1001E8002D3081000E293008A03E860087010108C5
:1001F800A400A5012408F2002508F3002108F50051
:100208002008F40082312622803101304001A40008
:100218002408B00720303006031D13291429F728B5
:10022800C629AB01220886008701403FA400413F50
:10023800A50024088400250885001200733A031DD0
:1002480026292729322922088600870101308107BB
:1002580041310318810AAB01AB0A742922088600D0
:100268008701403FA400413FA500240884002508D9
:10027800850012006C3A031D42294329742922087B
:1002880086008701403FA400413FA50001302407B4
:10029800840025080318250A850012006C3A031DFE
:1002A800562957297429220886008701403FA4004F
:1002B800413FA50002302407840025080318250AB9
:1002C80085001200733A031D6A296B2974292208D4
:1002D800860087010330810741310318810A2F29DD
:1002E8002B08031978297929A22923088600870170
:1002F800403F84008501810A0008A8009929280840
:10030800860087010108A400A5012408F200250839
:10031800F3002108F5002008F400823126228031FC
:1003280001304001A4002408A80728088600870196
:100338000108031DA029A1298329C62940012208F3
:10034800860087010130810741310318810AC629D7
:10035800220886008701403FA400413FA5002408E9
:100368008400250885000008A600A7012608F200D9
:100378002708F3002108F5002008F400823126221E
:100388008031A2290800F601F11FCB29CC29D329F5
:10039800F009F109F00A0319F10AF601F60AF31F48
:1003A800D629D729E029F209F309F20A0319F30A31
:1003B8000130F4007408F606F701F80170087104BA
:1003C8000319E729E829172AF501F50AF429013064
:1003D800F035F10D890BEC290130F4007408F507AC
:1003E800F11FF729F829EB290130F735F80D890BAA
:1003F800F92971087302031D032A70087202031C8D
:10040800062A072A0C2A7008F2027108F33B7714AF
:100418000130F136F00C890B0D2A0130F502031D6D
:10042800162A172AF829760803191B2A1C2A212AB2
:10043800F709F809F70A0319F80A7808F1007708A4
:10044800F00008007408750403192B2A2C2A322A94
:1004580074087504031D312A322A372A7208853137
:1004680026258231822A740886007508870049315A
:10047800160001040319412A422A622A74088600D8
:10048800750887004931403FF600413FF70074087E
:100498008600750887004231403FF800413FF90067
:1004A8007908803AFA007708803A7A02031D5E2AB2
:1004B800760878020318612A622A822A740886005C
:1004C8007508870042317408840075088500403F2C
:1004D8000007F6000131413F003DF700760886002D
:1004E80077088700720881007408860075088700FD
:1004F80042310130810741310318810A0800400167
:100508009A01990196019701980107309500FF30EB
:100518009100FF309200E7309300FC309400FC30EB
:100528007E01D9009130CE00FF30C3000730E400CF
:10053800FF30B800DA01E501C401B901CF01E601D5
:10054800BA01C501D001DB01FF30BB00FF30C60096
:10055800FF30D100FF30DC000730E700FF30BC007F
:10056800FF30C700FF30D200FF30DD000F30E80059
:10057800D5105511D4105411D31453155C30F00014
:100588000530F1008531322582315B30F0000530CD
:10059800F10085312C2582314E01161615307D016A
:1005A800CB0010307E01A4000E30A9000800FA012B
:1005B800FB017B08803AF60080307602031DE62AAC
:1005C800C8307A02031CE92AEA2AEB2A2E2B7B0878
:1005D800F1007A08F0000A30F2000030F3008431AC
:1005E8001B2482317B08F7007A08F600F635F70DF0
:1005F800D030F8002C30F9007608780786007708A4
:10060800793D87007008C03F7108C13F7B08F10041
:100618007A08F0000A30F2000030F30084311B241D
:1006280082317B08F7007A08F600F635F70D60305E
:10063800F8002E30F9007608780786007708793DAB
:1006480087007008C03F7108C13F0130FA070030C9
:10065800FB3DDD2A0800F601F31F332B342B3B2B1F
:10066800F209F309F20A0319F30AF601F60AF11F6F
:100678003E2B3F2B442BF009F109F00A0319F10A2C
:10068800700871040319492B4A2B732BF501F50ADD
:10069800562B0130F035F10D890B4E2B0130F4004B
:1006A8007408F507F11F592B5A2B4D2B710873024B
:1006B800031D602B70087202031C632B642B682BCC
:1006C8007008F2027108F33B0130F136F00C890B27
:1006D800692B0130F502031D722B732B5A2B7608F8
:1006E8000319772B782B7D2BF209F309F20A0319EA
:1006F800F30A7308F1007208F000080084318124BD
:1007080083316A30F0000430F100853132258331BD
:100718005330F0000430F10085312C2583318B17DC
:100728000B1700304001A200A3008331B2238331AC
:100738008231DB2283314E304001B6008530B7006C
:100748004008BB003F08BA003E08B9003D08B800A1
:100758008431B62483319F2B80311428400123082B
:10076800803AFD0080307D02031DBC2B013022023F
:10077800031CBF2BC02BC42B400119149811CB2B81
:100788004001A31FC82BC92BCB2B19109815230880
:10079800F8002208F7008431942483317808FC009B
:1007A8007708FB0084313A2483310800083042017D
:1007B8009F0090309D0024309E00CF309B009C010C
:1007C8000030F0000030F10085313E2583310030E3
:1007D800F0000030F1008531382583310030F00019
:1007E8000030F1008531442583314001D3010800F0
:1007F80040013408FD003308FC000E2C400132088B
:10080800A1003108A0007C30A2003508A300803187
:100818004B2083317C0884007D0885001200031D6D
:10082800162C172C022C4001B101B2010800F4016A
:10083800F501701C202C212C252C7208F407730854
:10084800F53D0130F235F30D890B262C0130F136D8
:10085800F00C890B2B2C70087104031D342C352CDB
:100868001D2C7508F1007408F00008007C08400190
:10087800A1007B08A000A136A00CA136A00C20087E
:1008880047018D007B0803394001A0000530A035E1
:10089800FF3E031D4B2C203547018C00080040010A
:1008A8008E18572C582C612C0130BD070030BE3DE6
:1008B8000030BF3D0030C03D692CFF30BD07FF3020
:1008C800BE3DFF30BF3DFF30C03D080040010E1D5A
:1008D8006E2C6F2C782C0130BD070030BE3D0030E7
:1008E800BF3D0030C03D802CFF30BD07FF30BE3D0E
:1008F800FF30BF3DFF30C03D080085311E258431E3
:100908008231832284318531152584318431F22462
:1009180084318431E42484318331DA23843108003A
:10092800F81B972C982C992CA42C7709F900780996
:10093800FA00F90A0319FA0A7908F7007A08F800A0
:1009480008007E01D51CA92CAA2CAD2C8431D524F5
:1009580084317E01551DB12CB22CB52C8431C624AE
:100968008431080038304001BC000030B100B200CA
:100978003708B4003608B3003C30B5008331FC2397
:10098800843108004001540855040319CC2CCD2C9F
:10099800D22C55088A0054080A0084317E0155116A
:1009A80008004001560857040319DB2CDC2CE12C05
:1009B80057088A0056080A0084317E01D5100800BD
:1009C8000130450190008F0191013F308D008C016D
:1009D8004E019010F03045018E000800803047012C
:1009E8008E001F308D00C0308C0044011F08F33981
:1009F80004389F0008006400800101310130FE02C4
:100A08000030FF3B7F087E04031D002D0034F000FA
:100A18004E010F1E102D112D0C2D700842019A0049
:100A28000800623051018D008F019101063093005A
:100A3800920108004F0196019701980199019A01C6
:100A48009B010800F100710885310B2585310800EC
:100A580071084001D5007008D400080071084001F1
:100A6800D7007008D600080071084001DB00700844
:100A7800DA00080071084001DD007008DC00080099
:100A880071084001D9007008D8000800B034043457
:100A980000340034253464340A3400342534733483
:100AA8000A3400342534693400342C340034080006
:020AB800080034
:020000040001F9
:0A000E00EC3FFF3F9F3FFF1FFF3F45
:00000001FF
