:08000000803102288731ED2F49
:100444004E010F0E890C0139080071084101C100E9
:100454007008C000080071084101C5007008C4009C
:10046400080071084101C3007008C2000800F100CF
:100474007108823156228231080064008001013102
:10048400890B402A00344F01960197019801990184
:100494009A019B010800623051018D008F01910186
:1004A4000630930092010800F0004E010F1E5B2AF3
:1004B4005C2A572A700842019A00080080304701DC
:1004C4008E001F308D00C0308C0044011F08F339AA
:1004D40004389F0008000130450190008F0191010C
:1004E4003F308D008C014E019010F03045018E009C
:1004F40008004E018F1E7F2A802A7B2A4001EF01CB
:1005040042019D1C862A872A892A1D121D16190854
:10051400080038304001BA000030B100B20037089A
:10052400B4003608B3003A30B50083311523823164
:100534000800F81B9E2A9F2AA02AAB2A7709F900F3
:100544007809FA00F90A0319FA0A7908F7007A080F
:10055400F80008008231452282318331DE23823162
:1005640082314D22823182316022823182316D2288
:10057400823183313423823108007C084001A10098
:100584007B08A000A136A00CA136A00C20084701CE
:100594008D007B0803394001A0000530A035FF3EE3
:1005A400031DD02A203547018C0008007008840000
:1005B4007108850000087206031DE12AE22AE32A75
:1005C400F52A7108F5007008F400F00A0319F10A1D
:1005D40074088400750885001200031DF22AF32AAA
:1005E400D82AF001F1010800F401F501701CFB2A7E
:1005F400FC2A002B7208F4077308F53D0130F2352C
:10060400F30D890B012B0130F136F00C890B062B0D
:1006140070087104031D0F2B102BF82A7508F100C4
:100624007408F000080040013408FD003308FC00A1
:10063400272B40013208A1003108A0007C30A20021
:100644003508A3008631712683317C0884007D0837
:1006540085001200031D2F2B302B1B2B4001B101F1
:10066400B2010800083042019F0090309D00243000
:100674009E00CF309B009C010030F0000030F10060
:1006840082312D2283310030F0000030F1008231BC
:10069400332283310030F0000030F1008231272210
:1006A40083314001EF01080040012308803AFD0036
:1006B40080307D02031D602B01302202031C632B5A
:1006C400642B682B4001191498116F2B4001A31F50
:1006D4006C2B6D2B6F2B191098152308F80022082A
:1006E400F70082319B2283317808FC007708FB00F5
:1006F4008231BF2283310800FD00FB01FC018A2BFB
:100704000130F9007908FD070130FB070030FC3D9A
:100714007D088600870101080319912B922BA92BD0
:100724007808F1007708F0007D0886008701010849
:10073400F900FA017908F2007A08F3008231D8222C
:100744008331700871040319A82BA92B822B7C0810
:10075400F8007B08F7000800FD00FB01FC01BA2B40
:100764000130F9007908FD070130FB070030FC3D3A
:100774007D088600870101080319C12BC22BD92BE0
:100784007808F1007708F0007D08860087010108E9
:10079400F900FA017908F2007A08F3008231D822CC
:1007A400833170087104031DD82BD92BB22B7C081C
:1007B400F8007B08F700080040019A0199019601AE
:1007C4009701980107309500FF309100BF309200E7
:1007D400E7309300FC309400FC307E01D900973060
:1007E400CE00FF30C3000730E400FF30B800DA0168
:1007F400E501C401B901CF01E601BA01C501D00187
:10080400DB01FF30BB00FF30C600FF30D100FF30FA
:10081400DC000730E700FF30BC00FF30C700FF30CA
:10082400D200FF30DD000F30E80015307D01CB0031
:1008340010307E019E001030A4000E30A900080084
:100844004001A4002408031D282C292C322C6D08F7
:10085400A4002408031D2F2C302C322C00306D2CC6
:100864002108F8002008F70024088331AE238431DE
:1008740077084001A2002208A40724088600870103
:100884000108031D462C472C4A2CED0100306D2C29
:100894002108F8002008F700240883317E238431DE
:1008A40077084001A2007808A30024082207ED007D
:1008B4006D088600870101080319612C622C6B2CDA
:1008C4006D088600870181010130A2002208ED072E
:1008D4006C2CED0124080800F601F31F722C732C14
:1008E4007A2CF209F309F20A0319F30AF601F60A5B
:1008F400F11F7D2C7E2C832CF009F109F00A0319D9
:10090400F10A700871040319882C892CB22CF501A2
:10091400F50A952C0130F035F10D890B8D2C013041
:10092400F4007408F507F11F982C992C8C2C71088D
:100934007302031D9F2C70087202031CA22CA32CAB
:10094400A72C7008F2027108F33B0130F136F00C69
:10095400890BA82C0130F502031DB12CB22C992C63
:1009640076080319B62CB72CBC2CF209F309F20A49
:100974000319F30A7308F1007208F0000800740800
:1009840075040319C62CC72CCD2C74087504031DDB
:10099400CC2CCD2CD22C72088231392284311D2DDD
:1009A400740886007508870049311600010403198C
:1009B400DC2CDD2CFD2C7408860075088700493179
:1009C400403FF600413FF700740886007508870031
:1009D4004231403FF800413FF9007908803AFA007B
:1009E4007708803A7A02031DF92C760878020318F6
:1009F400FC2CFD2C1D2D74088600750887004231DF
:100A04007408840075088500403F0007F600013132
:100A1400413F003DF700760886007708870072089A
:100A2400810074088600750887004231013081070F
:100A340041310318810A0800F601F11F222D232DEC
:100A44002A2DF009F109F00A0319F10AF601F60A50
:100A5400F31F2D2D2E2D372DF209F309F20A031958
:100A6400F30A0130F4007408F606F701F80170087F
:100A7400710403193E2D3F2D6E2DF501F50A4B2D02
:100A84000130F035F10D890B432D0130F400740869
:100A9400F507F11F4E2D4F2D422D0130F735F80D7E
:100AA400890B502D71087302031D5A2D70087202B0
:100AB400031C5D2D5E2D632D7008F2027108F33B5B
:100AC40077140130F136F00C890B642D0130F502F6
:100AD400031D6D2D6E2D4F2D76080319722D732D68
:100AE400782DF709F809F70A0319F80A7808F100CC
:100AF4007708F0000800FD00FB01FC01FA01862DD7
:100B04000130F8007808FD077D0886008701203051
:100B1400010603198E2D8F2D822D7D0886008701F5
:100B2400F7300107F80005307802031C9A2D9B2D3D
:100B3400822D7D08860087012D300106031DA32D1B
:100B4400A42DAB2DFA01FA0A0130F8007808FD074C
:100B5400D12D7D08860087012B300106031DB32D9E
:100B6400B42DD12DA62D7D08860087017C08F100C7
:100B74007B08F0000A30F2000030F3008231F622E4
:100B840085317108F90001087002F800031CF903AB
:100B94007808303EFB000030793DFC00A62D7D082E
:100BA40086008701D0300107F8000A307802031C60
:100BB400DC2DDD2DB52D7A08031DE12DE22DEE2D62
:100BC4007B09F8007C09F900F80A0319F90A780886
:100BD400F6007908F700F22D7C08F7007B08F60090
:100BE40008008231AC22853100304001A200A3000C
:100BF4008331562385314001E501E6018231222209
:100C04008531003A0319072E082E002E82317B22EB
:100C140085314001E8000A3068060319122E132EAC
:100C2400192E0D306806031D182E192E1F2E650867
:100C34003B3E8600870181012A2E65083B3E8600E3
:100C44008701680881000130E5070030E63D002E89
:100C54000430B6008830B7003B30B80082318B22B4
:100C6400853108304001A0008830A1003B30843138
:100C7400222485314001E700E301E401682E67087E
:100C840085317D25853140016335593E86008701D4
:100C94007608C03F7708C13F0030B6008830B700FF
:100CA4006335593E86008701403FB800413FB90093
:100CB40082318B22853108304001A0008830A100A8
:100CC40003018431222485314001E7006708031DB4
:100CD4006C2E6D2E412EBB01FD2D8031022840016A
:100CE400220886008701403FA400413FA500240854
:100CF4008400250885001200253A031D822E832EC8
:100D0400D22F220886008701013081074131031860
:100D1400810AE901EA010310003003180130EE00F2
:100D2400FF30EB00FF30EC00220886008701403FD3
:100D3400A900413FAA00290884002A08850012005E
:100D4400643A0319A62EA72EB12E290884002A0876
:100D540085001200693A031DB02EB12E3B2F2308E3
:100D64008600870101088400850102308107003F65
:100D7400AC00013FAD002908013EA40000302A3D2B
:100D8400A5002208860087012408C03F2508C13F2A
:100D94002030B000AD1BCF2ED12E0130D22E00302A
:100DA400AB000130B0023008A03E860087010A3053
:100DB400F0000030F1002D08F3002C08F20084311B
:100DC4006E2486317108F8007008F70082319B2286
:100DD40086317708303E81000A30F0000030F1009F
:100DE40040012D08F3002C08F20085311E258631C0
:100DF40071084001AD007008AC002C082D040319E3
:100E0400042F052F0A2F3008031D092F0A2FD32E74
:100E1400300803190E2F0F2F342F2B080319132F0B
:100E2400142F342F0130B0023008A03E8600870111
:100E34002D308100342F3008A03E86008701010840
:100E4400A400A5012408F2002508F3002108F500F8
:100E54002008F4008431C124863101304001A4000B
:100E64002408B00720303006031D392F3A2F1D2FD8
:100E7400EC2FAB01220886008701403FA400413FCC
:100E8400A50024088400250885001200733A031D78
:100E94004C2F4D2F582F22088600870101308107DF
:100EA40041310318810AAB01AB0A9A2F220886004C
:100EB4008701403FA400413FA50024088400250881
:100EC400850012006C3A031D682F692F9A2F22089F
:100ED40086008701403FA400413FA500013024075C
:100EE400840025080318250A850012006C3A031DA6
:100EF4007C2F7D2F9A2F220886008701403FA40073
:100F0400413FA50002302407840025080318250A60
:100F140085001200733A031D902F912F9A2F2208F7
:100F2400860087010330810741310318810A552F58
:100F34002B0803199E2F9F2FC82F23088600870193
:100F4400403F84008501810A0008A800BF2F2808BB
:100F5400860087010108A400A5012408F2002508E1
:100F6400F3002108F5002008F4008431C1248631FF
:100F740001304001A4002408A8072808860087013E
:100F84000108031DC62FC72FA92FEC2F40012208EB
:100F9400860087010130810741310318810AEC2F53
:100FA400220886008701403FA400413FA500240891
:100FB4008400250885000008A600A7012608F20081
:100FC4002708F3002108F5002008F4008431C12427
:100FD4008631C82F0800693084000030850007304E
:100FE40082313F228731A0308400003085002030D8
:100FF40082313F22873140018531F32D2534643419
:101004000A340034253473340A3400342C34003464
:020000040001F9
:0A000E00EC3FFF3F9F3FFF1FFF3F45
:00000001FF
