:1000000080312528080008007E1480314E01161E1C
:100010000A280B2813280C1E0E280F2813289631A7
:10002000D126803123280B1F1628172823281A1CB5
:100030001A281B282328101C1E281F282328973124
:100040004327803123287E10090080312728420170
:10005000963112268031CF00963113268031D000A0
:10006000963114268031D100963115268031D20088
:10007000D03084002C3085002030FE000330FF009B
:1000800096316C2680313E308400003085001D3072
:10009000FE000030FF0096316C268031DD30840098
:1000A000003085001230FE000030FF0096316C26D3
:1000B000803120308400013085001430FE00003093
:1000C000FF0096316C268031A0308400013085001D
:1000D0003C30FE000030FF0096316C2680317E10EF
:1000E00040018931E529410131088039BB003135B2
:1000F000C100B01F7C287D287E28411441080319C7
:10010000822883289228410A031D8728882890285E
:100110000030B1000030B0000030AF000030AE0061
:10012000B0179A280030B1000030B0000030AF00A6
:100130000030AE0035088039B6003608BB063535CC
:10014000BC00B41FA428A528A6283C143C08031909
:10015000AA28AB28BA283C0A031DAF28B028B82823
:100160000030B5000030B4000030B3000030B20001
:10017000B417C2280030B5000030B4000030B3001E
:100180000030B2003C080319C628C728CC28410813
:10019000031DCB28CC28D5280030B1000030B0009A
:1001A0000030AF000030AE00AD2A2E08A0003408A9
:1001B00088313620803141012108C7002008C6005F
:1001C0004608B600B701B801B9013908C0003808BF
:1001D000BF003708BE003608BD004708B600B701AB
:1001E000B801B9013908C5003808C4003708C30090
:1001F0003608C2002F08A00033088831362080312D
:1002000041012108C7002008C6004608B600B70112
:10021000B801B9013608BD073708BE3D3808BF3DF3
:100220003908C03D4708B600B701B801B901360822
:10023000C2073708C33D3808C43D3908C53D3008FA
:10024000A000320888313620803141012108C700E2
:100250002008C6004608B600B701B801B901360843
:10026000BD073708BE3D3808BF3D3908C03D4708C7
:10027000B600B701B801B9013608C2073708C33D57
:100280003808C43D3908C53D0830BD35BE0DBF0D29
:10029000C00D890B45292F08A0003208883136206F
:1002A000803141012108C7002008C6004608BD076B
:1002B0004708BE3D0030BF3DC03D2E08A0003308BA
:1002C00088313620803141012108C7002008C6004E
:1002D0004608BD074708BE3D0030BF3DC03D083061
:1002E000BD35BE0DBF0DC00D890B70292E08A000B5
:1002F000320888313620803141012108C7002008AA
:10030000C6004608BD074708BE3D0030BF3DC03DA2
:100310002F08A0003408883136208031410121089F
:10032000C7002008C6004608C2074708C33D003082
:10033000C43DC53D3008A0003308883136208031E7
:1003400041012108C7002008C6004608C207470827
:10035000C33D0030C43DC53D3008A000340888319D
:100360003620803141012108C7002008C600460818
:10037000B6004708B700B801B9010830B635B70D67
:10038000B80DB90D890BBE293608C2073708C33D21
:100390003808C43D3908C53D3D08B6003E08B700E1
:1003A0003F08B8004008B9001830B936B80CB70C8F
:1003B000B60C890BD5293608C2073708C33D380863
:1003C000C43D3908C53D0830BD35BE0DBF0DC00D5B
:1003D000890BE42941083C07B600B701B70D360880
:1003E000823EC600FF30373DC7000D2A0130C235BE
:1003F000C30DC40DC50D890BF729C01F002A012AA2
:10040000022A42140130BD35BE0DBF0DC00D890B4F
:10041000032AFF30C607FF30C73DC41F102A112A28
:10042000F629BC01C01F152A162A322AFF303D05C5
:10043000B600FF303E05B700FF303F05B8007F3003
:100440004005B90039083804370436040319292A4D
:100450002A2A2D2ABC01BC0A322A421C302A312AFF
:10046000322A2A2A3C080319362A372A5F2A013001
:10047000C2070030C33D0030C43D0030C53D451CBF
:10048000422A432A5F2A4208B6004308B7004408BC
:10049000B8004508B9000130BA00B937B80CB70C3C
:1004A000B60CBA0B4D2A3908C5003808C400370805
:1004B000C3003608C2000130C6070030C73D4708F8
:1004C000803AB60080303602031D682AFF304602AB
:1004D000031C6B2A6C2A762A7F304101C5008030CC
:1004E000C4000030C3000030C200A12A4101470807
:1004F000803AB60080303602031D802A0130460261
:100500000318832A842A8F2A00304101C500003055
:10051000C4000030C3000030C200BB01A12A410169
:100520004608C100FF30C205FF30C3057F30C40557
:100530000030C505411C9D2A9E2A9F2AC4174136BA
:10054000C5003B08B6003608C5044508B10044089C
:10055000B0004308AF004208AE00080041014F0858
:1005600080394201B80041014F354201BF004101CD
:10057000CE1FBB2ABC2ABE2A42013F1442013F08BB
:100580000319C32AC42AD62A3F0A031DC82AC92A26
:10059000D22A00304101CF000030CE000030CD0023
:1005A0000030CC004101CE17CF01DF2A00304101DD
:1005B000CF000030CE000030CD000030CC004B0822
:1005C0008039D00050084201B80641014B35420144
:1005D000C0004101CA1FED2AEE2AF02A4201401450
:1005E000420140080319F52AF62A082B400A031D88
:1005F000FA2AFB2A042B00304101CB000030CA004C
:100600000030C9000030C8004101CA17CB01112BCE
:1006100000304101CB000030CA000030C90000307A
:10062000C8004B084A0449044804031D182B192B21
:10063000342B0030CF000030CE000030CD00003031
:10064000CC008030CE047F30CF0442013808410115
:10065000D0005008CF044F08CB004E08CA004D0808
:10066000C9004C08C800B12C42013F08031D392BBA
:100670003A2B442B00304101CB000030CA0000303F
:10068000C9000030C800B12C3F084101D000D101A1
:100690005108D3004201400841015002D200031C1E
:1006A000D30352087F3E4201B90000304101533D5F
:1006B0004201BA0041014F084201B70041014E0812
:1006C0004201B60041014D084201B50041014C080C
:1006D0004201B40000304101CF000030CE000030B4
:1006E000CD000030CC0000304201BE000030BD0023
:1006F0000030BC000030BB00C001D22B4008031901
:10070000822B832BA12B0130B435B50DB60DB70D5F
:10071000890B842B01304101CC35CD0DCE0DCF0D91
:10072000890B8B2B4201BE1F962B972B992B4101D6
:100730004C1401304201BB35BC0DBD0DBE0D890B03
:100740009A2B41014B0842013702031DB72B41018F
:100750004A0842013602031DB72B410149084201F4
:100760003502031DB72B4101480842013402031C26
:10077000BA2BBB2BCC2B3E17410148084201B402D7
:10078000410149084201B53B41014A084201B63BDB
:1007900041014B084201B73B01304101D0005008F4
:1007A0004201C0071A304002031CD72BD82B7E2BE6
:1007B00037083604350434040319DF2BE02BFC2BF7
:1007C0003B14FC2B0130CC35CD0DCE0DCF0D890B5C
:1007D000E32B4201BE1FED2BEE2BF02B41014C14FD
:1007E00001304201BB35BC0DBD0DBE0D890BF12B97
:1007F000FF30B907FF30BA3D4101CE1F002C012C5C
:10080000E22B4201C001BE1F062C072C2B2CFF300F
:100810003B054101D000FF3042013C054101D100C0
:10082000FF3042013D054101D2007F3042013E05CB
:100830004101D30053085204510450040319212CE0
:10084000222C262C4201C001C00A2B2C4C1C292C26
:100850002A2C2B2C222C420140080319302C312C3D
:100860005B2C01304101CC070030CD3D0030CE3D46
:100870000030CF3D4F1C3D2C3E2C5B2C4C08D00053
:100880004D08D1004E08D2004F08D3000130D400EB
:10089000D337D20CD10CD00CD40B482C5308CF003A
:1008A0005208CE005108CD005008CC000130420162
:1008B000B9070030BA3D42013A08803A4101D00000
:1008C00080305002031D672CFF3042013902031CA7
:1008D0006A2C6B2C792CFF304201B9000030BA0031
:1008E00000304101CF000030CE000030CD0000309C
:1008F000CC0042013A08803A4101D00080305002D9
:10090000031D852C0130420139020318882C892CE3
:10091000972C4201B901BA0100304101CF000030EB
:10092000CE000030CD000030CC004201B8014201C1
:100930003908BF003F1C9D2C9E2CA12C4101CE17D5
:10094000A62C7F304101D0005008CE0542013F3631
:100950004101CF00420138084101D0005008CF04C6
:100960002B2B0800400127088039B1002735B8003B
:10097000A61FBB2CBC2CBD2C381438080319C12C65
:10098000C22CD22C380A031DC62CC72CCF2C003009
:10099000A7000030A6000030A5000030A400A61774
:1009A000A701DA2C0030A7000030A6000030A50017
:1009B0000030A40023088039A8002808B106233598
:1009C000B900A21FE42CE52CE62C391439080319D0
:1009D000EA2CEB2CFB2C390A031DEF2CF02CF82C05
:1009E0000030A3000030A2000030A1000030A000C1
:1009F000A217A301032D0030A3000030A200003095
:100A0000A1000030A0002308220421042004031DBB
:100A10000A2D0B2D242D0030A7000030A600003039
:100A2000A5000030A4008030A6047F30A704310860
:100A3000A8002808A7042708A3002608A200250864
:100A4000A1002408A0005B2E3808031D282D292DA5
:100A5000322D0030A3000030A2000030A100003091
:100A6000A0005B2E3808A800A9012908AB003908AE
:100A70002802AA00031CAB032A087F3EB200003004
:100A80002B3DB3002708B0002608AF002508AE00B4
:100A90002408AD000030A7000030A6000030A500FB
:100AA0000030A4000030B7000030B6000030B500C0
:100AB0000030B400B9019A2D39080319602D612D59
:100AC0007B2D0130AD35AE0DAF0DB00D890B622D14
:100AD0000130A435A50DA60DA70D890B692DB71FF3
:100AE000722D732D742D24140130B435B50DB60D4F
:100AF000B70D890B752D23083002031D892D22089F
:100B00002F02031D892D21082E02031D892D200887
:100B10002D02031C8C2D8D2D962D37172008AD022C
:100B20002108AE3B2208AF3B2308B03B0130A800B0
:100B30002808B9071A303902031C9F2DA02D5C2DFF
:100B400030082F042E042D040319A72DA82DC12D24
:100B50003414C12D0130A435A50DA60DA70D890BA8
:100B6000AB2DB71FB42DB52DB62D24140130B435DF
:100B7000B50DB60DB70D890BB72DFF30B207FF309D
:100B8000B33DA61FC42DC52DAA2DB901B71FC92D70
:100B9000CA2DE62DFF303405A800FF303505A90029
:100BA000FF303605AA007F303705AB002B082A043A
:100BB000290428040319DD2DDE2DE12DB901B90A20
:100BC000E62D241CE42DE52DE62DDE2D3908031934
:100BD000EA2DEB2D132E0130A4070030A53D003087
:100BE000A63D0030A73D271CF62DF72D132E240817
:100BF000A8002508A9002608AA002708AB00013094
:100C0000AC00AB37AA0CA90CA80CAC0B012E2B081E
:100C1000A7002A08A6002908A5002808A40001307A
:100C2000B2070030B33D3308803AA8008030280274
:100C3000031D1C2EFF303202031C1F2E202E2D2ED2
:100C4000FF304001B2000030B3000030A700003098
:100C5000A6000030A5000030A40040013308803A0F
:100C6000A80080302802031D372E013032020318FD
:100C70003A2E3B2E472E4001B201B3010030A700AF
:100C80000030A6000030A5000030A400B1014001F2
:100C90003208B800381C4D2E4E2E502EA617542E5A
:100CA0007F30A8002808A6053836A7003108A8001C
:100CB0002808A7041B2D080000304001C90000309F
:100CC000C8000030C7000030C6000030CD00003042
:100CD000CC000030CB000030CA00D401D501003078
:100CE0004201A3000030A2000030A1000030A000AB
:100CF000682F41016D036E04031D7F2E802EE72EA9
:100D0000973104278631410123084001C100410188
:100D100022084001C000410121084001BF004101FB
:100D200020084001BE0041084101B50040014008D3
:100D30004101B40040013F084101B30040013E08B9
:100D40004101B2004730B1006A30B0006030AF00FE
:100D50000030AE0080317320863141013108CF0070
:100D60003008CE002F08CD002E08CC004430CB0038
:100D70001630CA000030C9000030C8008231AE22EF
:100D8000863141014B08D8004A08D7004908D600EF
:100D90004808D5008B31A92386314001550842010E
:100DA000C400400154084201C300C335C40D603083
:100DB000C5002E30C6004308450786004408463D5E
:100DC000870041015508C03F5608C13F5A2F963150
:100DD000F3268631410123084001C5004101220864
:100DE0004001C400410121084001C3004101200825
:100DF0004001C20045084101A300400144084101EF
:100E0000A200400143084101A10040014208410104
:100E1000A00001308D314C25863141012308B500F9
:100E20002208B4002108B3002008B2004330B1000A
:100E3000B430B0000030AF000030AE00803173201D
:100E4000863141013108CF003008CE002F08CD0097
:100E50002E08CC004430CB001630CA000030C90048
:100E60000030C8008231AE22863141014B08D800E3
:100E70004A08D7004908D6004808D5008B31A92375
:100E80008631400155084201C40040015408420126
:100E9000C300C335C40D6030C5002E30C600430802
:100EA000450786004408463D870041015508C03F7C
:100EB0005608C13F01304001D4070030D53D1A30FB
:100EC0004201C300F830890B632FC30B632F00006E
:100ED00040015508803A4201C30080304302031D9F
:100EE000742FC83040015402031C772F782F792EBD
:100EF00008004101AD00AB01AC01AA01832F013014
:100F0000A8002808AD072D08860002308700203091
:100F1000010603198C2F8D2F7F2F2D08860002309C
:100F20008700F7300107A80005302802031C992F1D
:100F30009A2F7F2F2D088600023087002D30010662
:100F4000031DA32FA42FAB2FAA01AA0A0130A800CA
:100F50002808AD07D42F2D088600023087002B30DB
:100F60000106031DB42FB52FD42FA62F2D08860000
:100F7000023087002C08A1002B08A0000A30A20034
:100F80000030A3009731E027873141012108A900F3
:100F900001082002A800031CA9032808303EAB006A
:100FA0000030293DAC00A62F2D08860002308700B6
:100FB000D0300107A8000A302802031CE02FE12FDF
:100FC000B62F2A08031DE52FE62FF22F2B09A800C4
:100FD0002C09A900A80A0319A90A2808A6002908AB
:100FE000A700F62F2C08A7002B08A6000800410137
:100FF00021084201C800410120084201C700080041
:1010000044010E1008004101A81B072808280928E0
:1010100014282709A9002809AA00A90A0319AA0A5D
:101020002908A7002A08A800080044018F019001A0
:1010300001309100B1308D00E0308C004E01101075
:1010400044010D084001D70044010C084001D600BE
:101050004E011A1403304101A0000030A100873175
:10106000F7278831013044018E0008004101A800B3
:10107000A401A5012008A200A3012208A6002308BC
:10108000A700281C4428452849282608A407270823
:10109000A53D0130A635A70D890B4A280310A80CE1
:1010A0002808031D5428552841282508A100240894
:1010B000A0000800083042019F0090309D002430BD
:1010C0009E00CF309B009C0100304101A000003009
:1010D000A10096313326883100304101A000003054
:1010E000A10096313C26883100304101A00000303B
:1010F000A10096312A2688314001DA010800410119
:101100003008803AB10080303102031D8928013057
:101110002F02031C8C288D28912840011914981146
:1011200099284101B01F9528962899284001191047
:10113000981541013008A8002F08A7008831032026
:10114000883141012808AC002708AB0097318A2775
:10115000883108004101AD00AB01AC01B728013076
:10116000A9002908AD070130AB070030AC3D2D08C0
:1011700086000230870001080319BF28C028D9283B
:101180002808A1002708A0002D088600023087004B
:101190000108A900AA012908A2002A08A300973182
:1011A000C12788314101200821040319D828D928F2
:1011B000AF282C08A8002B08A70008004101AD00AB
:1011C000AB01AC01EB280130A9002908AD070130C3
:1011D000AB070030AC3D2D088600023087000108C7
:1011E0000319F328F4280D292808A1002708A000D6
:1011F0002D088600023087000108A900AA012908ED
:10120000A2002A08A3009731C12788314101200894
:101210002104031D0C290D29E3282C08A8002B0804
:10122000A70008004101AA01AB012B08803AA600E3
:1012300080302602031D1E29C8302A02031C2129E2
:1012400022292329492941012B08A1002A08A000AD
:101250000A30A2000030A3009731E0278931410114
:101260002B08A7002A08A600A635A70DD030A80095
:101270002C30A9002608280786002708293D87006A
:101280002008C03F2108C13F0130AA070030AB3D14
:10129000152908003F304001A3008030A200003033
:1012A000A1000030A0004A084602BA004B08473BA4
:1012B000BB004C08483BBC004D08493BBD003D0805
:1012C000F3003C08F2003B08F1003A08F00001305E
:1012D0008C31A224893173084001A7007208A6004E
:1012E0007108A5007008A4008431B224893140013E
:1012F00023084201A300400122084201A20040014C
:1013000021084201A100400120084201A000400143
:101310004908CD004808CC004708CB004608CA0061
:1013200008004101A601A31F962997299E29A20919
:10133000A309A20A0319A30AA601A60AA11FA129AB
:10134000A229A729A009A109A00A0319A10A200816
:1013500021040319AC29AD29D629A501A50AB9296B
:101360000130A035A10D890BB1290130A40024085A
:10137000A507A11FBC29BD29B02921082302031DEF
:10138000C32920082202031CC629C729CB2920080B
:10139000A2022108A33B0130A136A00C890BCC2965
:1013A0000130A502031DD529D629BD292608031918
:1013B000DA29DB29E029A209A309A20A0319A30A51
:1013C0002308A1002208A000080097317127893165
:1013D00015304101A0001730A10096314E26893109
:1013E0002C304101A0001730A100963157268931D9
:1013F0004A304101A0000930A1008731F727893127
:101400008B170B1788310020893100304101AF0064
:10141000B00088317F208931893112218931E9304A
:101420004101D500E530D600E130D700DD30D800ED
:10143000ED308E31EC26893196310F2689316430BA
:101440004101AF000030B00088317F208931863102
:101450005C26893188310020893100304101AF009C
:10146000B00088317F2089318C31252489310F2AC1
:10147000803125284101B2003208031D402A412A4B
:101480004C2A400158084101B2003208031D492A84
:101490004A2A4C2A00308F2A2F08A8002E08A700BD
:1014A00032088831DE208A3141012708B000300837
:1014B000B20732088600023087000108031D612A46
:1014C000622A662A4001D80100308F2A2F08A8001E
:1014D0002E08A70032088831AA208A314101270846
:1014E000B0002808B100320830074001D800580881
:1014F000860002308700010803197F2A802A8C2A7F
:101500005808860002308700810101304101B00097
:1015100030084001D8078D2AD8014101320808005F
:1015200040019A01990196019701980107309500B1
:10153000FF309100FF309200E7309300F8309400C4
:10154000F8307E01D9009130CE00FF30C300073063
:10155000E400FF30B800DA01E501C401B901CF01B0
:10156000E601BA01C501D001DB01FF30BB00FF304D
:10157000C600FF30D100FF30DC000730E700FF304D
:10158000BC00FF30C700FF30D200FF30DD000F305D
:10159000E800D5105511D4105411D31453150E3042
:1015A0004101A0001630A10096314E268A3102304A
:1015B0004101A0000030A100963157268A314E012A
:1015C000161615307D01CB0010307E01A4000E30C0
:1015D000A90008004101240825040319F02AF12A72
:1015E000F72A24082504031DF62AF72AFC2A2208D4
:1015F00096311B268A31482B24088600250887004F
:101600004931160001040319062B072B272B240848
:101610008600250887004931403FA600413FA700CA
:1016200024088600250887004231403FA800413F3A
:10163000A9002908803AAA002708803A2A02031D37
:10164000232B260828020318262B272B482B410181
:1016500024088600250887004231240884002508D4
:101660008500403F0007A6000131413F003DA70033
:1016700026088600270887002208810024088600A3
:101680002508870042310130810741310318810A62
:1016900008004101A601A11F4E2B4F2B562BA0097C
:1016A000A109A00A0319A10AA601A60AA31F592B82
:1016B0005A2B632BA209A309A20A0319A30A01301A
:1016C000A4002408A606A701A801200821040319E4
:1016D0006A2B6B2B9A2BA501A50A772B0130A0351D
:1016E000A10D890B6F2B0130A4002408A507A11FB1
:1016F0007A2B7B2B6E2B0130A735A80D890B7C2B09
:1017000021082302031D862B20082202031C892B9B
:101710008A2B8F2B2008A2022108A33B271401301B
:10172000A136A00C890B902B0130A502031D992B2B
:101730009A2B7B2B260803199E2B9F2BA42BA709E2
:10174000A809A70A0319A80A2808A1002708A000C9
:10175000080003104101570D580D4201C200420814
:10176000031DB32BB42BBE2B00304101D800003039
:10177000D7000030D6000030D500242C4101550898
:10178000D9005608DA005708DB005808DC001F3083
:10179000DC36DB0CDA0CD90C890BC82B590842015A
:1017A000C1004101D717FF30D505FF30D605FF3006
:1017B000D7050030D80596304201C202C21FE12B86
:1017C000E22BFC2B4208803A973E0318E82BE92BCA
:1017D000EA2BB42B01304101D836D70CD60CD50CEE
:1017E000890BEB2B0130D90059084201C207031DB8
:1017F000FA2BFB2BEA2B132C20304202031C012C6A
:10180000022C0E2CB42B01304101D535D60DD70D4D
:10181000D80D890B042C01304201C2024208031D7D
:10182000122C132C032C41080319172C182C242CD0
:101830004101D509D609D709D809D50A0319D60A0D
:101840000319D70A0319D80A08004101CC01CD01B8
:1018500000304101C3009830C4004D08C9004C0855
:10186000C800C835C90D6030CA002E30CB0048080A
:101870004A07860049084B3D8700403FC500413F6D
:10188000C6009631C1268C3105304101C300983025
:10189000C4009631C1268C3100304101C30098301C
:1018A000C4004D08C9004C08C800C835C90DD03067
:1018B000CA002C30CB0048084A07860049084B3D37
:1018C0008700403FC500413FC6009631C1268C319C
:1018D00041014D08803AC80080304802031D722C37
:1018E000C7304C020318752C762C7E2C0530410134
:1018F000C3009830C4009631C1268C310D304101AF
:10190000C800FB30890B822CC80B822C00320130BE
:101910004101CC070030CD3D4D08803AC8008030F1
:101920004802031D952CC8304C02031C982C992C9E
:10193000282C03304101C3009830C4009631C126E1
:101940008C310800F80078080319A72CA82CBC2CAF
:10195000F31FAB2CAC2CBC2C7009FA007109FB00F6
:101960007209FC007309FD00FA0A0319FB0A031946
:10197000FC0A0319FD0AC42C7308FD007208FC0060
:101980007108FB007008FA00730872047104700497
:10199000031DCB2CCC2CD52C0030F3000030F200F2
:1019A0000030F1000030F0004B2D9630F900E32CB0
:1019B0000130F4007408F9070130FD36FC0CFB0C13
:1019C000FA0C890BDD2CFE307D05031DE82CE92C7B
:1019D000D82CFD2C0130F4007408F9070130FA0707
:1019E0000030FB3D0030FC3D0030FD3D0130FD3658
:1019F000FC0CFB0CFA0C890BF72CFF307D05031D4A
:101A0000022D032DEA2C0D2D0130F9020130FA359B
:101A1000FB0DFC0DFD0D890B072DFC1B102D112D51
:101A2000172D023079020318162D172D042D791861
:101A30001A2D1B2D232DFF30FA05FF30FB057F30BB
:101A4000FC05FF30FD050310F90C7908F400F501E1
:101A5000F601F7011830F435F50DF60DF70D890B89
:101A60002B2D7408FA047508FB047608FC0477082B
:101A7000FD04780803193D2D3E2D432DF31F412D04
:101A8000422D432DFD177D08F3007C08F2007B08F2
:101A9000F1007A08F00008004101A80028080319A5
:101AA000522D532D672DA31F562D572D672D20091D
:101AB000AA002109AB002209AC002309AD00AA0A43
:101AC0000319AB0A0319AC0A0319AD0A6F2D2308D9
:101AD000AD002208AC002108AB002008AA002308B2
:101AE000220421042004031D762D772D802D003043
:101AF000A3000030A2000030A1000030A000F62DAD
:101B00009630A9008E2D0130A4002408A9070130C9
:101B1000AD36AC0CAB0CAA0C890B882DFE302D0514
:101B2000031D932D942D832DA82D0130A40024088E
:101B3000A9070130AA070030AB3D0030AC3D0030B2
:101B4000AD3D0130AD36AC0CAB0CAA0C890BA22D0F
:101B5000FF302D05031DAD2DAE2D952DB82D013077
:101B6000A9020130AA35AB0DAC0DAD0D890BB22D1C
:101B7000AC1BBB2DBC2DC22D023029020318C12D78
:101B8000C22DAF2D2918C52DC62DCE2DFF30AA058B
:101B9000FF30AB057F30AC05FF30AD050310A90C5D
:101BA0002908A400A501A601A7011830A435A50D98
:101BB000A60DA70D890BD62D2408AA042508AB0471
:101BC0002608AC042708AD0428080319E82DE92DE0
:101BD000EE2DA31FEC2DED2DEE2DAD172D08A3003E
:101BE0002C08A2002B08A1002A08A000080041012F
:101BF0002D0886008701403FAF00413FB0002F080D
:101C00008400300885001200253A031D082E092E95
:101C1000D12E2D088600870101308107413103183C
:101C2000810A4001CE01CF010310003003180130BA
:101C3000D900FF30D000FF30D10041012D088600CF
:101C40008701403FB400413FB500340884003508A7
:101C500085001200643A03192E2E2F2E392E3408D7
:101C60008400350885001200693A031D382E392E8C
:101C7000C72E2E08860087010108840085010230E6
:101C80008107003FB600013FB7003408013EAF00B6
:101C90000030353DB0002D08860087012F08C03F79
:101CA0003008C13F2030BA00B71B572E592E0130E3
:101CB0005A2E0030B3000130BA023A08A03E860026
:101CC000013087000A30A0000030A1003708A300CF
:101CD0003608A200893191218D3141012108A800E7
:101CE0002008A700883103208D3141012708303EAC
:101CF00081000A30A0000030A1003708A300360898
:101D0000A2008B3149238D3141012108B700200801
:101D1000B6003608370403198E2E8F2E942E3A08FB
:101D2000031D932E942E5B2E3A080319982E992E9C
:101D3000C02E330803199D2E9E2EC02E0130BA02EC
:101D40003A08A03E8600013087002D308100C02E69
:101D50003A08A03E8600013087000108AF00B001BC
:101D60002F08A2003008A3002C08A5002B08A4000F
:101D70008A31EA228D3101304101AF002F08BA07C4
:101D800020303A06031DC52EC62EA82EEB2E41018B
:101D90002D08860087010130810741310318810A2F
:101DA000EB2E2D0886008701403FAF00413FB00079
:101DB0002F088400300885000008B100B201310806
:101DC000A2003208A3002C08A5002B08A4008A3129
:101DD000EA228D31C72E08004401C800CB01CC0196
:101DE000963116268E31003A0319F72EF82EF02E72
:101DF0009631B1268E314401CE000A304E060319C9
:101E0000022F032F092F0D304E06031D082F092F17
:101E1000102F4B08203E86000230870081011C2FC6
:101E20004B08203E8600023087004E0881000130BA
:101E3000CB070030CC3DF02E05304101AE0098308C
:101E4000AF0020308A313A228E314401CD00C901E1
:101E5000CA01472F4D08873179278E314401493512
:101E60003E3E86000230870041012608C03F270819
:101E7000C13F0530AE009830AF0003018A313A22ED
:101E80008E314401CD000130C9070030CA3D4D08F4
:101E9000031D4B2F4C2F2A2F4808860087013E0830
:101EA000C03F3F08C13F40084101D90044014108FB
:101EB0004101DA000030DA1BFF30DB00DC0055089E
:101EC000860087015908C03F5A08C13F5B08C23FDE
:101ED0005C08C33F4430CB007A30CA000030C900F0
:101EE0000030C800440142084101A00044014308F9
:101EF0004101A100890D893B8909A200A30001309D
:101F00008D314C258E3141012308CF002208CE00AF
:101F10002108CD002008CC008231AE228E31410153
:101F20005608860087014808C03F4908C13F4A0853
:101F3000C23F4B08C33F4430CB007A30CA00003068
:101F4000C9000030C800440144084101A000440118
:101F500045084101A100890D893B8909A200A30020
:101F600001308D314C258E3141012308CF002208EC
:101F7000CE002108CD002008CC008231AE228E3167
:101F800041015708860087014808C03F4908C13F02
:101F90004A08C23F4B08C33F4430CB007A30CA00E6
:101FA0000030C9000030C800440146084101A000CB
:101FB000440147084101A100890D893B8909A2001C
:101FC000A30001308D314C258E3141012308CF0013
:101FD0002208CE002108CD002008CC008231AE229C
:101FE0008E3141015808860087014808C03F4908E2
:101FF000C13F4A08C23F4B08C33F4401A00108004B
:102C1C00080044010E140800583402340034003407
:102C2C004E010F0E890C013908004101A100210849
:102C3C0096316026963108004F0196019701980154
:102C4C0099019A019B010800410121084301DD0013
:102C5C00410120084301DC00080041012108420128
:102C6C00CE00410120084201CD000800410121089D
:102C7C004301DF00410120084301DE0008006230FF
:102C8C0051018D008F0191010630930092010800D3
:102C9C00410121084201CC00410120084201CB0036
:102CAC000800410121084201CA00410120084201EB
:102CBC00C90008004101A0004E010F1E662E672EB0
:102CCC00622E4101200842019A0008006400800134
:102CDC0001310130FE020030FF3B7F087E04031DF2
:102CEC006D2E0034803047018E001F308D00C030B7
:102CFC008C0044011F08F33904389F000800013090
:102D0C00450190008F0191013F308D008C014E01E7
:102D1C009010F03045018E00080042014B084C0425
:102D2C000319992E9A2E9F2E4C088A004B080A00E4
:102D3C0096317E01D5100800420149084A04031956
:102D4C00A82EA92EAE2E4A088A0049080A009631F0
:102D5C007E01551108004E018F1EB52EB62EB12ED8
:102D6C004001DA0142019D1CBC2EBD2EBF2E1D124E
:102D7C001D1619080800C5304101C7000030BB0002
:102D8C00BC004408BE004308BD00C730BF009731EB
:102D9C00A327963108007E01D51CD52ED62ED92E10
:102DAC009631932696317E01551DDD2EDE2EE12EB9
:102DBC009631A2269631080044010E1DE62EE72E10
:102DCC00EE2E0E1071088D0070088C000E14F22E71
:102DDC0071088D0070088C00080040014908410101
:102DEC00A300400148084101A200400147084101ED
:102DFC00A100400146084101A0000800420123083F
:102E0C004101A300420122084101A2004201210814
:102E1C004101A100420120084101A000080040012D
:102E2C000E1D192F1A2F232F0130C6070030C73D56
:102E3C000030C83D0030C93D2B2FFF30C607FF3096
:102E4C00C73DFF30C83DFF30C93D080040018E181A
:102E5C00302F312F3A2F0130C6070030C73D0030DC
:102E6C00C83D0030C93D422FFF30C607FF30C73D7B
:102E7C00FF30C83DFF30C93D08004E011010400125
:102E8C005708F1005608F0009631E22697314201BE
:102E9C00470848040319532F542F592F48088A0008
:102EAC0047080A009731080044019501960101304A
:102EBC009700B1309300E03092004E0110114401A4
:102ECC0013084001D300440112084001D200013024
:102EDC004401940008009631222697318A319022C1
:102EEC00973196314526973196317826973197311F
:102EFC005A2797319631852697318831152097318D
:102F0C0088315A209731080041012C08AE002B085B
:102F1C00AD00AE36AD0CAE36AD0C2D0847018D00B4
:102F2C0041012B080339AD000530AD35FF3E031DC3
:102F3C009B2F2D3547018C00080041013E08C20033
:102F4C003D08C100B42F3C08AC003B08AB00C130BD
:102F5C00AD003F08AE008D31F72597314101410896
:102F6C008400420885001200031DBD2FBE2FA92F1F
:102F7C00BB01BC0108004101200884002108850028
:102F8C0000082206031DCB2FCC2FCD2FDF2F2108BD
:102F9C00A5002008A400A00A0319A10A2408840093
:102FAC00250885001200031DDC2FDD2FC12FA00189
:102FBC00A10108004101A401A501201CE62FE72F67
:102FCC00EB2F2208A4072308A53D0130A235A30D41
:102FDC00890BEC2F0130A136A00C890BF12F2008A6
:102FEC002104031DFA2FFB2FE32F2508A100240831
:102FFC00A00008002534693400340A3400342C3421
:02300C0000348E
:020000040001F9
:0A000E00EC3FFF3F9F3FFF1FFF3F45
:00000001FF
