:1000000080312528080008007E1480314E01161E1C
:100010000A280B2813280C1E0E280F2813289231AB
:100020005A22803123280B1F1628172823281A1C30
:100030001A281B282328101C1E281F282328923129
:100040009222803123287E10090080312728410127
:100050008731FE278031EE008731FF278031EF00A6
:10006000C13084009130850042011200E800120086
:10007000E9001200EA001200EB001200EC0012008E
:10008000ED00403084002B308500B030FE0004309D
:10009000FF009131F6218031FA01FB01CF3084005D
:1000A000003085001F30FE000030FF009131F62146
:1000B000803120308400013085003C30FE0000306B
:1000C000FF009131F6218031A0308400013085009D
:1000D0002030FE000030FF009131F62180317E108B
:1000E00040019431E32CAD2D42016D0841016406BD
:1000F000031D7E2842016C08410163060319812813
:100100008228AD2D6C036D04031D87288828322BAF
:100110009131E221803175084101D2007408D1008B
:100120007308D0007208CF0052084001E900410175
:1001300051084001E800410150084001E700410139
:100140004F084001E6004730CF006A30CE006030F3
:10015000CD000030CC000030F9000030F800023053
:10016000F7005830F60041016B08F5006A08F4000A
:100170006908F3006808F20094317624803175082C
:100180004001A7007408A6007308A5007208A40027
:10019000013089319821803140012708D300260899
:1001A000D2002508D1002408D0008C314E248031A3
:1001B00040014F08ED004E08EC004D08EB004C08E4
:1001C000EA00933166238031400169084101DE0075
:1001D000400168084101DD00400167084101DC0081
:1001E000400166084101DB0042015B084001B900A3
:1001F00042015A084001B800420159084001B700C5
:10020000420158084001B60041015E084001B500B6
:1002100041015D084001B40041015C084001B300A8
:1002200041015B084001B2008531C32580314001A6
:100230003508D3003408D2003308D1003208D0008A
:10024000420157084001B900420156084001B80078
:10025000420155084001B700420154084001B60070
:1002600041015A084001B500410159084001B4005C
:10027000410158084001B300410157084001B20054
:100280008531C325803140013508CF003408CE00C8
:100290003308CD003208CC008D31F8258031400183
:1002A0004F084101B20040014E084101B100400138
:1002B0004D084101B00040014C084101AF00520817
:1002C0004001ED00410151084001EC00410150089E
:1002D0004001EB0041014F084001EA0042012708BC
:1002E0004001E900420126084001E80042012508DA
:1002F0004001E700420124084001E60093316623F3
:10030000803140016908B9006808B8006708B70083
:100310006608B600420153084001B5004201520888
:100320004001B400420151084001B30042015008AD
:100330004001B2008531C3258031400135084101BB
:10034000AA00400134084101A900400133084101DD
:10035000A800400132084101A70032084001ED0029
:10036000410131084001EC00410130084001EB003F
:1003700041012F084001EA0041012A084001E9003B
:10038000410129084001E800410128084001E70037
:10039000410127084001E600933166238031400186
:1003A00069084101AE00400168084101AD0040010B
:1003B00067084101AC00400166084101AB002E080E
:1003C0004001CF0041012D084001CE0041012C0821
:1003D0004001CD0041012B084001CC00420137080B
:1003E0004001D300420136084001D20042013508E5
:1003F0004001D100420134084001D0008D31F82580
:10040000803140014F084201B70040014E084201CF
:10041000B60040014D084201B50040014C084201C0
:10042000B40041015E084001CF0041015D08400178
:10043000CE0041015C084001CD0041015B08400154
:10044000CC0041015A084001D30041015908400144
:10045000D200410158084001D10041015708400134
:10046000D0008D31F825803140014F084101DA007C
:1004700040014E084101D90040014D084101D8001A
:1004800040014C084101D7005A084001A700410132
:1004900059084001A600410158084001A50041014A
:1004A00057084001A400C430AB001630AA00003049
:1004B000A9000030A8004430AF001630AE00003074
:1004C000AD000030AC009531262580314001270871
:1004D0004101DA00400126084101D9004001250808
:1004E0004101D800400124084101D70052084201CF
:1004F000A700410151084201A600410150084201F4
:10050000A50041014F084201A400410152084001E9
:10051000B900410151084001B800410150084001B3
:10052000B70041014F084001B6004730B5006A30BE
:10053000B4006030B3000030B2008531C325803193
:1005400040013508D3003408D2003308D100320806
:10055000D0004430CF001630CE000030CD00003047
:10056000CC008C314E24803140014F08E9004E0808
:10057000E8004D08E7004C08E60097318F278031EE
:1005800041016408A4006308A300A335A40D9830BA
:10059000A5002D30A6002308250786002408263D47
:1005A000870040016608C03F6708C13F4130CF0067
:1005B0002030CE000030CD000030CC004201400899
:1005C00041015F02A300420141084101603BA400D8
:1005D000420142084101613BA5004201430841013B
:1005E000623BA60026084001A70041012508400102
:1005F000A600410124084001A50041012308400153
:10060000A400013089319821803140012708D300AE
:100610002608D2002508D1002408D0008C314E24B1
:10062000803140014F084201A30040014E084201C1
:10063000A20040014D084201A10040014C084201C6
:10064000A000410162084201C3004101610842016A
:10065000C200410160084201C10041015F0842013E
:10066000C000562D9131D821803175084101D60046
:100670007408D5007308D4007208D30056084001EE
:10068000A700410155084001A6004101540840015E
:10069000A500410153084001A4000130893198218F
:1006A000803140012708E9002608E8002508E70016
:1006B0002408E6004330CF00B430CE000030CD0037
:1006C0000030CC000030F9000030F8000230F700B4
:1006D0005830F60041016B08F5006A08F40069081B
:1006E000F3006808F20094317624803175084001E7
:1006F000A7007408A6007308A5007208A4000130C2
:1007000089319821803140012708D3002608D20082
:100710002508D1002408D0008C314E2480314001BE
:100720004F08ED004E08EC004D08EB004C08EA00C5
:10073000933166238031400169084101DE004001A8
:1007400068084101DD00400167084101DC0040010B
:1007500066084101DB005A084001B5004101590813
:100760004001B400410158084001B300410157085D
:100770004001B200420157084001B9004201560849
:100780004001B800420155084001B7004201540839
:100790004001B6008531C325803140013508CF00C6
:1007A0003408CE003308CD003208CC0041015E0889
:1007B0004001B50041015D084001B40041015C0801
:1007C0004001B30041015B084001B20042015B08F7
:1007D0004001B90042015A084001B80042015908DD
:1007E0004001B700420158084001B6008531C325D9
:1007F000803140013508D3003408D2003308D100DD
:100800003208D0008D31F825803140014F08410178
:10081000B20040014E084101B10040014D084101C4
:10082000B00040014C084101AF00420153084001B3
:10083000B500420152084001B40042015108400194
:10084000B300420150084001B200420128084101B2
:100850005302A300420129084101543BA400420174
:100860002A084101553BA50042012B084101563B96
:10087000A60026084001A700410125084001A60066
:10088000410124084001A500410123084001A400C2
:10089000013089319821803140012708B9002608AC
:1008A000B8002508B7002408B6008531C32580317B
:1008B00040013508E9003408E8003308E700320851
:1008C000E600410132084001ED00410131084001DC
:1008D000EC00410130084001EB0041012F084001CC
:1008E000EA00933166238031400169084201B70074
:1008F000400168084201B600400167084201B500A6
:10090000400166084201B40041015E084001CF0089
:1009100041015D084001CE0041015C084001CD006D
:1009200041015B084001CC0041015A084001D3005D
:10093000410159084001D200410158084001D1004D
:10094000410157084001D0008D31F8258031400128
:100950004F084101DA0040014E084101D900400131
:100960004D084101D80040014C084101D7005A0808
:100970004001A700410159084001A6004101580863
:100980004001A500410157084001A400C430AB005C
:100990001630AA000030A9000030A8004430AF0093
:1009A0001630AE000030AD000030AC009531262589
:1009B0008031400127084101DA0040012608410149
:1009C000D900400125084101D80040012408410117
:1009D000D70056084201AB00410155084201AA0068
:1009E000410154084201A900410153084201A800F5
:1009F000410156084001A700410155084001A600E9
:100A0000410154084001A500410153084001A400E0
:100A1000013089319821803140012708B90026082A
:100A2000B8002508B7002408B6004330B500B4303C
:100A3000B4000030B3000030B2008531C3258031EE
:100A400040013508D3003408D2003308D100320801
:100A5000D0004430CF001630CE000030CD00003042
:100A6000CC008C314E24803140014F08E9004E0803
:100A7000E8004D08E7004C08E60097318F278031E9
:100A800041016408A4006308A300A335A40D9830B5
:100A9000A5002D30A6002308250786002408263D42
:100AA000870040016608C03F6708C13F41016408F4
:100AB0004201ED00410163084201EC0037084001AA
:100AC000A700420136084001A60042013508400156
:100AD000A500420134084001A400C330AB007F30C0
:100AE000AA000030A9000030A8004330AF007F30DA
:100AF000AE000030AD000030AC00953126258031CD
:100B0000400127084201B700400126084201B60013
:100B1000400125084201B500400124084201B4000B
:100B200037084001E900420136084001E80042016F
:100B300035084001E700420134084001E6009731E2
:100B40008F278031400167084101A10040016608FC
:100B50004101A0009331EC23803141016408803AC7
:100B6000A30081302302031DB72D2C306302031C28
:100B7000BA2DBB2D742800304101A000A100933193
:100B8000EC2380310800400135088039BF0035353D
:100B9000C500B41FCC2DCD2DCE2D4514450803190D
:100BA000D22DD32DE22D450A031DD72DD82DE02DB2
:100BB0000030B5000030B4000030B3000030B200A7
:100BC000B417EA2D0030B5000030B4000030B30097
:100BD0000030B20039088039BA003A08BF0639350A
:100BE000C000B81FF42DF52DF62D40144008031950
:100BF000FA2DFB2D0A2E400A031DFF2D002E082E74
:100C00000030B9000030B8000030B7000030B60046
:100C1000B817122E0030B9000030B8000030B7000D
:100C20000030B60040080319162E172E1C2E45085A
:100C3000031D1B2E1C2E252E0030B5000030B400E5
:100C40000030B3000030B200FD2F3208F200380847
:100C50009331C823853173084001CB007208CA0064
:100C60004A08BA00BB01BC01BD013D08C4003C08F4
:100C7000C3003B08C2003A08C1004B08BA00BB01E0
:100C8000BC01BD013D08C9003C08C8003B08C700C5
:100C90003A08C6003308F20037089331C82385317B
:100CA00073084001CB007208CA004A08BA00BB01B1
:100CB000BC01BD013A08C1073B08C23D3C08C33D29
:100CC0003D08C43D4B08BA00BB01BC01BD013A0858
:100CD000C6073B08C73D3C08C83D3D08C93D340830
:100CE000F20036089331C823853173084001CB00E8
:100CF0007208CA004A08BA00BB01BC01BD013A082B
:100D0000C1073B08C23D3C08C33D3D08C43D4B08FC
:100D1000BA00BB01BC01BD013A08C6073B08C73D8C
:100D20003C08C83D3D08C93D0830C135C20DC30D62
:100D3000C40D890B952E3308F20036089331C82371
:100D4000853173084001CB007208CA004A08C10708
:100D50004B08C23D0030C33DC43D3208F2003708A5
:100D60009331C823853173084001CB007208CA0053
:100D70004A08C1074B08C23D0030C33DC43D08309E
:100D8000C135C20DC30DC40D890BC02E3208F2004F
:100D900036089331C823853173084001CB007208AF
:100DA000CA004A08C1074B08C23D0030C33DC43DDC
:100DB0003308F20038089331C823853173084001A5
:100DC000CB007208CA004A08C6074B08C73D00306E
:100DD000C83DC93D3408F20037089331C823853136
:100DE00073084001CB007208CA004A08C6074B08C6
:100DF000C73D0030C83DC93D3408F2003808933182
:100E0000C823853173084001CB007208CA004A0824
:100E1000BA004B08BB00BC01BD010830BA35BB0DA0
:100E2000BC0DBD0D890B0E2F3A08C6073B08C73D08
:100E30003C08C83D3D08C93D4108BA004208BB0016
:100E40004308BC004408BD001830BD36BC0CBB0CC8
:100E5000BA0C890B252F3A08C6073B08C73D3C084A
:100E6000C83D3D08C93D0830C135C20DC30DC40D94
:100E7000890B342F45084007BA00BB01BB0D3A0867
:100E8000823ECA00FF303B3DCB005D2F0130C635AE
:100E9000C70DC80DC90D890B472FC41F502F512FE7
:100EA000522F46140130C135C20DC30DC40D890B3C
:100EB000532FFF30CA07FF30CB3DC81F602F612F73
:100EC000462FC001C41F652F662F822FFF304105BA
:100ED000BA00FF304205BB00FF304305BC007F3045
:100EE0004405BD003D083C043B043A040319792F36
:100EF0007A2F7D2FC001C00A822F461C802F812FA0
:100F0000822F7A2F40080319862F872FAF2F0130A9
:100F1000C6070030C73D0030C83D0030C93D491C00
:100F2000922F932FAF2F4608BA004708BB004808FE
:100F3000BC004908BD000130BE00BD37BC0CBB0C75
:100F4000BA0CBE0B9D2F3D08C9003C08C8003B08E9
:100F5000C7003A08C6000130CA070030CB3D4B0835
:100F6000803ABA0080303A02031DB82FFF304A029F
:100F7000031CBB2FBC2FC62F7F304001C90080301F
:100F8000C8000030C7000030C600F12F40014B08F8
:100F9000803ABA0080303A02031DD02F01304A0255
:100FA0000318D32FD42FDF2F00304001C9000030A9
:100FB000C8000030C7000030C600BF01F12F40015B
:100FC0004A08C500FF30C605FF30C7057F30C80599
:100FD0000030C905451CED2FEE2FEF2FC817453601
:100FE000C9003F08BA003A08C9044908B5004808D2
:100FF000B4004708B3004608B2000800C0346334A8
:1010000044010E1408004001A11B072808280928E4
:1010100014282009A2002109A300A20A0319A30A87
:101020002208A0002308A10008004001A500A30198
:10103000A401A2011F280130A0002008A50725084F
:1010400086008701203001060319272828281B283D
:10105000250886008701F7300107A000053020022F
:10106000031C332834281B282508860087012D30CF
:101070000106031D3C283D284428A201A20A013094
:10108000A0002008A5076B282508860087012B30C3
:101090000106031D4C284D286B283F282508860093
:1010A00087012408F3002308F2000A30F40000301E
:1010B000F50093314723883173084001A1000108EE
:1010C0007202A000031CA1032008303EA3000030E0
:1010D000213DA4003F28250886008701D030010764
:1010E000A0000A302002031C762877284E28220808
:1010F000031D7B287C2888282309A0002409A1003F
:10110000A00A0319A10A2008F8002108F9008C2878
:101110002408F9002308F800080000304101E2002B
:101120000030E1000030E0000030DF00003042011C
:10113000C3000030C2000030C1000030C0004101D7
:10114000E301E40100304201A3000030A2000030BE
:10115000A1000030A00000304101DE000030DD00C1
:101160000030DC000030DB0000304201BF00003006
:10117000BE000030BD000030BC000030BB000030BD
:10118000BA000030B9000030B80000304101DA0088
:101190000030D9000030D8000030D70000304201C4
:1011A000B7000030B6000030B5000030B4000030A9
:1011B000B3000030B2000030B1000030B0000030A9
:1011C000AF000030AE000030AD000030AC000030A9
:1011D000AB000030AA000030A9000030A8000030A9
:1011E0004101D6000030D5000030D4000030D300DB
:1011F0000030D2000030D1000030D0000030CF00ED
:1012000000304201A7000030A6000030A5000030E9
:10121000A4008831002088310800003072054001A8
:10122000A00000307305A10080307405A2007F305B
:101230007505A3002308220421042004031D21298D
:1012400022292A290030F5000030F4000030F30094
:101250000030F20000307605A00000307705A100D4
:1012600080307805A2007F307905A300230822048E
:1012700021042004031D3D293E2946290030F900A0
:101280000030F8000030F7000030F600F51F492963
:101290004A2962290030A0000030A1000030A200DD
:1012A0008030A3007208A0027308A13B7408A23B1F
:1012B0007508A33B2308F5002208F4002108F30079
:1012C0002008F200F91F652966297E290030A00058
:1012D0000030A1000030A2008030A3007608A002F8
:1012E0007708A13B7808A23B7908A33B2308F900C3
:1012F0002208F8002108F7002008F6008030F506E3
:101300008030F90679087502031D90297808740267
:10131000031D902977087302031D90297608720235
:101320000318932994299629031097290314080078
:101330004001AC002C0803199E299F29B329A71F3F
:10134000A229A329B3292409AE002509AF00260943
:10135000B0002709B100AE0A0319AF0A0319B00A99
:101360000319B10ABB292708B1002608B0002508D7
:10137000AF002408AE002708260425042404031D1A
:10138000C229C329CC290030A7000030A6000030B4
:10139000A5000030A400422A9630AD00DA290130C1
:1013A000A8002808AD070130B136B00CAF0CAE0C68
:1013B000890BD429FE303105031DDF29E029CF290F
:1013C000F4290130A8002808AD070130AE0700302D
:1013D000AF3D0030B03D0030B13D0130B136B00C12
:1013E000AF0CAE0C890BEE29FF303105031DF92936
:1013F000FA29E129042A0130AD020130AE35AF0DE2
:10140000B00DB10D890BFE29B01B072A082A0E2A40
:1014100002302D0203180D2A0E2AFB292D18112A3D
:10142000122A1A2AFF30AE05FF30AF057F30B00513
:10143000FF30B1050310AD0C2D08A800A901AA01C9
:10144000AB011830A835A90DAA0DAB0D890B222AC6
:101450002808AE042908AF042A08B0042B08B104F8
:101460002C080319342A352A3A2AA71F382A392A80
:101470003A2AB1173108A7003008A6002F08A500A6
:101480002E08A40008004001270886008701403F7D
:10149000A900413FAA00290884002A0885001200FB
:1014A000253A031D542A552A1F2B27088600870139
:1014B0000130810741310318810A4201CC01CD017D
:1014C00003100030031801304101E700FF304201F2
:1014D000CE00FF30CF004001270886008701403F43
:1014E000AE00413FAF002E0884002F088500120097
:1014F000643A03197C2A7D2A872A2E0884002F0843
:1015000085001200693A031D862A872A152B2808B0
:101510008600870101088400850102308107003FB1
:10152000B000013FB1002E08013EA90000302F3D60
:10153000AA002708860087012908C03F2A08C13F62
:101540002030B400B11BA52AA72A0130A82A0030F8
:10155000AD000130B4023408A03E8600013087009F
:101560000A30F2000030F3003108F5003008F400D2
:101570009531B7258A3173084001A1007208A00097
:10158000883103208A3140012008303E81000A3032
:10159000F2000030F3003108F5003008F400963115
:1015A000C2268A3173084001B1007208B0003008C9
:1015B00031040319DC2ADD2AE22A3408031DE12A5A
:1015C000E22AA92A34080319E62AE72A0E2B2D0855
:1015D0000319EB2AEC2A0E2B0130B4023408A03E8A
:1015E0008600013087002D3081000E2B3408A03E8C
:1015F0008600013087000108A900AA012908F4002B
:101600002A08F5002608F7002508F600963163261B
:101610008A3101304001A9002908B407203034067E
:10162000031D132B142BF62A392B400127088600A3
:1016300087010130810741310318810A392B2708BE
:1016400086008701403FA900413FAA002908840085
:101650002A0885000008AB00AC012B08F4002C0818
:10166000F5002608F7002508F600963163268A3132
:10167000152B08004101C800CB01CC0191318C2110
:101680008B31003A0319452B462B3E2B92313B22DE
:101690008B314101CE000A304E060319502B512BDD
:1016A000572B0D304E06031D562B572B5D2B4B0829
:1016B000A03E860087018101682B4B08A03E860072
:1016C00087014E0881000130CB070030CC3D3E2B16
:1016D00008304001A7009830A800A03095316B2554
:1016E0008B314101CD00C901CA01922B4D088831CF
:1016F00015208B3141014935BE3E860087017808AF
:10170000C03F7908C13F08304001A7009830A800C9
:10171000030195316B258B314101CD000130C907A3
:101720000030CA3D4D08031D962B972B762B480899
:10173000860087013E08C03F3F08C13F4008400186
:10174000EA00410141084001EB000030EB1BFF3093
:10175000EC00ED006608860087016A08C03F6B0850
:10176000C13F6C08C23F6D08C33F4430CF007A30A0
:10177000CE000030CD000030CC00410142084001D5
:10178000A400410143084001A500890D893B890956
:10179000A600A7000130893198218B31400127082C
:1017A000D3002608D2002508D1002408D0008C31AF
:1017B0004E248B31400167088600013087004C08B9
:1017C000C03F4D08C13F4E08C23F4F08C33F4430A1
:1017D000CF007A30CE000030CD000030CC00410187
:1017E00044084001A400410145084001A500890DBD
:1017F000893B8909A600A7000130893198218B31E6
:1018000040012708D3002608D2002508D10024086B
:10181000D0008C314E248B314001680886000130A5
:1018200087004C08C03F4D08C13F4E08C23F4F08DB
:10183000C33F4430CF007A30CE000030CD000030BE
:10184000CC00410146084001A40041014708400185
:10185000A500890D893B8909A600A70001308931BF
:1018600098218B3140012708D3002608D200250893
:10187000D1002408D0008C314E248B3140016908FE
:101880008600013087004C08C03F4D08C13F4E081C
:10189000C23F4F08C33F4101A00108004001530867
:1018A0008039DD005335E400D21F572C582C592CB9
:1018B0006414640803195D2C5E2C6E2C640A031DED
:1018C000622C632C6B2C0030D3000030D20000302F
:1018D000D1000030D000D217D301762C0030D300D5
:1018E0000030D2000030D1000030D0004F088039E5
:1018F000D4005408DD064F35E500CE1F802C812C26
:10190000822C651465080319862C872C972C650A90
:10191000031D8B2C8C2C942C0030CF000030CE007B
:101920000030CD000030CC00CE17CF019F2C00300E
:10193000CF000030CE000030CD000030CC004F088A
:101940004E044D044C04031DA62CA72CC02C0030C3
:10195000D3000030D2000030D1000030D000803001
:10196000D2047F30D3045D08D4005408D304530854
:10197000CF005208CE005108CD005008CC00F72D02
:101980006408031DC42CC52CCE2C0030CF000030C1
:10199000CE000030CD000030CC00F72D6408D4001C
:1019A000D5015508D70065085402D600031CD7039B
:1019B00056087F3EDE000030573DDF005308DC0054
:1019C0005208DB005108DA005008D9000030D3007B
:1019D0000030D2000030D1000030D0000030E300F1
:1019E0000030E2000030E1000030E000E501362D7B
:1019F00065080319FC2CFD2C172D0130D935DA0DA3
:101A0000DB0DDC0D890BFE2C0130D035D10DD20D54
:101A1000D30D890B052DE31F0E2D0F2D102D501406
:101A20000130E035E10DE20DE30D890B112D4F087A
:101A30005C02031D252D4E085B02031D252D4D085C
:101A40005A02031D252D4C085902031C282D292D4F
:101A5000322D63174C08D9024D08DA3B4E08DB3BA8
:101A60004F08DC3B0130D4005408E5071A3065020A
:101A7000031C3B2D3C2DF82C5C085B045A045904D4
:101A80000319432D442D5D2D60145D2D0130D0359B
:101A9000D10DD20DD30D890B472DE31F502D512DA4
:101AA000522D50140130E035E10DE20DE30D890BAC
:101AB000532DFF30DE07FF30DF3DD21F602D612D3B
:101AC000462DE501E31F652D662D822DFF30600553
:101AD000D400FF306105D500FF306205D6007F30AD
:101AE0006305D70057085604550454040319792D8B
:101AF0007A2D7D2DE501E50A822D501C802D812D4A
:101B0000822D7A2D65080319862D872DAF2D013082
:101B1000D0070030D13D0030D23D0030D33D531CC2
:101B2000922D932DAF2D5008D4005108D5005208A6
:101B3000D6005308D7000130D800D737D60CD50CC3
:101B4000D40CD80B9D2D5708D3005608D200550849
:101B5000D1005408D0000130DE070030DF3D5F08BF
:101B6000803AD40080305402031DB82DFF305E024D
:101B7000031CBB2DBC2DC92DFF304001DE00003001
:101B8000DF000030D3000030D2000030D100003040
:101B9000D00040015F08803AD40080305402031D19
:101BA000D32D01305E020318D62DD72DE32D400131
:101BB000DE01DF010030D3000030D2000030D10060
:101BC0000030D000DD0140015E08E400641CE92D16
:101BD000EA2DEC2DD217F02D7F30D4005408D20519
:101BE0006436D3005D08D4005408D304B72C080031
:101BF00040014F088039DC004F35DE00CE1F012E3A
:101C0000022E032E5E145E080319072E082E182ECE
:101C10005E0A031D0C2E0D2E152E0030CF00003055
:101C2000CE000030CD000030CC00CE17CF01202EEA
:101C30000030CF000030CE000030CD000030CC00AE
:101C400053088039DD005D085C060319282E292E13
:101C50002A2E5C175335DD00D21F2F2E302E312E49
:101C60005D145D080319352E362E462E5D0A031DC0
:101C70003A2E3B2E432E0030D3000030D2000030ED
:101C8000D1000030D000D217D3014E2E0030D30047
:101C90000030D2000030D1000030D0005E085D027C
:101CA0000318532E542E7A2E5C1F572E582E5C2E5E
:101CB0008030D4005408DC065E08DF005D08DE00DA
:101CC0005F08DD004C08DF005008CC005F08D00042
:101CD0004D08DF005108CD005F08D1004E08DF003D
:101CE0005208CE005F08D2004F08DF005308CF0033
:101CF0005F08D300DF015D08D400D5015508D70087
:101D00005E085402D600031CD7035708803AD80057
:101D100080305802031D8E2E1A305602031C912E5D
:101D2000922EC42E40014F084E044D044C04031D56
:101D30009A2E9C2E01309D2E0030DF000030CF0007
:101D40000030CE000030CD000030CC005D08DE0059
:101D5000CB2E5F1CAC2EAD2EB12E5F360138DF00CE
:101D6000B32E0310DF0C4C1CB62EB72EB82EDF1787
:101D70000130D400CF37CE0CCD0CCC0CD40BBA2E06
:101D80000130D4005408DE0740015D085E02031CE8
:101D9000CA2ECB2EA92E5C1BCE2ECF2E052F5E0871
:101DA000031DD32ED42EDD2E0030CF000030CE0008
:101DB0000030CD000030CC00FF2F5008CC07510878
:101DC000CD3D5208CE3D5308CF3D4F1CE82EE92EA5
:101DD000912F5F1CEC2EED2EF12E5F360138DF00C7
:101DE000F32E0310DF0C4C1CF62EF72EF82EDF1707
:101DF0000130D400CF37CE0CCD0CCC0CD40BFA2E46
:101E00000130D4005408DE07912F4F08803AD400E7
:101E10005308803A5402031D172F52084E02031D27
:101E2000172F51084D02031D172F50084C0203189D
:101E30001A2F1B2F532FFF30D400FF30D500FF3057
:101E4000D600FF30D7004C085002D8004D08513B57
:101E5000D9004E08523BDA004F08533BDB005808CC
:101E6000D4075908D53D5A08D63D5B08D73D5708D9
:101E7000CF005608CE005508CD005408CC00803065
:101E8000D4005408DC06DF09DF0A5F08031D492F70
:101E90004A2F5B2F0130CC070030CD3D0030CE3DC6
:101EA0000030CF3D5B2F5008CC025108CD3B52088B
:101EB000CE3B5308CF3B4F084E044D044C04031D4A
:101EC000622F632F8D2F5F08031D672F682F8D2FC3
:101ED0000030CF000030CE000030CD000030CC000C
:101EE000FF2F0130CC35CD0DCE0DCF0D890B722FCC
:101EF000DF1F7B2F7C2F7D2F4C145F1C802F812FA9
:101F0000842F0314DF0D862F0310DF0D5E080319E5
:101F10008A2F8B2F8D2F0130DE02CE1F902F912F15
:101F2000712FDD01DF1F952F962FA42F5F087F39BA
:101F300003199B2F9C2F9F2FDD01DD0AA42F4C1C22
:101F4000A22FA32FA42F9C2F5D080319A82FA92F20
:101F5000D62F0130CC070030CD3D0030CE3D0030D3
:101F6000CF3D4F1CB42FB52FD62F4C08D4004D08B1
:101F7000D5004E08D6004F08D7000130D800D7371B
:101F8000D60CD50CD40CD80BBF2F5708CF00560851
:101F9000CE005508CD005408CC005E0A0319D12F9D
:101FA000D22FD62F0130D4005408DE075E0A031961
:101FB000DA2FDB2FE02F5E08031DDF2FE02FEE2F3F
:101FC0000030CF000030CE000030CD000030CC001B
:101FD0005E08031DEC2FED2FEE2FDC015E1CF12FB0
:101FE000F22FF42FCE17F82F7F30D4005408CE05EF
:101FF0005E36CF00DC1FFD2FFE2FFF2FCF1708000E
:10231000080044010E1008004E010F0E890C01390F
:10232000080001304101E3070030E43D0800730874
:102330004201E3007208E200080073084201E7006E
:102340007208E600080073084201E5007208E40024
:10235000080073084201E1007208E00008007308F9
:102360004201DF007208DE00080073084201DD0050
:102370007208DC000800F30073089131EC21913100
:1023800008005834023400340034013400344F0162
:1023900096019701980199019A019B01080060300C
:1023A00051018D008F0191010630930092010800C8
:1023B00041016208F5006108F4006008F3005F085D
:1023C000F200080042012308F5002208F400210869
:1023D000F3002008F2000800F2004E010F1EF12960
:1023E000F229ED29720842019A0008006400800178
:1023F00001310130FE020030FF3B7F087E04031DE7
:10240000F7290034803047018E003F308D00C03006
:102410008C0044011F08F33904389F000800013084
:10242000450190008F0191013F308D008C014E01DC
:102430009010F03045018E000800420160086104F0
:102440000319232A242A292A61088A0060080A001D
:1024500092317E01D510080042015E085F04031925
:10246000322A332A382A5F088A005E080A0092312D
:102470007E01551108004E018F1E3F2A402A3B2A3B
:10248000FB0142019D1C452A462A482A1D121D16A1
:10249000190808003E304001C2000030B500B60007
:1024A0003D08B8003C08B7004230B90093312923F9
:1024B000923108007E01D51C5E2A5F2A622A923181
:1024C0001D2292317E01551D662A672A6A2A9231A1
:1024D0002C229231080044010E1D6F2A702A772A9F
:1024E0000E1071088D0070088C000E147B2A710884
:1024F0008D0070088C0008007308F5007208F40065
:10250000F536F40CF536F40C740847018D007208AA
:102510000339F4000530F435FF3E031D8B2A743572
:102520008C0008004E01101041016F08F1006E0888
:10253000F00092316B22923142015C085D04031974
:10254000A22AA32AA82A5D088A005C080A00923100
:102550000800440195019601013097000230930074
:10256000183092004E011011440113084101E60099
:10257000440112084101E500343044019400080090
:1025800040010E1DC42AC52ACF2A01304101DF07B0
:102590000030E03D0030E13D0030E23DD82AFF3020
:1025A0004101DF07FF30E03DFF30E13DFF30E23D1C
:1025B000080040018E18DD2ADE2AE82A0130410198
:1025C000DF070030E03D0030E13D0030E23DF12A20
:1025D000FF304101DF07FF30E03DFF30E13DFF30DC
:1025E000E23D08009131C721923196310A2692319D
:1025F0009131CF2192319231022292319231A9222E
:10260000923192310F22923193318623923193315C
:10261000A623923108007208840073088500000820
:102620007406031D142B152B162B282B7308F7008B
:102630007208F600F20A0319F30A76088400770894
:1026400085001200031D252B262B0B2BF201F30115
:10265000080040013808BB003708BA003A2B36089A
:10266000A6003508A5003A30A7003908A8008A312D
:102670004322933140013A0884003B088500120050
:10268000031D432B442B2F2BB501B6010800F60187
:10269000F701721C4C2B4D2B512B7408F607750853
:1026A000F73D0130F435F50D890B522B0130F3362F
:1026B000F20C890B572B72087304031D602B612BDE
:1026C000492B7708F3007608F200080080304001BB
:1026D000E9066D08CF006C08CE006B08CD006A08D3
:1026E000CC006908D3006808D2006708D1006608EA
:1026F000D0008D31F825933140014F08E9004E0894
:10270000E8004D08E7004C08E600080044018F018E
:1027100090010130910063308D00C0308C004E017B
:10272000101044010D084101EF0044010C08410163
:10273000EE004E011A140330F2000030F300913124
:10274000B5219331113044018E0008000830420158
:102750009F0090309D0024309E0040309B0003304D
:102760009C000030F2000030F30091319D21933144
:102770000030F2000030F3009131A321933100309A
:10278000F2000030F300913197219331FB010800F2
:102790004001A400A001A1017208F400F501740831
:1027A000A2007508A300241CD62BD72BDB2B2208F4
:1027B000A0072308A13D0130A235A30D890BDC2B16
:1027C0000310A40C2408031DE62BE72BD32B2108B0
:1027D000F3002008F200080041012108803AA2001D
:1027E00080302202031DF62B01302002031CF92B3E
:1027F000FA2BFE2B400119149811072C40011910D7
:1028000098154101A009A109A00A0319A10A4101D3
:102810002108F3002008F20092317C229331080055
:102820004001A600A401A5011E2C01304001A20018
:102830002208A6070130A4070030A53D260886001F
:10284000870101080319252C262C3D2C2108F300B3
:102850002008F2002608860087010108A200A301D3
:102860002208F4002308F50093310B2394317208F9
:10287000730403193C2C3D2C152C40012508A100A4
:102880002408A00008004001A600A401A501512CC5
:1028900001304001A2002208A6070130A407003041
:1028A000A53D26088600870101080319582C592CDC
:1028B000702C2108F3002008F2002608860087010A
:1028C0000108A200A3012208F4002308F5009331B7
:1028D0000B23943172087304031D6F2C702C482C49
:1028E00040012508A1002408A00008000030400194
:1028F000A3000030A2000030A1000030A000721C34
:10290000822C832C8C2C76084001A0077708A13DEF
:102910007808A23D7908A33D0130F635F70DF80D92
:10292000F90D890B8D2C0130F536F40CF30CF20CFB
:10293000890B942C7508740473047204031DA12C74
:10294000A22C7F2C40012308F5002208F400210866
:10295000F3002008F2000800F801F9017908803A34
:102960004001A00081302002031DB82C2C307802D9
:10297000031CBB2CBC2CBD2CE22C7908F30078087E
:10298000F2000A30F4000030F5009331472394310F
:1029900079084001A1007808A000A035A10D4030C1
:1029A000A2002B30A3002008220786002108233D27
:1029B00087007208C03F7308C13F0130F80700303C
:1029C000F93DAE2C08009231F2229431C030F20071
:1029D0001230F3009131A9219431D930F200123034
:1029E000F3009131AF2194319130F2001130F300B6
:1029F0009131B52194318B170B1788310020943118
:102A000000304101A000A1009331EC2394319431B6
:102A1000AC249431E8304001E6005830E7005430EF
:102A2000E8005030E900EC308B313A2394318831A2
:102A30008D209431803173209431913189219431EA
:102A40009731222794310A2D80312528400127080B
:102A5000F5002608F4002508F3002408F2002B08EE
:102A6000F9002A08F8002908F7002808F60089313B
:102A70000D21953103183D2D3E2D482D40012B0889
:102A8000A7002A08A6002908A5002808A4006A2D86
:102A900040012F08F5002E08F4002D08F3002C0843
:102AA000F2002708F9002608F8002508F700240896
:102AB000F60089310D21953103185F2D602D6A2DA7
:102AC00040012F08A7002E08A6002D08A5002C08FD
:102AD000A4006A2D0800F9007908031D702D712DDE
:102AE0007A2D7A08F9007908031D772D782D7A2D33
:102AF0000030B62D40012808A1002708A000790861
:102B000094314324953140012008A9002908F90790
:102B10007908860087010108031D8F2D902D932DC4
:102B2000FA010030B62D2808A1002708A000790876
:102B300094311024953140012008A9002108AA00F1
:102B400079082907FA007A08860087010108031925
:102B5000AA2DAB2DB42D7A088600870181010130A2
:102B6000A9002908FA07B52DFA0179080800F8012B
:102B7000F51FBB2DBC2DC32DF409F509F40A03196B
:102B8000F50AF801F80AF31FC62DC72DCC2DF2095E
:102B9000F309F20A0319F30A720873040319D12D19
:102BA000D22DFB2DF701F70ADE2D0130F235F30DA2
:102BB000890BD62D0130F6007608F707F31FE12DBB
:102BC000E22DD52D73087502031DE82D72087402DD
:102BD000031CEB2DEC2DF02D7208F4027308F53B6D
:102BE0000130F336F20C890BF12D0130F702031D91
:102BF000FA2DFB2DE22D78080319FF2D002E052E4E
:102C0000F409F509F40A0319F50A7508F3007408C4
:102C1000F200080040019A0199019601970198017C
:102C200007309500FF309100FF309200E7309300AD
:102C3000F8309400F8307E01D9009130CE00FF309A
:102C4000C3000730E400FF30B800DA01E501C40139
:102C5000B9010630CF00E601BA01C501D001DB01A0
:102C6000FF30BB00FF30C600FF30D100FF30DC007A
:102C70000730E700FF30BC00FF30C700FF30D20054
:102C8000FF30DD000F30E800D5105511D41054117D
:102C9000D31453158830F2001130F3009131A9217B
:102CA00096310230F2000030F3009131AF219631BD
:102CB0004E01161615307D01CB0010307E01A400A8
:102CC0000E30A9000800760877040319682E692ED3
:102CD0006F2E76087704031D6E2E6F2E742E7408E7
:102CE0009131BB219631C12E760886007708870086
:102CF00049311600010403197E2E7F2EA02E76087E
:102D00008600770887004931403F4001A000413FDD
:102D1000A10076088600770887004231403FA20074
:102D2000413FA3002308803AA4002108803A2402EE
:102D3000031D9C2E2008220203189F2EA02EC12EB8
:102D40007608860077088700423176088400770885
:102D50008500403F00074001A0000131413F003D98
:102D6000A1002008860021088700740881007608E9
:102D7000860077088700423101308107413103180E
:102D8000810A08004001A101F31FC72EC82ECF2ED3
:102D9000F209F309F20A0319F30AA101A10AF51FC6
:102DA000D22ED32EDC2EF409F509F40A0319F50A04
:102DB0000130F6007608A106A201A301720873048F
:102DC0000319E32EE42E132FA001A00AF02E0130E8
:102DD000F235F30D890BE82E0130F6007608A007D6
:102DE000F31FF32EF42EE72E0130A235A30D890B2D
:102DF000F52E73087502031DFF2E72087402031C62
:102E0000022F032F082F7208F4027308F53B2214D7
:102E10000130F336F20C890B092F0130A002031D9B
:102E2000122F132FF42E21080319172F182F1D2FDF
:102E3000A209A309A20A0319A30A2308F30022087E
:102E4000F20008004001CB01CC0100304001BC0081
:102E50009830BD004C08C4004B08C300C335C40DF6
:102E60009830C5002D30C600430845078600440849
:102E7000463D8700403FBE00413FBF004C08C800B0
:102E80004B08C700C735C80D4030C9002B30CA00F9
:102E900047084907860048084A3D8700403FC00070
:102EA000413FC10092314A22973140014C08803A9B
:102EB000C30081304302031D5F2F2B304B020318E8
:102EC000622F632F6B2F08304001BC009830BD008B
:102ED00092314A2297310B304001C3006230890B96
:102EE0006F2FC30B6F2F000001304001CB07003064
:102EF000CC3D4C08803AC30081304302031D822F31
:102F00002C304B02031C852F862F252F06304001C5
:102F1000BC009830BD0092314A229731080003105E
:102F20004001680D690DEF006F08031D982F992F60
:102F3000A22F0030E9000030E8000030E700003048
:102F4000E600FF2F6608EA006708EB006808EC005F
:102F50006908ED001F30ED36EC0CEB0CEA0C890B28
:102F6000AB2F6A08EE00E817FF30E605FF30E705F3
:102F7000FF30E8050030E9059630EF02EF1FC12F62
:102F8000C22FDA2F6F08803A973E0318C82FC92F37
:102F9000CA2F992F0130E936E80CE70CE60C890BB3
:102FA000CB2F0130EA006A08EF07031DD82FD92F75
:102FB000CA2FEF2F20306F02031CDF2FE02FEA2FE4
:102FC000992F0130E635E70DE80DE90D890BE22F69
:102FD0000130EF026F08031DEE2FEF2FE12F6E0877
:102FE0000319F32FF42FFF2FE609E709E809E90990
:102FF000E60A0319E70A0319E80A0319E90A0800AF
:10300000253469342C342534693400340A340034CE
:043010002C34003428
:020000040001F9
:0A000E00EC3FFF3F9F3FFF1FFF3F45
:00000001FF
