:10000000803102288731BC2F623051018D008F0171
:100010009101063093009201080040012308803AC4
:10002000FD0080307D02031D172801302202031CD1
:100030001A281B281F28400119149811262840014E
:10004000A31F232824282628191098152308F80010
:100050002208F7009E31FA2680317808FC007708E4
:10006000FB009F314827803108004201C800CB01C6
:10007000CC01903100208031003A031940284128FA
:1000800039289E31EA2680314201CE000A304E06E0
:1000900003194B284C2852280D304E06031D5128B9
:1000A000522859284B08203E8600013087008101E4
:1000B00065284B08203E8600013087004E088100ED
:1000C0000130CB070030CC3D39281B304101CF0037
:1000D000A030D0002030D1000130D2009F31332732
:1000E000803122304001A000A030A10020309231A8
:1000F000462280314201CD00C901CA01AB284D081A
:100100009431B1248031420149353E3E86000130B0
:1001100087007608C03F7708C13F17304101CF0004
:10012000A030D000420149353E3E860001308700B4
:10013000403F4101D100413FD2009F313327803100
:1001400022304001A000A030A100030192314622DC
:1001500080314201CD004D08031DAF28B0287F2813
:1001600048088600013087003E08C03F3F08C13F75
:1001700040084101E800420141084101E900003026
:10018000E91BFF30EA00EB006408860001308700BD
:100190006808C03F6908C13F6A08C23F6B08C33F97
:1001A00044304001A3007A30A2000030A1000030AA
:1001B000A00042014208F0004308F100890D893B8C
:1001C0008909F200F30001309531AC2580317308C4
:1001D0004001A7007208A6007108A5007008A400DD
:1001E000963156268031410165088600013087002E
:1001F00040012008C03F2108C13F2208C23F230818
:10020000C33F4430A3007A30A2000030A100003088
:10021000A00042014408F0004508F100890D893B27
:100220008909F200F30001309531AC258031730863
:100230004001A7007208A6007108A5007008A4007C
:1002400096315626803141016608860001308700CC
:1002500040012008C03F2108C13F2208C23F2308B7
:10026000C33F4430A3007A30A2000030A100003028
:10027000A00042014608F0004708F100890D893BC3
:100280008909F200F30001309531AC258031730803
:100290004001A7007208A6007108A5007008A4001C
:1002A000963156268031410167088600013087006B
:1002B00040012008C03F2108C13F2208C23F230857
:1002C000C33F4201A00108004101C10140015308A0
:1002D0004101C700400152084101C60040015108D8
:1002E0004101C500400150084101C40047084001D8
:1002F000B800410146084001B700410145084001EE
:10030000B600410144084001B5000030BC00003097
:10031000BB000030BA000030B90088311E208131A6
:10032000031893299429AB294101C101C10A470847
:10033000F3004608F2004508F1004408F0009E3141
:10034000B826813173084101C7007208C6007108E0
:10035000C5007008C4004101C201C30142016A081E
:100360004101B200420169084101B100410803198D
:10037000BA29BB29CB294108031DBF29C029C5299A
:100380002B30A6000030A700C9292D30A600003070
:10039000A7002608C1004708F3004608F2004508F8
:1003A000F1004408F00095312D258131700371046E
:1003B000031DDB29DC290F2A410141080319E1292A
:1003C000E229EE2941084401A000FF304101B107B4
:1003D000FF30B23D0130C2000030C3000F30F000EA
:1003E000A030F1004208203E9F3161278131FD306D
:1003F0004101B107FF30B23D40014F08A7004E0850
:10040000A6002030A800410132084001AA004101A5
:1004100031084001A9009031DA208131BB2F410120
:100420004708F3004608F2004508F1004408F000D0
:1004300095312D25813170087104031D202A212A50
:100440003D2A410141080319262A272A332A410857
:100450004401A000FF304101B107FF30B23D01303F
:10046000C2000030C3001330F000A030F100420899
:10047000203E9F3161278131F7293F304101CB0078
:100480008030CA000030C9000030C800AF01B001A0
:100490004708F3004608F2004508F1004408F00060
:1004A0000030F7000030F6000030F5000030F400B6
:1004B00091315121813103185E2A5F2AB02B6D2AB8
:1004C00041013608CB003508CA003408C90033089A
:1004D000C8000130AF070030B03D41304001A300FB
:1004E0002030A2000030A1000030A00041014B08E4
:1004F0004001A70041014A084001A6004101490806
:100500004001A500410148084001A4008D31C525E6
:100510008131400123084101B60040012208410118
:10052000B500400121084101B4004001200841010B
:10053000B300330844024001D50041013408453B73
:100540004001D60041013508463B4001D70041013A
:100550003608473B4001D8005808F3005708F2001E
:100560005608F1005508F0009F311E278131F31B1A
:10057000C72A7308031DC82A7208031DC82A7108F8
:10058000031DC82A02307002031CC72AC82A602A29
:10059000410136084001B800410135084001B7006B
:1005A000410134084001B600410133084001B50063
:1005B000410147084001BC00410146084001BB0021
:1005C000410145084001BA00410144084001B90019
:1005D00088311E208131031CEE2AEF2A602A410156
:1005E000480844024001D50041014908453B40010B
:1005F000D60041014A08463B4001D70041014B0863
:10060000473B4001D8005808F3005708F20056084D
:10061000F1005508F0009F311E278131F31B1F2B7D
:100620007308031D1E2B7208031D1E2B7108031D6A
:100630001E2B0230700203181E2B1F2B892B410129
:100640004B08C7004A08C6004908C5004808C4004E
:10065000B02B41304001A3002030A2000030A100A7
:100660000030A00041014B084001A70041014A08A9
:100670004001A600410149084001A5004101480888
:100680004001A400963156268131400123084101E2
:10069000CB00400122084101CA004001210841016C
:1006A000C900400120084101C800FF30AF07FF30FA
:1006B000B03D480844024001D50041014908453B8E
:1006C0004001D60041014A08463B4001D7004101A4
:1006D0004B08473B4001D8005808F3005708F20088
:1006E0005608F1005508F0009F311E278131F31B99
:1006F000882B7308031D872B7208031D872B710835
:10070000031D872B023070020318872B882B892B3F
:100710001F2B410147084001B80041014608400134
:10072000B700410145084001B600410144084001BD
:10073000B50041014B084001BC0041014A0840019D
:10074000BB00410149084001BA004101480840018D
:10075000B90088311E208131031CAF2BB02B292B0F
:10076000400154084101A9002908AA004201EC1BDC
:10077000BA2BBB2BC32B6C084101A30042016B08B1
:100780004101A200C82B06304101A2000030A300A5
:100790002308AE002208AD000130AD070030AE3DA9
:1007A00066302A06031DD52BD62BEE2BB01FD92B76
:1007B000DA2BE42B3F30CB008030CA000030C90078
:1007C0000030C800AF01B001673029060319E92BDA
:1007D000EA2BEE2B2F08AD073008AE3DB701B8016C
:1007E0004708BC004608BB004508BA004408B900E9
:1007F0004B08B6004A08B5004908B4004808B300E1
:10080000CE2C41014B084001A30041014A084001A0
:10081000A200410149084001A100410148084001EE
:10082000A00041013C084001A70041013B084001F4
:10083000A60041013A084001A500410139084001E4
:10084000A40096315626813140012308BD002208BC
:10085000BC002108BB002008BA008831A9208131E2
:1008600040013D084101C00040013C084101BF007A
:1008700040013B084101BE0040013A084101BD0072
:100880004008F3003F08F2003E08F1003D08F00088
:1008900093315823813171084101AC007008AB00DD
:1008A0004B084001A70041014A084001A600410150
:1008B00049084001A500410148084001A400410148
:1008C00040084001A30041013F084001A20041014E
:1008D0003E084001A10041013D084001A0008D31CA
:1008E000C525813140012308B8002208B70021083E
:1008F000B6002008B50041013C084001BC004101A0
:100900003B084001BB0041013A084001BA004101E7
:1009100039084001B9009F319B27813140013808D7
:100920004101BC00400137084101BB0040013608CD
:100930004101BA00400135084101B9004130400190
:10094000A3002030A2000030A1000030A00041012F
:100950004B084001A70041014A084001A60041019F
:1009600049084001A500410148084001A400963112
:1009700056268131400123084101CB004001220865
:100980004101CA00400121084101C900400120087D
:100990004101C8000130B7070030B83D3808803A3F
:1009A0004001D50041012E08803A40015502031D47
:1009B000DC2C41012D083702031CDF2CE02C012C1C
:1009C00040304001A300A030A2000030A100003060
:1009D000A00041014B084001A70041014A08400125
:1009E000A600410149084001A50041014808400115
:1009F000A4008D31C5258131400123084101C0008B
:100A0000400122084101BF00400121084101BE0010
:100A1000400120084101BD003C084001B8004101EF
:100A20003B084001B70041013A084001B6004101CE
:100A300039084001B500410140084001BC004101B6
:100A40003F084001BB0041013E084001BA0041019E
:100A50003D084001B90088311E2081310318312D35
:100A6000322D3C2D00304101C0000030BF0000306D
:100A7000BE000030BD00612D41013C08F3003B0881
:100A8000F2003A08F1003908F0004008F7003F088A
:100A9000F6003E08F5003D08F40091315121813106
:100AA000031C532D542D612D41012B18582D592D08
:100AB000612D0030C0000030BF000030BE000030AB
:100AC000BD0041014008F3003F08F2003E08F1007C
:100AD0003D08F0004708F7004608F6004508F50015
:100AE0004408F40089319421813173084101BC002C
:100AF0007208BB007108BA007008B9003C084001D8
:100B0000B80041013B084001B70041013A084001EB
:100B1000B600410139084001B5004130A300203042
:100B2000A2000030A1000030A000410136084001C1
:100B3000A700410135084001A600410134084001E9
:100B4000A500410133084001A4008D31C525813144
:100B500040012308BC002208BB002108BA0020087D
:100B6000B90088311E208131031CB72DB82DF32D1B
:100B700001304101AF070030B03D41304001A300DA
:100B80002030A2000030A1000030A0004101360852
:100B90004001A700410135084001A6004101340889
:100BA0004001A500410133084001A4008D31C52555
:100BB0008131400123084101B60040012208410172
:100BC000B500400121084101B40040012008410165
:100BD000B30066302A06031DEE2DEF2DF32D0130F4
:100BE000AD070030AE3D41013608CB003508CA00E4
:100BF0003408C9003308C8003008A1002F08A0003D
:100C0000A801A401A501B701B8013B2F41014B0880
:100C10004001A30041014A084001A20041014908E6
:100C20004001A100410148084001A00041013C08E9
:100C30004001A70041013B084001A60041013A08DC
:100C40004001A500410139084001A4009631562613
:100C5000813140012308BD002208BC002108BB00EF
:100C60002008BA008831A920813140013D084101A6
:100C7000C00040013C084101BF0040013B08410168
:100C8000BE0040013A084101BD004008F3003F08A2
:100C9000F2003E08F1003D08F00093315823813105
:100CA0007108803A4001D50080305502031D5A2E4C
:100CB0000A30700203185D2E5E2E702E410140082E
:100CC000F3003F08F2003E08F1003D08F0009331C8
:100CD0005823813171084101AC007008AB00752EBA
:100CE00009304101AB000030AC002808031D792E0B
:100CF0007A2EA32EA11F7D2E7E2EA32E4208203EEB
:100D00008600023087002E3081000130C20700309B
:100D1000C33DFF30B107FF30B23DA801A80AA32EA2
:100D20004208203E860002308700303081000130CA
:100D3000C2070030C33DFF30B107FF30B23DFF3086
:100D4000A407FF30A53D24082504031DA82EA92EC5
:100D5000902E4208203E8600023087002B08303E4D
:100D600081000130C2070030C33DFF30B107FF30C2
:100D7000B23D4B084001A70041014A084001A600CE
:100D8000410149084001A500410148084001A40073
:100D9000410140084001A30041013F084001A20079
:100DA00041013E084001A10041013D084001A00071
:100DB0008D31C525813140012308B8002208B700D4
:100DC0002108B6002008B50041013C084001BC00E4
:100DD00041013B084001BB0041013A084001BA0013
:100DE000410139084001B9009F319B278131400101
:100DF00038084101BC00400137084101BB004001F7
:100E000036084101BA00400135084101B9004130BE
:100E10004001A3002030A2000030A1000030A0005B
:100E200041014B084001A70041014A084001A600CA
:100E3000410149084001A500410148084001A400C2
:100E4000963156268131400123084101CB004001F3
:100E500022084101CA00400121084101C9004001A6
:100E600020084101C800FF30A007FF30A13D01303C
:100E7000B7070030B83D3808803A4001D50041013D
:100E80002E08803A40015502031D492F41012D08CB
:100E9000370203184C2F4D2F5D2F41014308803A34
:100EA0004001D50080305502031D592F4B304101C0
:100EB0004202031C5C2F5D2F062E4F304101B7000C
:100EC0000030B8003708203E8600023087008101DC
:100ED0002030F0004308F2004208F10020304001C9
:100EE000D5004101420840015502410137079031C8
:100EF00028208131410142083702C2004308383BB3
:100F0000C3004108031D852F872F0130882F003033
:100F10004001D500D60155084101B70040015608EF
:100F20004101B80041080319962F972FA22FFF30D7
:100F3000C207FF30C33D4208203E860002308700D2
:100F4000410881003708B1023808B23B40014F0820
:100F5000A7004E08A60041014208203E4001A8001B
:100F6000410132084001AA00410131084001A900B5
:100F70009031DA208131080043019E318A26873181
:100F8000B0009E318B268731B1009E318C2687318F
:100F9000B2009E318D268731B300D03084002C30D2
:100FA00085002030FE000330FF009E31C3268731CC
:100FB0004101EC01ED01EE0161308400013085005A
:100FC0000C30FE000030FF009E31C3268731A03078
:100FD0008400013085000C30FE000030FF009E319F
:100FE000C326873120308400023085005030FE0057
:100FF0000030FF009E31C3268731400194313C2CE4
:10100000700884007108850000087206031D092815
:101010000A280B281D287108F5007008F400F00A52
:101020000319F10A74088400750885001200031D75
:101030001A281B280028F001F101080000304001A7
:101040003505BD0000303605BE0080303705BF00D5
:101050007F303805C00040083F043E043D04031DB6
:10106000322833283B280030B8000030B700003069
:10107000B6000030B50000303905BD0000303A053B
:10108000BE0080303B05BF007F303C05C0004008FB
:101090003F043E043D04031D4E284F2857280030CE
:1010A000BC000030BB000030BA000030B900B81FEF
:1010B0005A285B2873280030BD000030BE00003085
:1010C000BF008030C0003508BD023608BE3B37087F
:1010D000BF3B3808C03B4008B8003F08B7003E0897
:1010E000B6003D08B500BC1F762877288F28003051
:1010F000BD000030BE000030BF008030C0003908A5
:10110000BD023A08BE3B3B08BF3B3C08C03B400821
:10111000BC003F08BB003E08BA003D08B900803063
:10112000B8068030BC063C083802031DA1283B08E5
:101130003702031DA1283A083602031DA1283908E9
:1011400035020318A428A528A7280310A8280314EB
:101150000800420164084001CD00420163084001DB
:10116000CC00420162084001CB004201610840010D
:10117000CA003D08CD003C08CC003B08CB003A0833
:10118000CA004A08BE004B08BF004C08C0004D080A
:10119000C1001730C136C00CBF0CBE0C890BCA2869
:1011A000FF303E05C20000303F05C3004208813ECB
:1011B000C800FF30433DC9004908803ABE00803076
:1011C0003E02031DE52817304802031CE828E928E1
:1011D000EA2893294001C91BEE28EF284C29FF304B
:1011E000BE00FF30BF007F30C0000030C100480AA1
:1011F000FD28C137C00CBF0CBE0C890BF928410873
:10120000C7004008C6003F08C5003E08C4004A08A1
:101210004405BE004B084505BF004C084605C0000C
:101220004D084705C100410840043F043E04031D2A
:101230001A291B291C29E9284A08BE004B08BF00AF
:101240004C08C0004D08C1001F30C136C00CBF0C97
:10125000BE0C890B2529410840043F043E040319B4
:10126000322933293B294408CA074508CB3D4608A3
:10127000CC3D4708CD3D4409BE004509BF004609A5
:10128000C0004709C1003E08CA053F08CB05400819
:10129000CC054108CD058B294A08BE004B08BF008C
:1012A0004C08C0004D08C1001F30C136C00CBF0C37
:1012B000BE0C890B5529410840043F043E04031D20
:1012C000622963296C290030CD000030CC00003049
:1012D000CB000030CA008B294A08BE004B08BF0073
:1012E0004C08C0004D08C1000130BE35BF0DC00D17
:1012F000C10D890B7529410840043F043E040319C0
:10130000822983298B29BF30CD008030CC0000306A
:10131000CB000030CA004D08BD004C08BC004B0893
:10132000BB004A08BA00080073088039F80073351A
:10133000FA00F21F9C299D299E297A147A08031924
:10134000A229A329B3297A0A031DA729A829B0290C
:101350000030F3000030F2000030F1000030F00007
:10136000F217F301BB290030F3000030F200003027
:10137000F1000030F00077088039F900790878062C
:101380000319C329C429C52978177735F900F61F31
:10139000CA29CB29CC29791479080319D029D12954
:1013A000E129790A031DD529D629DE290030F70065
:1013B0000030F6000030F5000030F400F617F701B9
:1013C000E9290030F7000030F6000030F500003069
:1013D000F4007A0879020318EE29EF29162A781FFB
:1013E000F229F329F82980304001A0002008F806EE
:1013F0007A08FB007908FA007B08F9007008FB0006
:101400007408F0007B08F4007108FB007508F10017
:101410007B08F5007208FB007608F2007B08F600F6
:101420007308FB007708F3007B08F700FB017908DD
:101430004001A000A1012108A3007A082002A20017
:10144000031CA3032308803AA40080302402031D58
:101450002B2A1A302202031C2E2A2F2A612A7308F3
:10146000720471047004031D362A382A0130392AA7
:101470000030FB000030F3000030F2000030F100DB
:101480000030F0007908FA00672A7B1C482A492AB4
:101490004D2A7B360138FB004F2A0310FB0C701CD1
:1014A000522A532A542AFB1701304001A000F33777
:1014B000F20CF10CF00CA00B572A0130A000200810
:1014C000FA0779087A02031C662A672A452A781BDC
:1014D0006A2A6B2AA22A7A08031D6F2A702A792A9F
:1014E0000030F3000030F2000030F1000030F00076
:1014F0009F2B7408F0077508F13D7608F23D7708D8
:10150000F33D731C842A852A2F2B7B1C882A892A69
:101510008D2A7B360138FB008F2A0310FB0C701CD0
:10152000922A932A942AFB1701304001A000F33736
:10153000F20CF10CF00CA00B972A0130A00020084F
:10154000FA072F2B7308803A4001A0007708803AF1
:101550002002031DB52A76087202031DB52A7508FC
:101560007102031DB52A740870020318B82AB92A3B
:10157000F12AFF30A000FF30A100FF30A200FF30B1
:10158000A30070087402A4007108753BA5007208DE
:10159000763BA6007308773BA7002408A007250820
:1015A000A13D2608A23D2708A33D2308F3002208F9
:1015B000F2002108F1002008F0008030A00020088F
:1015C000F806FB09FB0A7B08031DE72AE82AF92A2B
:1015D0000130F0070030F13D0030F23D0030F33DC6
:1015E000F92A7408F0027508F13B7608F23B770897
:1015F000F33B7308720471047004031D002B012B6C
:101600002B2B7B08031D052B062B2B2B0030F30007
:101610000030F2000030F1000030F0009F2B01306C
:10162000F035F10DF20DF30D890B102BFB1F192B6B
:101630001A2B1B2B70147B1C1E2B1F2B222B03140D
:10164000FB0D242B0310FB0D7A080319282B292BE3
:101650002B2B0130FA02F21F2E2B2F2B0F2BF9010F
:10166000FB1F332B342B422B7B087F390319392B7B
:101670003A2B3D2BF901F90A422B701C402B412BD0
:10168000422B3A2B79080319462B472B752B013037
:10169000F0070030F13D0030F23D0030F33D731CA7
:1016A000522B532B752B70084001A0007108A1002C
:1016B0007208A2007308A3000130A400A337A20C93
:1016C000A10CA00CA40B5E2B2308F3002208F2004F
:1016D0002108F1002008F0007A0A0319702B712B01
:1016E000752B0130A0002008FA077A0A0319792B1C
:1016F0007A2B7F2B7A08031D7E2B7F2B8D2B0030BE
:10170000F3000030F2000030F1000030F0007A0801
:10171000031D8B2B8C2B8D2BF8017A1C902B912B7E
:10172000932BF217982B7F304001A0002008F20580
:101730007A36F300F81F9D2B9E2B9F2BF317080082
:1017400040015B0886008701403FDD00413FDE002D
:101750005D0884005E0885001200253A031DB12B48
:10176000B22BAA2D5B088600870101308107413129
:101770000318810A4201E901EA010310003003184D
:1017800001304101ED00FF304201EB00FF30EC0081
:1017900040015B0886008701403FE800413FE900C7
:1017A00068088400690885001200643A0319D92B7F
:1017B000DA2BE42B68088400690885001200693A76
:1017C000031DE32BE42B712C5C08860087010108C4
:1017D0008400850102308107003FE400013FE500FD
:1017E0006808013EDD000030693DDE005B088600D0
:1017F00087015D08C03F5E08C13F5030EA00E51B2D
:10180000022C042C0130052C0030E3000130EA02E8
:101810006A08203E8600023087000A30F00000305F
:10182000F1006508F3006408F20091319F218B31CB
:101830007108F8007008F7009E31FA268B3177089E
:10184000303E81000A30F0000030F10040016508B0
:10185000F3006408F2009231F9228B3171084001E3
:10186000E5007008E400640865040319382C392C7D
:101870003E2C6A08031D3D2C3E2C062C6A080319D9
:10188000422C432C6A2C63080319472C482C6A2CE1
:101890000130EA026A08203E8600023087002D30BF
:1018A00081006A2C6A08203E860002308700010809
:1018B000DD00DE015D08F2005E08F3005A08F50065
:1018C0005908F40092319C228B3101304001DD0037
:1018D0005D08EA0750306A06031D6F2C702C522CED
:1018E000C42DE3015B0886008701403FDD00413FD6
:1018F000DE005D0884005E0885001200733A031D57
:10190000822C832C8E2C5B08860087010130810796
:1019100041310318810AE301E30AD02C5B088600F9
:101920008701403FDD00413FDE005D0884005E0826
:10193000850012006C3A031D9E2C9F2CD02C5B0856
:1019400086008701403FDD00413FDE0001305D073A
:1019500084005E0803185E0A850012006C3A031DBD
:10196000B22CB32CD02C5B0886008701403FDD00F1
:10197000413FDE0002305D0784005E0803185E0A06
:1019800085001200733A031DC62CC72CD02C5B08AF
:10199000860087010330810741310318810A8B2CAF
:1019A00063080319D42CD52C032D5C08860087010D
:1019B00001088400850102308107003FE100013FFA
:1019C000E200F92C61088600620887000108DD004A
:1019D000DE015D08F2005E08F3005A08F5005908C0
:1019E000F40092319C228B3101304001E10700303C
:1019F000E23D61088600620887000108031D012D91
:101A0000022DE22CC42D5B0886008701403FE800D0
:101A1000413FE90068088400690885000008EA0081
:101A20001B2D0130E8070030E93D2E2D6C30EA0017
:101A30002E2DEA012E2D6A08DD00DE015E08003A37
:101A40000319232D192D5D084C3A0319112D2A3A3B
:101A50000319162D0A3A0319112D192D680884004F
:101A6000690885001200663A031D372D382DA02D18
:101A70005B2D5C0886008701010884008501043025
:101A80008107003FE400013FE500023FE600033F1D
:101A9000E7006B2D5C088600870101088400850142
:101AA00004308107003FE400013FE500023FE6000B
:101AB000033FE7006B2D6A08DD00DE015E08003A97
:101AC0000319632D6B2D5D084C3A03194A2D203AFA
:101AD0000319392D6B2D6808013EDD000030693D8A
:101AE000DE005B08860087015D08C03F5E08C13FDD
:101AF0008F2D5A08CF005908CE006708D30066081A
:101B0000D2006508D1006408D00068088400690824
:101B100085000008D400813164218B31C42D680810
:101B20008400690885000008DD00DE015E08003AD7
:101B300003199B2DA02D5D08663A0319792DA02D60
:101B400040015B088600870101308107413103189D
:101B5000810AC42D5B0886008701403FDD00413FBC
:101B6000DE005D0884005E0885000008DF00E001FB
:101B70005F08F2006008F3005A08F5005908F40005
:101B800092319C228B31A02D08004001230880391E
:101B9000A8002335AE00A21FCE2DCF2DD02D2E14A0
:101BA0002E080319D42DD52DE42D2E0A031DD92D71
:101BB000DA2DE22D0030A3000030A2000030A10099
:101BC0000030A000A217EC2D0030A3000030A200CE
:101BD0000030A1000030A00027088039F900790802
:101BE000A8062735AD00A61FF62DF72DF82D2D14CC
:101BF0002D080319FC2DFD2D0C2E2D0A031D012E81
:101C0000022E0A2E0030A7000030A6000030A500EA
:101C10000030A400A617142E0030A7000030A60044
:101C20000030A5000030A4002D080319182E192E2D
:101C30001E2E2E08031D1D2E1E2E272E0030A30043
:101C40000030A2000030A1000030A000FF2F2008CB
:101C5000F00026089F31DD278D3171084001B40066
:101C60007008B3003308F900FA01FB01FC017C089D
:101C7000AC007B08AB007A08AA007908A9003408F8
:101C8000F900FA01FB01FC017C08B2007B08B100FD
:101C90007A08B0007908AF002108F00025089F31CC
:101CA000DD278D3171084001B4007008B30033089E
:101CB000F900FA01FB01FC017908A9077A08AA3D9D
:101CC0007B08AB3D7C08AC3D3408F900FA01FB0110
:101CD000FC017908AF077A08B03D7B08B13D7C086C
:101CE000B23D2208F00024089F31DD278D317108B4
:101CF0004001B4007008B3003308F900FA01FB0199
:101D0000FC017908A9077A08AA3D7B08AB3D7C084D
:101D1000AC3D3408F900FA01FB01FC017908AF077A
:101D20007A08B03D7B08B13D7C08B23D0830A9354A
:101D3000AA0DAB0DAC0D890B972E2108F0002408DD
:101D40009F31DD278D3171084001B4007008B30068
:101D50003308A9073408AA3D0030AB3DAC3D20084C
:101D6000F00025089F31DD278D3171084001B40056
:101D70007008B3003308A9073408AA3D0030AB3D12
:101D8000AC3D0830A935AA0DAB0DAC0D890BC22EA8
:101D90002008F00024089F31DD278D3171084001B3
:101DA000B4007008B3003308A9073408AA3D003016
:101DB000AB3DAC3D2108F00026089F31DD278D3179
:101DC00071084001B4007008B3003308AF0734084D
:101DD000B03D0030B13DB23D2208F00025089F31F2
:101DE000DD278D3171084001B4007008B30033085D
:101DF000AF073408B03D0030B13DB23D2208F000DD
:101E000026089F31DD278D3171084001B40070082C
:101E1000B3003308F9003408FA00FB01FC01083074
:101E2000F935FA0DFB0DFC0D890B102F7908AF0762
:101E30007A08B03D7B08B13D7C08B23D2908F90025
:101E40002A08FA002B08FB002C08FC001830FC368E
:101E5000FB0CFA0CF90C890B272F7908AF077A08CD
:101E6000B03D7B08B13D7C08B23D0830A935AA0DD4
:101E7000AB0DAC0D890B362F2E082D07F900FA019A
:101E8000FA0D7908823EB300FF307A3DB4005F2F2F
:101E90000130AF35B00DB10DB20D890B492FAC1F1C
:101EA000522F532F542F2F140130A935AA0DAB0DEB
:101EB000AC0D890B552FFF30B307FF30B43DB11F78
:101EC000622F632F482FAD01AC1F672F682F842F1F
:101ED000FF302905F900FF302A05FA00FF302B05F5
:101EE000FB007F302C05FC007C087B047A0479041D
:101EF00003197B2F7C2F7F2FAD01AD0A842F2F1C60
:101F0000822F832F842F7C2F2D080319882F892F50
:101F1000B12F0130AF070030B03D0030B13D00308F
:101F2000B23D321C942F952FB12F2F08F9003008A5
:101F3000FA003108FB003208FC000130FD00FC37DC
:101F4000FB0CFA0CF90CFD0B9F2F7C08B2007B08F0
:101F5000B1007A08B0007908AF000130B307003053
:101F6000B43D3408803AF90080307902031DBA2F5D
:101F7000FF303302031CBD2FBE2FC82F7F3040011E
:101F8000B2008030B1000030B0000030AF00F32F5D
:101F900040013408803AF90080307902031DD22FC5
:101FA000013033020318D52FD62FE12F0030400126
:101FB000B2000030B1000030B0000030AF00A80126
:101FC000F32F40013308AE00FF30AF05FF30B005FE
:101FD0007F30B1050030B2052E1CEF2FF02FF12F0E
:101FE000B1172E36B2002808F9007908B204320879
:101FF000A3003108A2003008A1002F08A0000800AB
:102000004E010F0E890C0139080040016E08410194
:10201000CE0040016D084101CD001A2840016C0836
:10202000DA006B08D900CD30DB006F08DC008B31A3
:10203000A023903141014D0884004E088500120014
:10204000031D232824280E284001EB01EC01080081
:10205000F5007008F7007508F6004228770886003A
:10206000023087000108F4000130F3007308F7071D
:102070007608860002308700740881000130F30082
:102080007308F6070130F1020030F23B710A031DBC
:102090004D28720A031D4D284E282E2808004001A5
:1020A000A500A301A40167282208A000A10120081F
:1020B000F2002108F3007C08F5007B08F40092315F
:1020C0009C22903101304001A3070030A43D230839
:1020D0002507A00020088600023087000108A20022
:1020E0002208031D7428752854280800FD00FB01F0
:1020F000FC0182280130F9007908FD070130FB0757
:102100000030FC3D7D08860001308700010803197E
:102110008A288B28A3287808F1007708F0007D082A
:102120008600013087000108F900FA017908F20001
:102130007A08F30088310020903170087104031987
:10214000A228A3287A287C08F8007B08F70008005A
:10215000FD00FB01FC01B4280130F9007908FD07FE
:102160000130FB070030FC3D7D0886000130870010
:1021700001080319BC28BD28D5287808F100770884
:10218000F0007D088600013087000108F900FA019F
:102190007908F2007A08F300883100209031700845
:1021A0007104031DD428D528AC287C08F8007B08CE
:1021B000F70008004001AA1FDE28DF28E128A90156
:1021C000AA01AB01AC01F5282030F2000030F30089
:1021D00040012708F5002608F40092319C22903136
:1021E00001304001AB070030AC3D2C08803AFD00C7
:1021F0002A08803A7D02031DFF2829082B02031CB0
:1022000002290329E42840012708FC002608FB00D6
:10221000280890314F209031080040019A0199011F
:1022200096019701980107309500FF309100BF306B
:102230009200E7309300FC309400FC307E01D9001E
:102240009730CE00FF30C3000730E400FF30B80005
:10225000DA01E501C401B901CF01E601BA01C50106
:10226000D001DB01FF30BB00FF30C600FF30D100E2
:10227000FF30DC000730E700FF30BC00FF30C70054
:10228000FF30D200FF30DD000F30E80015307D0157
:10229000CB0010307E019E001030A4000E30A9004B
:1022A000080000307005F80000307105F90080303A
:1022B0007205FA007F307305FB007B087A0479040D
:1022C0007804031D642965296D290030F30000306E
:1022D000F2000030F1000030F00000307405F8002A
:1022E00000307505F90080307605FA007F307705FB
:1022F000FB007B087A0479047804031D8029812976
:1023000089290030F7000030F6000030F500003079
:10231000F40077087306031D972976087206031DDB
:10232000972975087106031D97297408700603190B
:102330009A299B299D2903109E2903140800F60160
:10234000F31FA329A429AB29F209F309F20A0319FF
:10235000F30AF601F60AF11FAE29AF29B429F009F4
:10236000F109F00A0319F10A700871040319B92977
:10237000BA29E329F501F50AC6290130F035F10D36
:10238000890BBE290130F4007408F507F11FC92933
:10239000CA29BD2971087302031DD0297008720271
:1023A000031CD329D429D8297008F2027108F33B01
:1023B0000130F136F00C890BD9290130F502031DEB
:1023C000E229E329CA2976080319E729E829ED2932
:1023D000F209F309F20A0319F30A7308F10072080B
:1023E000F0000800FA01FB017B08803AF60080301B
:1023F0007602031DFD29C8307A02031C002A012A37
:10240000022A452A7B08F1007A08F0000A30F2001F
:102410000030F3009F317C2791317B08F7007A0868
:10242000F600F635F70DD030F8002C30F9007608BC
:10243000780786007708793D87007008C03F7108EB
:10244000C13F7B08F1007A08F0000A30F20000304A
:10245000F3009F317C2791317B08F7007A08F60062
:10246000F635F70D6030F8002E30F9007608780761
:1024700086007708793D87007008C03F7108C13F2A
:102480000130FA070030FB3DF42908004001A400A8
:102490002408031D4C2A4D2A582A41016C0840018A
:1024A000A4002408031D552A562A582A00309B2AC6
:1024B0002108F8002008F70024089031A820923164
:1024C00077084001A2002208A407240886000130F2
:1024D00087000108031D6D2A6E2A722A4101EC0152
:1024E00000309B2A2108F8002008F70024089031CA
:1024F0007620923177084001A2007808A3002408D2
:1025000022074101EC006C088600013087000108B9
:1025100003198B2A8C2A982A6C08860001308700C0
:10252000810101304001A20022084101EC07992AF3
:10253000EC01400124080800740875040319A12A5D
:10254000A22AA82A74087504031DA72AA82AAD2A5E
:1025500072089E31A0269231F82A74088600750808
:1025600087004931160001040319B72AB82AD82A6E
:1025700074088600750887004931403FF600413FE6
:10258000F70074088600750887004231403FF80064
:10259000413FF9007908803AFA007708803A7A02D8
:1025A000031DD42A760878020318D72AD82AF82AD5
:1025B0007408860075088700423174088400750825
:1025C0008500403F0007F6000131413F003DF70024
:1025D00076088600770887007208810074088600F4
:1025E0007508870042310130810741310318810AA3
:1025F0000800F601F11FFD2AFE2A052BF009F1095A
:10260000F00A0319F10AF601F60AF31F082B092B49
:10261000122BF209F309F20A0319F30A0130F4004C
:102620007408F606F701F801700871040319192BF4
:102630001A2B492BF501F50A262B0130F035F10D47
:10264000890B1E2B0130F4007408F507F11F292BAC
:102650002A2B1D2B0130F735F80D890B2B2B710818
:102660007302031D352B70087202031C382B392BA3
:102670003E2B7008F2027108F33B77140130F136FB
:10268000F00C890B3F2B0130F502031D482B492B21
:102690002A2B760803194D2B4E2B532BF709F809DB
:1026A000F70A0319F80A7808F1007708F000080023
:1026B0000310720D730DF9007908031D602B612B57
:1026C0006A2B0030F3000030F2000030F1000030DF
:1026D000F000C72B7008F4007108F5007208F600CE
:1026E0007308F7001F30F736F60CF50CF40C890B65
:1026F000732B7408F800F217FF30F005FF30F10576
:10270000FF30F2050030F3059630F902F91F892BEE
:102710008A2BA22B7908803A973E0318902B912B95
:10272000922B612B0130F336F20CF10CF00C890B7B
:10273000932B0130F4007408F907031DA02BA12B83
:10274000922BB72B20307902031CA72BA82BB22B7E
:10275000612B0130F035F10DF20DF30D890BAA2B31
:102760000130F9027908031DB62BB72BA92B780885
:102770000319BB2BBC2BC72BF009F109F209F30994
:10278000F00A0319F10A0319F20A0319F30A0800FF
:102790004101E801E9011F304101CF00A030D00024
:1027A0006908E5006808E400E435E50D6030E600FE
:1027B0002E30E7006408660786006508673D8700DD
:1027C000403FD100413FD2009F3133279331223027
:1027D0004101CF00A030D0009F31332793311F300B
:1027E0004101CF00A030D0006908E5006808E4008E
:1027F000E435E50DD030E6002C30E70064086607CC
:1028000086006508673D8700403FD100413FD20008
:102810009F313327933141016908803AE4008030C9
:102820006402031D152CC73068020318182C192CDC
:10283000212C22304101CF00A030D0009F3133271E
:10284000933101304101E8070030E93D6908803AE1
:10285000E40080306402031D2F2CC8306802031C82
:10286000322C332CCB2B19304101CF00A030D000BB
:102870009F313327933108009F310B27943100306B
:102880004001A200A30080310D2094319131F2214A
:10289000943102304201DF000030E0004F3041014E
:1028A000E4005330E5005730E6005B30E7005F306E
:1028B00080313520943100304101CF00A030D0006C
:1028C000420160084101D20042015F084101D1008C
:1028D000420152084101D600420151084101D50090
:1028E000420150084101D40042014F084101D30088
:1028F000420156084101DA00420155084101D90060
:10290000420154084101D800420153084101D70057
:1029100042015A084101DE00420159084101DD002F
:10292000420158084101DC00420157084101DB0027
:1029300042015E084101E20042015D084101E100FF
:1029400042015C084101E00042015B084101DF00F7
:102950009F31332794319331C8239431492C8031EE
:102960000228FD00FB01FC01FA01BA2C0130F8003D
:102970007808FD077D0886000130870020300106B9
:102980000319C32CC42CB62C7D08860001308700A7
:10299000F7300107F80005307802031CD02CD12C49
:1029A000B62C7D088600013087002D300106031DFE
:1029B000DA2CDB2CE22CFA01FA0A0130F800780854
:1029C000FD070A2D7D088600013087002B300106A7
:1029D000031DEB2CEC2C0A2DDD2C7D08860001302C
:1029E00087007C08F1007B08F0000A30F20000301C
:1029F000F3009F317C2794317108F90001087002BF
:102A0000F800031CF9037808303EFB000030793DE4
:102A1000FC00DD2C7D08860001308700D0300107E6
:102A2000F8000A307802031C162D172DED2C7A08B9
:102A3000031D1B2D1C2D282D7B09F8007C09F90096
:102A4000F80A0319F90A7808F6007908F7002C2D1E
:102A50007C08F7007B08F600080042016808400186
:102A6000A500420167084001A40042016608400138
:102A7000A300420165084001A2007308A500720886
:102A8000A4007108A3007008A2002208F400230823
:102A9000F5002408F6002508F7001730F736F60C85
:102AA000F50CF40C890B4E2DFF307405A00000309E
:102AB0007505A10020082104031D5F2D602D812DC7
:102AC0002208F4002308F5002408F6002508F70082
:102AD0000130F435F50DF60DF70D890B692D7708EA
:102AE000760475047404031D762D772D7C2D023039
:102AF000F0000030F100AB2D0330F0000030F100A9
:102B0000AB2D200A2104031D862D872DA72D220819
:102B1000F4002308F5002408F6002508F700093022
:102B2000F435F50DF60DF70D890B902D7708760429
:102B30007504740403199D2D9F2D0130A02D0030C4
:102B4000F800F9017808F0007908F100AB2D0430A5
:102B5000F0000030F1000800F80078080319B12DEA
:102B6000B22DC62DF31FB52DB62DC62D7009FA0056
:102B70007109FB007209FC007309FD00FA0A0319D0
:102B8000FB0A0319FC0A0319FD0ACE2D7308FD0088
:102B90007208FC007108FB007008FA0073087204E8
:102BA00071047004031DD52DD62DDF2D0030F300E8
:102BB0000030F2000030F1000030F000552E963069
:102BC000F900ED2D0130F4007408F9070130FD36ED
:102BD000FC0CFB0CFA0C890BE72DFE307D05031D68
:102BE000F22DF32DE22D072E0130F4007408F907C1
:102BF0000130FA070030FB3D0030FC3D0030FD3D68
:102C00000130FD36FC0CFB0CFA0C890B012EFF3059
:102C10007D05031D0C2E0D2EF42D172E0130F9020B
:102C20000130FA35FB0DFC0DFD0D890B112EFC1B3F
:102C30001A2E1B2E212E023079020318202E212E4F
:102C40000E2E7918242E252E2D2EFF30FA05FF305A
:102C5000FB057F30FC05FF30FD050310F90C7908FA
:102C6000F400F501F601F7011830F435F50DF60D15
:102C7000F70D890B352E7408FA047508FB047608E5
:102C8000FC047708FD0478080319472E482E4D2EC2
:102C9000F31F4B2E4C2E4D2EFD177D08F3007C08A4
:102CA000F2007B08F1007A08F000080040012708D4
:102CB0008039B1002735B800A61F5F2E602E612E27
:102CC000381438080319652E662E762E380A031D2F
:102CD0006A2E6B2E732E0030A7000030A600003045
:102CE000A5000030A400A617A7017E2E0030A70083
:102CF0000030A6000030A5000030A4002308803971
:102D0000A8002808B1062335B900A21F882E892EF5
:102D10008A2E3914390803198E2E8F2E9F2E390AC8
:102D2000031D932E942E9C2E0030A3000030A20091
:102D30000030A1000030A000A217A301A72E003090
:102D4000A3000030A2000030A1000030A000230842
:102D5000220421042004031DAE2EAF2EC82E003005
:102D6000A7000030A6000030A5000030A40080308D
:102D7000A6047F30A7043108A8002808A704270864
:102D8000A3002608A2002508A1002408A000FF2F08
:102D90003808031DCC2ECD2ED62E0030A3000030D7
:102DA000A2000030A1000030A000FF2F3808A800CA
:102DB000A9012908AB0039082802AA00031CAB03AB
:102DC0002A087F3EB20000302B3DB3002708B00038
:102DD0002608AF002508AE002408AD000030A7008B
:102DE0000030A6000030A5000030A4000030B7007D
:102DF0000030B6000030B5000030B400B9013E2FFD
:102E000039080319042F052F1F2F0130AD35AE0DE2
:102E1000AF0DB00D890B062F0130A435A50DA60D01
:102E2000A70D890B0D2FB71F162F172F182F24143E
:102E30000130B435B50DB60DB70D890B192F230828
:102E40003002031D2D2F22082F02031D2D2F2108D4
:102E50002E02031D2D2F20082D02031C302F312F91
:102E60003A2F37172008AD022108AE3B2208AF3BAE
:102E70002308B03B0130A8002808B9071A303902EE
:102E8000031C432F442F002F30082F042E042D0441
:102E900003194B2F4C2F652F3414652F0130A435A7
:102EA000A50DA60DA70D890B4F2FB71F582F592F12
:102EB0005A2F24140130B435B50DB60DB70D890B5A
:102EC0005B2FFF30B207FF30B33DA61F682F692F7D
:102ED0004E2FB901B71F6D2F6E2F8A2FFF3034058B
:102EE000A800FF303505A900FF303605AA007F3065
:102EF0003705AB002B082A04290428040319812F65
:102F0000822F852FB901B90A8A2F241C882F892F77
:102F10008A2F822F390803198E2F8F2FB72F013058
:102F2000A4070030A53D0030A63D0030A73D271C7A
:102F30009A2F9B2FB72F2408A8002508A900260840
:102F4000AA002708AB000130AC00AB37AA0CA90CD3
:102F5000A80CAC0BA52F2B08A7002A08A60029084F
:102F6000A5002808A4000130B2070030B33D3308A3
:102F7000803AA80080302802031DC02FFF303202A3
:102F8000031CC32FC42FD12FFF304001B2000030EB
:102F9000B3000030A7000030A6000030A5000030CC
:102FA000A40040013308803AA80080302802031DA5
:102FB000DB2F013032020318DE2FDF2FEB2F400111
:102FC000B201B3010030A7000030A6000030A50018
:102FD0000030A400B10140013208B800381CF12FC4
:102FE000F22FF42FA617F82F7F30A8002808A60587
:102FF0003836A7003108A8002808A704BF2E08000B
:103D1400B03404340034003471084301AD00700839
:103D2400AC00080071084201EE007008ED000800C4
:103D340071084301AF007008AE000800F10071087B
:103D44009E31AE269E3108004F01960197019801DD
:103D540099019A019B010800F0004E010F1EB32E39
:103D6400B42EAF2E700842019A0008007308720442
:103D7400710470040319BF2EC02EC22E8030F306C6
:103D840008006400800101310130FE020030FF3B75
:103D94007F087E04031DC42E0034803047018E004A
:103DA4001F308D00C0308C0044011F08F3390438E3
:103DB4009F0008000130450190008F0191013F30C0
:103DC4008D008C014E019010F03045018E000800EA
:103DD4004E018F1EEE2EEF2EEA2E4101EE0142011E
:103DE4009D1CF52EF62EF82E1D121D16190808001E
:103DF400F81BFD2EFE2EFF2E0A2F7709F9007809F5
:103E0400FA00F90A0319FA0A7908F7007A08F8009F
:103E140008009E31A6269F3191310D219F318031BA
:103E240004209F319E31CF269F319E31DC269F3165
:103E34009F31BB279F310800F31B212F222F232FF3
:103E4400322F7009F0007109F1007209F200730950
:103E5400F300F00A0319F10A0319F20A0319F30A29
:103E64000800D1304101E30000304001EB00EC00D8
:103E7400410150084001EE0041014F084001ED00AE
:103E8400E330EF00903105209F3108007C084001A9
:103E9400A1007B08A000A136A00CA136A00C20082C
:103EA40047018D007B0803394001A0000530A0358F
:103EB400FF3E031D592F203547018C000800F500F3
:103EC4007508F4007408860002308700F40A71084B
:103ED400F3007008F200F00A0319F10A7208840072
:103EE400730885000008C03F8908031D7A2F7B2FC3
:103EF400642F0800F401F501701C812F822F862F96
:103F04007208F4077308F53D0130F235F30D890B9F
:103F1400872F0130F136F00C890B8C2F7008710457
:103F2400031D952F962F7E2F7508F1007408F0005D
:103F3400080080304001B8063C08F3003B08F2005A
:103F44003A08F1003908F0003808F7003708F6009D
:103F54003608F5003508F400893194219F3173083F
:103F64004001B8007208B7007108B6007008B500C7
:103F74000800083042019F0090309D0024309E00CC
:103F8400CF309B009C010030F0000030F1009E31E6
:103F940094269F310030F0000030F1009E319A26C3
:103FA4009F310030F0000030F1009E318E269F31A9
:103FB4004101EE010800F800F401F5017008F20077
:103FC400F3017208F6007308F700781CEA2FEB2F50
:103FD400EF2F7608F4077708F53D0130F635F70D35
:103FE400890BF02F0310F80C7808031DFA2FFB2F10
:103FF400E72F7508F1007408F000080025346934CF
:104004002C3425346C342C34253466342C34253447
:1040140066342C3425346634003469346E346634A2
:1040240000346E3461346E340034253464340A341C
:104034000034253473340A340034253469340034AC
:044044002C340034E4
:020000040001F9
:0A000E00EC3FFF3F9F3FFF1FFF3F45
:00000001FF
